:04000000A8EF00F075
:10001800D8CF07F0E8CF08F0E0CF09F0F2A401D07C
:1000280001D050D0FB0E026E1D0E016E4DEC22F079
:1000380000016A4B6B2B664B672B010E6027000E85
:100048006123000E6223000E6323644B652BA34BD0
:10005800A42BA54BA62BA74BA82BA94BAA2B9B4B94
:100068009C2B9D4B9E2B9F4BA02BA14BA22B82A080
:1000780001D001D002D0726B01D0722B562A525097
:10008800020AD8A401D001D00ED0640E566401D063
:1000980001D009D082A201D001D002D0829201D031
:1000A8008282566A0ED05204D8A401D001D003D05F
:1000B8008282566A06D0526601D001D002D082925E
:1000C800566AF2949EAC01D001D037D01CD0C3CF71
:1000D80099F0C4CF9AF0050EC26E2CD0C3CF97F01A
:1000E800C4CF98F0090EC26E25D0C3CF95F0C4CF07
:1000F80096F00D0EC26E1ED0C3CF93F0C4CF94F00D
:10010800010EC26E17D0C2503C0B056E066A06502F
:10011800000AD8B401D0F4D70550000AD8B4D7D70C
:10012800040AD8B4DBD70C0AD8B4DFD7040AD8B489
:10013800E3D7E6D780EC22F09E9C09C0E0FF08C018
:0C014800E8FF07C0D8FF100056EF21F0C0
:10060000434445464748494A4B4C4D4E4F50515242
:10061000535455FFFFFFFFFFFFFFFF565758595A2E
:100620005B5C5D5E5F606162636465666768696AA2
:100630006B6C6D6E6F707172737475767778797A92
:100640007B7C7D7E7F808182838485868788898A82
:10065000FF8B8C8D8E8F9091929394949596979812
:10066000999A9B9C9D9E9FA0A1A2A3A4A5A6A7A882
:10067000A9AAABACADAEAFB0B1B2B3B4B577777732
:100680002E6575726F736F757263652E73652F7645
:10069000696C6E6975735F312E786D6C000077EC54
:1006A00022F0000EF66E060EF76E0800F5500A6E88
:1006B0000B6A000E0C6A2BEC20F077EC22F0000E97
:1006C000466E462A46C0F6FF060EF76E0800F55045
:1006D0000A6E0B6A000E0C6A2BEC20F077EC22F00D
:1006E000000E466E020E462646C0F6FF060EF76E58
:1006F0000800F5500A6E0B6A010E0C6E2BEC20F010
:1007000077EC22F0000E466E030E462646C0F6FF3A
:10071000060EF76E0800F5500A6E0B6A010E0C6E9D
:100720002BEC20F077EC22F0000E466E040E4626ED
:1007300046C0F6FF060EF76E0800F5500A6E0B6A0B
:10074000020E0C6E2BEC20F077EC22F0000E466EC1
:10075000050E462646C0F6FF060EF76E0800F55059
:100760000A6E0B6A020E0C6E2BEC20F077EC22F076
:10077000000E466E060E462646C0F6FF060EF76EC3
:100780000800F5500A6E0B6A030E0C6E2BEC20F07D
:1007900077EC22F0000E466E070E462646C0F6FFA6
:1007A000060EF76E0800F5500A6E0B6A030E0C6E0B
:1007B0002BEC20F077EC22F0000E466E080E462659
:1007C00046C0F6FF060EF76E0800F5500A6E0B6A7B
:1007D000040E0C6E2BEC20F077EC22F0000E466E2F
:1007E000090E462646C0F6FF060EF76E0800F550C5
:1007F0000A6E0B6A040E0C6E2BEC20F077EC22F0E4
:10080000000E466E0A0E462646C0F6FF060EF76E2E
:100810000800F5500A6E0B6A050E0C6E2BEC20F0EA
:1008200077EC22F0000E466E0B0E462646C0F6FF11
:10083000060EF76E0800F5500A6E0B6A050E0C6E78
:100840002BEC20F077EC22F0000E466E0C0E4626C4
:1008500046C0F6FF060EF76E0800F5500A6E0B6AEA
:10086000060E0C6E2BEC20F077EC22F0000E466E9C
:100870000D0E462646C0F6FF060EF76E0800F55030
:100880000A6E0B6A060E0C6E2BEC20F077EC22F051
:10089000000E466E0E0E462646C0F6FF060EF76E9A
:1008A0000800F5500A6E0B6A000E0C6A2BEC20F063
:1008B00077EC22F0000E466E0F0E462646C0F6FF7D
:1008C000060EF76E0800F5500A6E0B6A000E0C6AF1
:1008D0002BEC20F077EC22F0000E466E100E462630
:1008E00046C0F6FF060EF76E0800F5500A6E0B6A5A
:1008F000000E0C6A2BEC20F077EC22F0000E466E16
:10090000110E462646C0F6FF060EF76E0800F5509B
:100910000A6E0B6A000E0C6A2BEC20F077EC22F0CA
:10092000000E466E120E462646C0F6FF060EF76E05
:100930000800F5500A6E0B6A000E0C6A2BEC20F0D2
:100940000001B96BBA6B77EC22F0B9C046F01B0E10
:1009500046264650000F476E47C0F6FF060EF76E5C
:100960000800F5500A6E0B6A000E0C6A2BEC20F0A2
:1009700077EC22F0B9C046F0370E46264650000FFD
:10098000476E47C0F6FF060EF76E0800F5500A6E78
:100990000B6A000E0C6A2BEC20F077EC22F0B9C049
:1009A00046F0230E46264650000F476E47C0F6FF1E
:1009B000060EF76E0800F5500A6E0B6A000E0C6A00
:1009C0002BEC20F077EC22F0B9C046F02B0E462637
:1009D0004650000F476E47C0F6FF060EF76E080040
:1009E000F5500A6E0B6A000E0C6A2BEC20F077ECC7
:1009F00022F0B9C046F0470E46264650000F476E1B
:100A000047C0F6FF060EF76E0800F5500A6E0B6A37
:100A1000000E0C6A2BEC20F00001B94BBA2BBA5136
:100A2000800A800F080ED8B4B95D8DE3B36BB46B48
:100A300077EC22F0B3C046F03F0E46264650000F3A
:100A4000476E47C0F6FF060EF76E0800F5500A6EB7
:100A50000B6AFF0E0C682BEC20F00001B34BB42B9B
:100A6000B451800A800F080ED8B4B35DE1E377EC8F
:100A700022F0000E466E330E462646C0F6FF060EE6
:100A8000F76E0800F5500A6E0B6AC80E0C6E2BEC60
:100A900020F077EC22F0000E466E340E462646C05B
:100AA000F6FF060EF76E0800F5500A6E0B6AC80EC8
:100AB0000C6E2BEC20F077EC22F0000E466E350E1B
:100AC000462646C0F6FF060EF76E0800F5500A6E81
:100AD0000B6AC80E0C6E2BEC20F077EC22F0000EA7
:100AE000466E360E462646C0F6FF060EF76E080026
:100AF000F5500A6E0B6AC80E0C6E2BEC20F077ECEA
:100B000022F0000E466E4F0E462646C0F6FF060E39
:100B1000F76E0800F5500A6E0B6A000E0C6A2BEC9B
:100B200020F077EC22F0000E466E500E462646C0AE
:100B3000F6FF060EF76E0800F5500A6E0B6A000EFF
:100B40000C6A2BEC20F077EC22F0510EF66E060EBC
:100B5000F76E0800F5500A6E0B6A000E0C6A2BEC5B
:100B600020F077EC22F0510E466E030E462646C06A
:100B7000F6FF060EF76E0800F5500A6E0B6A000EBF
:100B80000C6A2BEC20F077EC22F0510E466E060E2C
:100B9000462646C0F6FF060EF76E0800F5500A6EB0
:100BA0000B6A000E0C6A2BEC20F077EC22F0510E51
:100BB000466E090E462646C0F6FF060EF76E080082
:100BC000F5500A6E0B6A000E0C6A2BEC20F077ECE5
:100BD00022F0510E466E462A46C0F6FF060EF76E0C
:100BE0000800F5500A6E0B6A0A0E0C6E2BEC20F012
:100BF00077EC22F0510E466E040E462646C0F6FFF4
:100C0000060EF76E0800F5500A6E0B6A0A0E0C6E9F
:100C10002BEC20F077EC22F0510E466E070E4626A4
:100C200046C0F6FF060EF76E0800F5500A6E0B6A16
:100C30000A0E0C6E2BEC20F077EC22F0510E466E73
:100C40000A0E462646C0F6FF060EF76E0800F5505F
:100C50000A6E0B6A0A0E0C6E2BEC20F077EC22F079
:100C6000510E466E020E462646C0F6FF060EF76E81
:100C70000800F5500A6E0B6A100E0C6E2BEC20F07B
:100C800077EC22F0510E466E050E462646C0F6FF62
:100C9000060EF76E0800F5500A6E0B6A100E0C6E09
:100CA0002BEC20F077EC22F0510E466E080E462613
:100CB00046C0F6FF060EF76E0800F5500A6E0B6A86
:100CC000100E0C6E2BEC20F077EC22F0510E466EDD
:100CD0000B0E462646C0F6FF060EF76E0800F550CE
:100CE0000A6E0B6A100E0C6E2BEC20F00001B66B36
:100CF0000C0EB56F77EC22F00001B551510F466E26
:100D000046C0F6FF060EF76E0800F5500A6E0B6A35
:100D1000000E0C6A2BEC20F00001B54BB62BB6513F
:100D2000800A800F2C0ED8B4B55DE4E377EC22F096
:100D3000510E466E0D0E462646C0F6FF060EF76EA5
:100D40000800F5500A6E0B6A800E0C6E2BEC20F03A
:100D500077EC22F0510E466E0C0E462646C0F6FF8A
:100D6000060EF76E0800F5500A6E0B6A3F0E0C6E09
:100D70002BEC20F077EC22F0510E466E110E462639
:100D800046C0F6FF060EF76E0800F5500A6E0B6AB5
:100D9000800E0C6E2BEC20F077EC22F0510E466E9C
:100DA000100E462646C0F6FF060EF76E0800F550F8
:100DB0000A6E0B6A3F0E0C6E2BEC20F077EC22F0E3
:100DC000510E466E150E462646C0F6FF060EF76E0D
:100DD0000800F5500A6E0B6A800E0C6E2BEC20F0AA
:100DE00077EC22F0510E466E140E462646C0F6FFF2
:100DF000060EF76E0800F5500A6E0B6A3F0E0C6E79
:100E00002BEC20F077EC22F0510E466E190E4626A0
:100E100046C0F6FF060EF76E0800F5500A6E0B6A24
:100E2000800E0C6E2BEC20F077EC22F0510E466E0B
:100E3000180E462646C0F6FF060EF76E0800F5505F
:100E40000A6E0B6A3F0E0C6E2BEC20F00001B76BA4
:100E5000B86B77EC22F00001B851B7C046F0476A92
:100E6000D89046364736D89046364736D8904636DC
:100E700047364626000E4722B60E46240A6E000E5E
:100E800047200B6E000E0C6A2BEC20F00001B82BF3
:100E9000070EB865DED7B72B030EB765D9D76BEF52
:100EA0000EF0E66BE76BE651020DF3CFDAF03F0E82
:100EB000DA27DA51000FDB6FDBC0F6FF060EF76EA4
:100EC0000800F5500A6E0B6A44EC22F00001DD6F59
:100ED000DC6BE651020DF3CFDEF0400EDE27DE5173
:100EE000000FDF6FDFC0F6FF060EF76E0800F5504B
:100EF0000A6E0B6A44EC22F00001DC27000EDD23B1
:100F0000E651020DF350930FD96EDA6ADECFE0F0AE
:100F1000DDCFE1F0DC51E05DDD51E15943E277ECFA
:100F200022F00001E651020DF3CFDAF03F0EDA278E
:100F3000DA51000FDB6FDBC0F6FF060EF76E08001C
:100F4000F5500A6E0B6AE651020DF350930FD96EFD
:100F5000DA6ADECFDCF0DDCFDDF0DDC0DCF0DD6BAA
:100F6000DC510C6E2BEC20F077EC22F00001E65106
:100F7000020DF3CFDAF0400EDA27DA51000FDB6F03
:100F8000DBC0F6FF060EF76E0800F5500A6E0B6A1E
:100F9000E651020DF350930FD96EDA6ADF500C6EF2
:100FA0002BEC20F00001E651020DF350930FD96EA7
:100FB000DA6ADECFDAF0DDCFDBF0E651020DF3CFF7
:100FC000DCF0470EDC27DC51000FDD6FDDC0F6FFE3
:100FD000060EF76E0800F5500A6E0B6A44EC22F01C
:100FE0000001DF6FDE6BE651020DF3CFE0F0480E3B
:100FF000E027E051000FE16FE1C0F6FF060EF76E4B
:101000000800F5500A6E0B6A44EC22F00001DE275E
:10101000000EDF23DA51DE5DDB51DF5943E277EC6E
:1010200022F00001E651020DF3CFDAF0470EDA2785
:10103000DA51000FDB6FDBC0F6FF060EF76E08001B
:10104000F5500A6E0B6AE651020DF350930FD96EFC
:10105000DA6ADECFDCF0DDCFDDF0DDC0DCF0DD6BA9
:10106000DC510C6E2BEC20F077EC22F00001E65105
:10107000020DF3CFDAF0480EDA27DA51000FDB6FFA
:10108000DBC0F6FF060EF76E0800F5500A6E0B6A1D
:10109000E651020DF350930FD96EDA6ADF500C6EF1
:1010A0002BEC20F00001E651020DF3CFDAF01C0E1C
:1010B000DA27DA51000FDB6FDBC0F6FF060EF76EA2
:1010C0000800F5500A6E0B6A44EC22F00001DC6F58
:1010D000E651020DF3CFDDF01B0EDD27DD51000FD1
:1010E000DE6FDEC0F6FF060EF76E0800F5500A6EE2
:1010F0000B6A44EC22F00001E56FDC51E46FE5116E
:1011000026E0E651020DF350A30FD96EDA6ADECF66
:10111000DAF0DDCFDBF0DA51E45DDB51E55917E2BF
:10112000E651020DF350A30FD96EDA6ADE6ADD6A6A
:10113000E6C0C7F0E651020DF350930FD96EDA6A9C
:10114000DECFC8F0DDCFC9F0020E11EC20F0E6C012
:10115000DAF00F0EDA27DA51000FDB6FDBC0F6FF93
:10116000060EF76E0800F5500A6E0B6A44EC22F08A
:101170000001DC6FDCA3A3D0E651AF0FD96EDA6AB1
:10118000DF5047E1E651020DF3CFDAF0230EDA2704
:10119000DA51000FDB6FDBC0F6FF060EF76E0800BA
:1011A000F5500A6E0B6A44EC22F00001DD6FDC6B37
:1011B000E651020DF3CFDEF0240EDE27DE51000FE4
:1011C000DF6FDFC0F6FF060EF76E0800F5500A6EFF
:1011D0000B6A44EC22F00001DC27000EDD23E6510F
:1011E000020DF350930FD96EDA6ADECFE0F0DDCF57
:1011F000E1F0DC51E05DDD51E15961E2E651AF0F14
:10120000D96EDA6A010EDF6E4F80E65148EC1EF0AF
:1012100056D0E651020DF350930FD96EDA6ADECF45
:10122000DAF0DDCFDBF0E651020DF3CFDCF0230E78
:10123000DC27DC51000FDD6FDDC0F6FF060EF76E18
:101240000800F5500A6E0B6A44EC22F00001DF6FD3
:10125000DE6BE651020DF3CFE0F0240EE027E05103
:10126000000FE16FE1C0F6FF060EF76E0800F550C3
:101270000A6E0B6A44EC22F00001DE27000EDF2329
:10128000E6C0E2F0330EE227E251000FE36FE3C065
:10129000F6FF060EF76E0800F5500A6E0B6A44EC76
:1012A00022F00001DE27000EDF23DA51DE5DDB5184
:1012B000DF5905E2E651AF0FD96EDA6ADF6AE6C0A0
:1012C000DAF00F0EDA27DA51000FDB6FDBC0F6FF22
:1012D000060EF76E0800F5500A6E0B6A44EC22F019
:1012E0000001DC6FDCA5A4D0E651AB0FD96EDA6A41
:1012F000DF5048E1E651020DF350930FD96EDA6AE0
:10130000DECFDAF0DDCFDBF0E651020DF3CFDCF01B
:101310002B0EDC27DC51000FDD6FDDC0F6FF060E63
:10132000F76E0800F5500A6E0B6A44EC22F00001DB
:10133000DF6FDE6BE651020DF3CFE0F02C0EE027FD
:10134000E051000FE16FE1C0F6FF060EF76E0800F6
:10135000F5500A6E0B6A44EC22F00001DE27000E05
:10136000DF23DA51DE5DDB51DF5962E2E651AB0F7C
:10137000D96EDA6A010EDF6E4F88E651800F48ECB5
:101380001EF056D0E651020DF3CFDAF02B0EDA271D
:10139000DA51000FDB6FDBC0F6FF060EF76E0800B8
:1013A000F5500A6E0B6A44EC22F00001DD6FDC6B35
:1013B000E651020DF3CFDEF02C0EDE27DE51000FDA
:1013C000DF6FDFC0F6FF060EF76E0800F5500A6EFD
:1013D0000B6A44EC22F00001DC27000EDD23E6C09E
:1013E000E0F0330EE027E051000FE16FE1C0F6FFBF
:1013F000060EF76E0800F5500A6E0B6A44EC22F0F8
:101400000001DC5F000EDD5BE651020DF350930F2F
:10141000D96EDA6ADECFE2F0DDCFE3F0DC51E25DD7
:10142000DD51E35905E2E651AB0FD96EDA6ADF6AA6
:10143000E651020DF3CFDAF0380EDA27DA51000F59
:10144000DB6FDBC0F6FF060EF76E0800F5500A6E84
:101450000B6A44EC22F00001DC6FE651020DF3CF81
:10146000DDF0370EDD27DD51000FDE6FDEC0F6FF49
:10147000060EF76E0800F5500A6E0B6A44EC22F077
:101480000001E56FDC51E46FE51112E0E651020D59
:10149000F3509B0FD96EDA6ADECFDAF0DDCFDBF0E6
:1014A000DA51E45DDB51E55903E2E65170EC19F0E5
:1014B000E64BE72BE751800A800F040ED8B4E65DB7
:1014C00001E2F1D4000EDA6F4F0EDA27DAC0F6FF30
:1014D000060EF76E0800F5500A6E0B6A44EC22F017
:1014E0000001DB6FDBA95FD0000EDA6F4F0EDA2749
:1014F000DAC0F6FF060EF76E0800F5500A6E0B6AAA
:1015000044EC22F00001DB6FDBA14DD06C5124E0F4
:1015100082BA45D0000EDA6F4F0EDA27DAC0F6FF36
:10152000060EF76E0800F5500A6E0B6A44EC22F0C6
:101530000001DB6FDBAD08D01E0EC76F060EC86F53
:10154000000ECEEC1DF02BD0140EC76F040EC86F2A
:10155000000ECEEC1DF023D082AA21D0000EDA6F4F
:101560004F0EDA27DAC0F6FF060EF76E0800F550C8
:101570000A6E0B6A44EC22F00001DB6FDBAD08D091
:101580001E0EC76F050EC86F000ECEEC1DF007D003
:10159000140EC76F030EC86F000ECEEC1DF0000EC8
:1015A00082BA010E6C6F000EDA6F4F0EDA27DAC0C6
:1015B000F6FF060EF76E0800F5500A6E0B6A44EC53
:1015C00022F00001DB6FDBAB5FD0000EDA6F4F0E55
:1015D000DA27DAC0F6FF060EF76E0800F5500A6E3D
:1015E0000B6A44EC22F00001DB6FDBA34DD06D51A0
:1015F00024E082B845D0000EDA6F4F0EDA27DAC049
:10160000F6FF060EF76E0800F5500A6E0B6A44EC02
:1016100022F00001DB6FDBAF08D01E0EC76F060E95
:10162000C86F010ECEEC1DF02BD0140EC76F040E48
:10163000C86F010ECEEC1DF023D082A821D0000E81
:10164000DA6F4F0EDA27DAC0F6FF060EF76E0800E3
:10165000F5500A6E0B6A44EC22F00001DB6FDBAF41
:1016600008D01E0EC76F050EC86F010ECEEC1DF020
:1016700007D0140EC76F030EC86F010ECEEC1DF01D
:10168000000E82B8010E6D6F12007A51791101E1DE
:10169000F0D220D389EC22F01DD3A3EC20F01AD392
:1016A00078EC21F017D35FEC20F014D377510F0BB7
:1016B000020A01E00FD3745120EE7DF0DF620AD3FD
:1016C000800E7E6111D07E5136EC14F08C6F7EC09E
:1016D0008BF0030E866F820E856F876B886B0A0E08
:1016E000896F77EC20F0F6D27E5121EC15F00001E5
:1016F000EDD777510F0B030A01E0ECD2745120EEC5
:101700007DF0DF62E7D2800E7E6106D07FC04AF0B6
:101710007E51F9EC15F0DAD77FC048F07E51A2EC8B
:101720001AF0D4D7745120EE7DF0DF62D3D2000ED0
:1017300027EC22F000017F1901E0CCD2030E27EC48
:1017400022F00001801901E0C5D2050E27EC22F03D
:101750000001811901E0BED2070E27EC22F0000142
:10176000821901E0B7D26951831901E0B3D26851FF
:1017700020EE84F0DF62AED27E51B3EC21F0AAD22B
:10178000000E27EC22F000017E1973E1010E27EC18
:1017900022F000017F196DE1020E27EC22F000011A
:1017A000801967E1030E27EC22F00001811961E145
:1017B00051885FD0040E27EC22F000017E1959E118
:1017C000050E27EC22F000017F1953E1060E27ECED
:1017D00022F0000180194DE1070E27EC22F00001F4
:1017E000811947E1518A45D0080E27EC22F000010B
:1017F0007E193FE1090E27EC22F000017F1939E143
:101800000A0E27EC22F00001801933E10B0E27ECC1
:1018100022F0000181192DE1518C2BD00C0E27EC08
:1018200022F000017E1925E10D0E27EC22F00001C7
:101830007F191FE10E0E27EC22F00001801919E13B
:101840000F0E27EC22F00001811913E1518E11D007
:10185000516A0FD07D390F0BDD6FDE6BDE51F8E181
:10186000DD518EE0010AA6E0030ABEE0010AD6E0DF
:10187000EFD75150F00BF00A01E02CD270EC1FF0C2
:1018800029D2745120EE7DF0DF6224D2E96B7EC054
:10189000E8F07FC0EBF0F76B4AD0E851F725CEECCB
:1018A00021F00001DD6F070E0A6EF751E2EC20F027
:1018B0000001DE6FDE518C0FD96EDA6ADDC0DFFF0A
:1018C000070E0A6EF751E2EC20F0060A0BE0FF0E5D
:1018D0000001EB25DD6FDE6BFF0EDE23F751DD1916
:1018E000DE1124E1070E0A6E0001F751E2EC20F050
:1018F000060A03E1070E000109D0070E0A6E000177
:10190000F751E2EC20F00001DD6FDD29EA6FEA51CA
:10191000810F856F070E866F876B886B1A0E896F34
:10192000E9C08BF077EC20F00001E92BF72BEB51AD
:10193000F75D01E3CFD1B1D7745120EE7DF0DF62C6
:10194000C9D17EC0ECF07751FE0F070BED6FF26B43
:1019500017D0F2517F0FD96EDA6ADF50DC6FEC518D
:10196000F22567EC21F0EC51F225CEEC21F00001DC
:10197000DD6FF2518C0FD96EDA6ADDC0DFFFF22B1A
:10198000ED51F25DE6E3070E866F876B886B1A0EEA
:10199000896F8B6BED51810F856FA3D6745120EE4B
:1019A0007DF0DF6297D17E5136EC14F0DD6FDD29DA
:1019B0004A6E7E51F9EC15F089D6745120EE7DF017
:1019C000DF6288D17E5136EC14F0DD6FDD054A6EA2
:1019D0007E51F9EC15F07AD67D51741903E07D291A
:1019E00001E078D1F16B030E866F880E856F876BEF
:1019F000886B200E896FF66BF6C08BF0010EF86FC6
:101A0000F8518B0FD96EDA6AF1510F0827EC22F0EA
:101A1000DF6E0001F12B100EF16501D004D0F82B20
:101A2000070EF865EDD7100EF16501D007D077EC01
:101A300020F00001F62B020EF665DED7F86BF851A8
:101A4000DBEC21F0000908E0F8518E0FD96EDA6A5C
:101A5000F851DBEC21F005D0F8518E0FD96EDA6A1F
:101A6000000EDF6EF82B040EF865E9D777EC20F056
:101A7000050E0001F16F030EF66FF6C08BF0010E3C
:101A8000F86FF8518B0FD96EDA6AF151DBEC21F067
:101A9000DF6EF12BF82B070EF865F3D777EC20F00B
:101AA0000001F62B060EF665E8D714D1745120EE2E
:101AB0007DF0DF620FD1030E866F870E856F876B17
:101AC000886B220E896F8B0EF3EC21F00AD67451CD
:101AD00020EE7DF0DF62FED0F36B77C0DDF00F0EFD
:101AE000DD17040EDD5D12E381C0F4F0F56BF551F6
:101AF000F41103E1010EF56FF46B010EF45D010EBC
:101B0000F55907E3010EF56F000E02D0F56B010EDB
:101B1000F46F68C0E4F069C0E5F07F517EC0DDF08D
:101B2000DE6BDDC0DEF0DD6BDD11686FDE51696FED
:101B3000070E866F876B886B270E896F8B6B7EC055
:101B40008CF07FC08DF0F351F45DDD6F000EF55920
:101B5000DE6F040EDD5D000EDE5902E3040E02D0DE
:101B6000F351F45DEE6FEE51840F856F8051F325D4
:101B70008E6FEF6B0ED08051F325EF25CEEC21F068
:101B80000001DD6FEF518F0FD96EDA6ADDC0DFFF24
:101B9000EF2BEE51EF5DEFE377EC20F00001EE511B
:101BA000F3278B2BF351DD6FDE6BF451DD5DF551C7
:101BB000DE59C9E3E4C068F0E5C069F08BD0745128
:101BC00020EE7DF0DF6286D068C0E6F069C0E7F005
:101BD0007F517EC0DDF0DE6BDDC0DEF0DD6BDD1140
:101BE000686FDE51696F80C0F0F013D080518108BA
:101BF000F025D96EDA6ADF50DC6FF05167EC21F026
:101C0000DD6F80518F08F025D96EDA6ADDC0DFFF05
:101C1000F02B77510F0BDD6FDE6B8051DD27000E4F
:101C2000DE23FC0EDD25DF6FFF0EDE21E06FF051BD
:101C3000E16FE26BE251800AE36FDF51E15DE05159
:101C4000800AE359D3E3E6C068F0E7C069F0070E05
:101C5000866F77510F0B800F856F876B886B270E10
:101C6000896F8B6B7EC08CF07FC08DF080C08EF052
:101C700038D57B51010A01E10DD5030A01E10DD5EB
:101C8000040A01E10DD50E0A01E10DD5010A01E1B9
:101C90000DD5020A01E12DD5070A01E143D51B0A42
:101CA00001E1D8D50F0A01E1ECD5010A01E144D6E2
:101CB000040A01E173D6030A01E17FD6010A01E1BA
:101CC0008BD63E0A01E1F2D6040A01E100D7030AED
:101CD00001E175D71200386839683A683B683C6A98
:101CE0003D6A3E6A3F6A456A4550146E156AD8904F
:101CF00014361536D89014361536D8901436153655
:101D0000440E14240A6E000E15200B6E44EC22F0D3
:101D1000166E16AEE8D14550146E156AD89014367A
:101D20001536D89014361536D89014361536470E19
:101D300014240A6E000E15200B6E44EC22F0166E71
:101D400016C017F0186A196A1A6A19C01AF018C072
:101D500019F017C018F0176A45501B6E1C6AD8900E
:101D60001B361C36D8901B361C36D8901B361C36BA
:101D7000450E1B240A6E000E1C200B6E44EC22F054
:101D80001D6E1DC01EF01F6A206A216A1FC021F04F
:101D90001EC020F01F6A1E6A4550226E236AD8902A
:101DA00022362336D89022362336D8902236233650
:101DB000440E22240A6E000E23200B6E44EC22F007
:101DC000246E020E241624C025F0266A276A286A8B
:101DD000170ED8902536263627362836E82EF9D71E
:101DE0001E502510296E1F5026102A6E20502710D5
:101DF0002B6E215028102C6E175029102D6E185064
:101E00002A102E6E19502B102F6E1A502C10306E77
:101E1000FF0E2D10336E2E50346E2F50356E305015
:101E2000366E4550146E156AD89014361536D89013
:101E300014361536D89014361536480E14240A6E0A
:101E4000000E15200B6E44EC22F0166E16C017F033
:101E5000186A196A1A6A19C01AF018C019F017C05E
:101E600018F0176A45501B6E1C6AD8901B361C363A
:101E7000D8901B361C36D8901B361C36460E1B24B9
:101E80000A6E000E1C200B6E44EC22F01D6E1DC06D
:101E90001EF01F6A206A216A1FC021F01EC020F0B8
:101EA0001F6A1E6A4550226E236AD8902236233656
:101EB000D89022362336D89022362336440E222458
:101EC0000A6E000E23200B6E44EC22F0246E010EED
:101ED000241624C025F0266A276A286A25C028F01F
:101EE000276A266A256A1E502510296E1F50261063
:101EF0002A6E205027102B6E215028102C6E175060
:101F000029102D6E18502A102E6E19502B102F6E7E
:101F10001A502C10306E4550316E326AD8903136DE
:101F20003236D89031363236D89031363236430E8A
:101F300031240A6E000E32200B6E44EC22F02D107C
:101F4000406E2E50416E2F50426E3050436E4566AB
:101F500008D040C03CF041C03DF042C03EF043C01C
:101F60003FF0335038163450391635503A16365043
:101F70003B16446A445040C014F041C015F042C0C2
:101F800016F043C017F0E82A05D0D8901732163261
:101F900015321432E82EF9D7010E141644503CC005
:101FA00018F03DC019F03EC01AF03FC01BF0E82AFF
:101FB00005D0D8901B321A3219321832E82EF9D7D0
:101FC0001850010B14181DE044C014F0010E156EDA
:101FD000166A142A03D0D89015361636142EFBD75D
:101FE000151C176E161C186E196A18BE19061950A2
:101FF0001A6E175038161850391619503A161A50CA
:102000003B16442A1F0E4464B5D740503C1641503D
:102010003D1642503E1643503F1645504FE0446A2D
:1020200045C014F04550156E166AD8901536163610
:10203000D89015361636D89015361636430E152418
:102040000A6E000E16200B6E44EC22F0176E142A56
:1020500002D0D8901732142EFCD7010E171645C0A7
:1020600018F037C019F0182A02D0D8901932182E5B
:10207000FCD71950010B17181DE045C014F0010ED4
:10208000156E166A142A03D0D89015361636142EFB
:10209000FBD715C017F016C018F0000E18BEFF0EC3
:1020A000196E1A6E175038161850391619503A16FC
:1020B0001A503B16442A070E4464B2D74550146E9A
:1020C000156AD89014361536D89014361536D8902F
:1020D00014361536430E14240A6E000E15200B6EAE
:1020E00044EC22F0376E452A030E4564FDD5800E80
:1020F000E7EC21F00F010F0E0B6E1C0E0A6E38C0BC
:102100000CF039C00DF03AC00EF03BC00FF0010EDC
:10211000106EC8EC18F00D01D4830F010F0E0B6E7A
:10212000040E0A6E3CC00CF03DC00DF03EC00EF037
:102130003FC00FF0010E106EC8EC18F0000EE7EF74
:1021400021F07A51791101E16DD1F56BF551EB6F09
:10215000EC6BD890EB37EC37D890EB37EC37D89066
:10216000EB37EC37B60EEB250A6E000EEC210B6E4A
:1021700044EC22F00001F46FF4AF4FD1F4AD18D06D
:10218000F551EB6FEC6BD890EB37EC37D890EB3721
:10219000EC37D890EB37EC37B60EEB250A6E000E15
:1021A000EC210B6E44EC22F000017C1901E035D1EA
:1021B000F4A910D07E290EE0000EF66E060EF76E22
:1021C0000800F5500A6E0B6A44EC22F000017E19FB
:1021D00001E023D1F4A713D07F2911E0000EEB6FAB
:1021E000EB2BEBC0F6FF060EF76E0800F5500A6EFB
:1021F0000B6A44EC22F000017F1901E00ED1F55189
:10220000080DB90EF3240A6E000EF4200B6E44EC98
:1022100022F00001EB6FF451010BED6FEC6BEB5111
:10222000EC25EE6F000EED21EF6FF551080DB80EA5
:10223000F3240A6E000EF4200B6E44EC22F0000131
:10224000EB6FF451020BEC6FED6B070ED890EC378F
:10225000ED37E82EFBD7EB51EC25F06F000EED21AA
:10226000F16FF551EB6FEC6BD890EB37EC37D89002
:10227000EB37EC37D890EB37EC37BB0EEB250A6E1B
:10228000000EEC210B6E44EC22F00001F26FF551D0
:10229000EB6FEC6BD890EB37EC37D890EB37EC3733
:1022A000D890EB37EC37BA0EEB250A6E000EEC2116
:1022B0000B6E44EC22F00001F36F20EE79F0DECFDC
:1022C000EBF0DDCFECF0EE51EB1BEF51EC1BF051DE
:1022D000EB17F151EC17EC51EB1101E09ED07B5163
:1022E000F219F31579E099D00001F551EB6FEC6B21
:1022F000D890EB37EC37D890EB37EC37D890EB37FA
:10230000EC37BD0EEB250A6E000EEC210B6E44EC93
:1023100022F05DEC22F081D00001F551EB6FEC6B07
:10232000D890EB37EC37D890EB37EC37D890EB37C9
:10233000EC37BD0EEB250A6E000EEC210B6E44EC63
:1023400022F056EC22F069D00001F551EB6FEC6BF6
:10235000D890EB37EC37D890EB37EC37D890EB3799
:10236000EC37BD0EEB250A6E000EEC210B6E44EC33
:1023700022F0F5EC1FF051D00001F551EB6FEC6B42
:10238000D890EB37EC37D890EB37EC37D890EB3769
:10239000EC37BD0EEB250A6E000EEC210B6E44EC03
:1023A00022F04CEC1FF039D00001F551EB6FEC6BD3
:1023B000D890EB37EC37D890EB37EC37D890EB3739
:1023C000EC37BD0EEB250A6E000EEC210B6E44ECD3
:1023D00022F0B6EC1FF021D0F551EB6FEC6BD890EA
:1023E000EB37EC37D890EB37EC37D890EB37EC374E
:1023F000BC0EEB250A6E000EEC210B6E44EC22F0B5
:10240000000A0BE0010A01E16FD7030A85E0010A27
:102410009BE0070AB1E0010AC7E00001F52B030EBB
:10242000F56594D61200E8CFC3F0C351040DF3CF85
:1024300046F00F0E46264650510F476E47C0F6FF36
:10244000060EF76E0800F5500A6E0B6A44EC22F097
:102450000001BF6FC351040DF3CF46F00E0E4626A8
:102460004650510F476E47C0F6FF060EF76E080044
:10247000F5500A6E0B6A44EC22F00001C06FC351A4
:10248000040DF3CF46F00D0E46264650510F476E11
:1024900047C0F6FF060EF76E0800F5500A6E0B6A8D
:1024A00044EC22F00001C16FC351040DF3CF46F09C
:1024B0000C0E46264650510F476E47C0F6FF060EDB
:1024C000F76E0800F5500A6E0B6A44EC22F000012A
:1024D000C26FBFC0B3F0C0C0B4F0C1C0B5F0C2C0DD
:1024E000B6F0C351040DF3CF46F01F0E46264650FA
:1024F000510F476E47C0F6FF060EF76E0800F55005
:102500000A6E0B6A44EC22F00001BF6FC351040D48
:10251000F3CF46F01E0E46264650510F476E47C079
:10252000F6FF060EF76E0800F5500A6E0B6A44ECD3
:1025300022F00001C06FC351040DF3CF46F01D0E11
:1025400046264650510F476E47C0F6FF060EF76EFF
:102550000800F5500A6E0B6A44EC22F00001C16FCE
:10256000C351040DF3CF46F01C0E46264650510FC2
:10257000476E47C0F6FF060EF76E0800F5500A6E6C
:102580000B6A44EC22F00001C26FBFC0B7F0C0C0BC
:10259000B8F0C1C0B9F0C2C0BAF0B3C01CF0B4C04A
:1025A0001DF0B5C01EF0B6C01FF0C351020DF350B0
:1025B000930FD96EDA6ADECF14F0DDCF15F0CDECD3
:1025C00020F017C01BF016C01AF015C019F014C087
:1025D00018F0B1EC1BF01BC0BEF01AC0BDF019C062
:1025E000BCF018C0BBF02B6AC00E2C6E7F0E2D6E97
:1025F000440E2E6E1C6A1D6AA00E1E6E400E1F6ECB
:10260000BBC018F0BCC019F0BDC01AF0BEC01BF0B2
:10261000B1EC1BF01BC02AF01AC029F019C028F039
:1026200018C027F02FEC1DF02AC039F029C038F06F
:1026300028C037F027C036F0B7C03AF0B8C03BF03A
:10264000B9C03CF0BAC03DF018EC18F039C045F004
:1026500038C044F037C043F036C042F01200E8CF33
:1026600016F04E6A7750C00B186E186632D060AE06
:1026700012D0A49074AE06D01350D96EDA6A000E50
:10268000DB86749E60A002D04E8001D04E900F0E6B
:102690001B6E600E1AD00F0150AF19D0A49274AC0B
:1026A00006D01350D96EDA6A000EDB86749C505146
:1026B000070B4E6E020E4E6005D01350D96EDA6ACB
:1026C000000EDB8E0F0E1B6E500E1A6E65D0000EC4
:1026D000CCD01850400A46E160AE04D00F0E1B6EFD
:1026E000600E3ED00F0150AF04D00F0E1B6E500E87
:1026F00037D00D01F8B507D00E0120AF04D00E0E73
:102700001B6E200E2DD00D01F8B707D00E0130AF93
:1027100004D00E0E1B6E300E23D00D01F8B907D079
:102720000E0140AF04D00E0E1B6E400E19D00D01ED
:10273000F8BB05D00E0150AF02D00E0ED7D70D0159
:10274000F8BD05D00E0160AF02D00E0EC8D70D0146
:10275000F8BFBDD70E0170AFBAD70E0E1B6E700E4C
:102760001A6E0AD074AEB3D76F50070B83EC1EF00D
:102770000AC01AF00BC01BF01AC0D9FF1BC0DAFF49
:10278000DF501F0B4E6EA49274AC06D01350D96E5E
:10279000DA6A000EDB86749C1AC014F01BC015F0B8
:1027A0001350D96EDA6ADF6A20EE05F01A50D92686
:1027B0001B50DA22DF50196E1250D96EDA6A1950A6
:1027C0000F0BDF6E19AC05D01350D96EDA6A000E0C
:1027D000DB8C20EE02F01A50D9261B50DA22DF5093
:1027E000196E19A608D01350D96EDA6A000EDB8A6A
:1027F000010E196E01D0196A1A280A6E000E1B20EC
:102800000B6E16C00CF019C00DF066EC17F0060E3A
:102810001A26000E1B221250D96EDA6ADF50196E8A
:10282000176A0DD01AC0D9FF1BC0DAFF1150E16E34
:10283000E26ADFCFE7FF1A4A1B2A112A172A19502A
:10284000175CF0E3A4AE06D01350D96EDA6A000E1E
:10285000DB88A49E14C0D9FF15C0DAFF7F0EDF16F7
:102860001850800AD8B4749E010E1200E8CFD9F037
:10287000D86B6951681153E1130ED9610ED0D9514B
:10288000000F486E48C0F6FF060EF76E0800F550C0
:102890000A6E0B6A44EC22F0D0D0D951130A02E13F
:1028A0009451CCD0D951140A03E193C0D8F0C7D0C9
:1028B000D951150A02E19651C1D0D951160A03E146
:1028C00095C0D8F0BCD0D951170A02E19851B6D0C2
:1028D000D951180A03E197C0D8F0B1D0D951190ADB
:1028E00002E19A51ABD0D9511A0A03E199C0D8F04C
:1028F000A6D01A0ED96504D0500ED96101D0BFD729
:10290000D951500A01E09BD08238E832010B486E61
:102910008238010B496ED890493448108FD0680531
:1029200069117CE12C0ED9610ED0D951510F486E3E
:1029300048C0F6FF060EF76E0800F5500A6E0B6AE7
:1029400044EC22F07AD02B0ED96517D0300ED96125
:1029500014D0000E13EC12F045C0C7F044C0C6F00E
:1029600043C0C5F042C0C4F00001C40ED46FD451BE
:10297000D925D96EDA6AD40E4DD02F0ED96517D06D
:10298000340ED96114D0010E13EC12F045C0CBF017
:1029900044C0CAF043C0C9F042C0C8F00001C80E2C
:1029A000D56FD551D925D96EDA6AD00E33D0330E12
:1029B000D96517D0380ED96114D0020E13EC12F07D
:1029C00045C0CFF044C0CEF043C0CDF042C0CCF003
:1029D0000001CC0ED66FD651D925D96EDA6ACC0E4D
:1029E00019D0370ED9652BD03C0ED96128D0030EF3
:1029F00013EC12F045C0D3F044C0D2F043C0D1F084
:102A000042C0D0F00001D00ED76FD751D925D96E72
:102A1000DA6AC80ED926DA6ADF5010D06851020A85
:102A200069110DE1200ED9610AD0B60ED9250A6EC2
:102A30000B6A000E0B2244EC22F00001D86FD85133
:102A40001200E8CF1EF01D6A1E50800A04E14FC03C
:102A50001DF04F6ACCD01E50810A02E1010E82D0D7
:102A60001E50820A02E1060E7DD01E50830A03E149
:102A700050C01DF0BCD01E50940A03E188EC22F037
:102A800071D01E50950A03E187EC22F06BD01E50E6
:102A9000960A03E186EC22F065D0890E1E6005D00F
:102AA0001E507C0F1DEC22F05DD0880E1E6408D0F5
:102AB000910E1E6005D01E50770F13EC22F052D0FD
:102AC0001E50910A03E174C01DF091D01E50930A6C
:102AD00003E168C01DF08BD01E50920A02E16951DB
:102AE00041D01E50970A03E185EC22F03BD01E50E6
:102AF000980A03E184EC22F035D01E50990A03E1D4
:102B000083EC22F02FD0990E1E642ED09E0E1E60F4
:102B10002BD069EC22F00DC016F00CC015F00BC0E4
:102B200014F00AC013F01E50660F1B6E1B500308F2
:102B30000E6ED8900E36D8900E36D8900E360E50B7
:102B400013C00FF014C010F015C011F016C012F031
:102B5000E82A05D0D8901232113210320F32E82E06
:102B6000F9D730D01D6E43D09D0E1E642DD0A20E1D
:102B70001E602AD064EC22F00DC01AF00CC019F0CF
:102B80000BC018F00AC017F01E50620F1C6E1C50CC
:102B900003080E6ED8900E36D8900E36D8900E36AA
:102BA0000E5017C00FF018C010F019C011F01AC065
:102BB00012F0E82A05D0D8901232113210320F32BA
:102BC000E82EF9D70F50CED7CF0E1E6408D0E00EF6
:102BD0001E6005D01E50300F27EC22F0C3D7DF0E49
:102BE0001E6405D01E50200FDBEC21F0BBD71D501A
:102BF0001200E8CFDBF04A1CDA6F6951681169E115
:102C0000130EDB6121D077EC22F00001DB51000FC5
:102C10004B6E4BC0F6FF060EF76E0800F5500A6EBD
:102C20000B6A4AC00CF02BEC20F00001DB51000FC6
:102C30004B6E4BC0F6FF060EF76E0800F5500A6E9D
:102C40000B6A44EC22F08BD0120EDB6504D04F0EE1
:102C5000DB6101D0D8D7DB514F0A18E14AC04BF0F5
:102C6000010E4B164B3A4B4694504B18DF0B4B184A
:102C7000946E4AC04BF0D8904B32010E4B164B3A33
:102C800094504B18EF0B4B18946EBDD7DB51500A84
:102C900068E1010E4AA0000E4B6E4B3A4B468B503A
:102CA0004B18DF0B4B188B6E010E4AA2000E4B6EB9
:102CB0004B3A8B504B18EF0B4B188B6E8238E83227
:102CC000010B4B6E8238010B4C6ED8904C344B107C
:102CD00047D06805691124E12C0EDB6142D077EC06
:102CE00022F00001DB51510F4B6E4BC0F6FF060E78
:102CF000F76E0800F5500A6E0B6A4AC00CF02BEC18
:102D000020F00001DB51510F4B6E4BC0F6FF060E59
:102D1000F76E0800F5500A6E0B6A44EC22F01FD0E3
:102D20006851030A69111DE1200EDB611AD077ECAE
:102D300022F0B60E0001DB250A6E0B6A000E0B2294
:102D40004AC00CF02BEC20F06BEC0EF0B60E00013C
:102D5000DB250A6E0B6A000E0B2244EC22F0000108
:102D6000DA6FDA5112000F0E1D6E400E1C6E0F0E40
:102D70001F6E300E1E6E0F0E216E200E206E0E0E78
:102D8000236E200E226E0E0E256E300E246E0E0E59
:102D9000276E400E266E0E0E296E500E286E0E0EF9
:102DA0002B6E600E2A6E0E0E2D6E700E2C6E7750EE
:102DB000C00B2E6E2E6602D0020E01D0080E2F6EB2
:102DC0000D01D890F831316E356A7BD03550020D47
:102DD000F3501C0FD96EDA6ADECF36F0DDCF37F054
:102DE00036C032F037C033F0020E356404D0D890CC
:102DF000313231A065D036C0D9FF37C0DAFFDF509D
:102E00001B6E1BB65DD036C0D9FF37C0DAFFFC0E93
:102E1000DF161AC01BF0030E1B1636C0D9FF37C0D1
:102E2000DAFF1B50DF121AAC04D019504009346E7F
:102E300002D019C034F020EE05F03650D9263750B4
:102E4000DA2234C0DFFF1AAA03D0010E346E01D09B
:102E5000346A36280A6E000E37200B6E14C00CF050
:102E600015C00DF016C00EF017C00FF034C010F0F2
:102E7000C8EC18F0060E3626000E3722306A0DD048
:102E80001850D96EDA6A36C0E1FF37C0E2FFDFCFF3
:102E9000E7FF182A364A372A302A1950305CF0E307
:102EA00032C0D9FF33C0DAFFDF501B6E1BB406D02F
:102EB00032C0D9FF33C0DAFF000EDB86010E05D029
:102EC000352A2F50355C82E3000E12000CC010F042
:102ED0000D6646D01050D96EDA6A0AC0E1FF0BC009
:102EE000E2FFE7500E6ED8900E36D8900E36D8908E
:102EF0000E34DF6E1050D96EDA6AD92ADA6A0AC047
:102F0000E1FF0BC0E2FFE7500E6E050E0F6ED8908A
:102F10000E320F2EFCD70E50DF6E0A4A0B2A0AC063
:102F2000D9FF0BC0DAFFDF500E6E050E0F6ED89082
:102F30000E320F2EFCD71050D96EDA6A0E50DF1207
:102F40001050D96EDA6A020ED926DA6ADF6A10509A
:102F5000D96EDA6A030ED926DA6A000EDF6E67D000
:102F60001050D96EDA6A020ED926DA6A0AC0E1FF79
:102F70000BC0E2FFE7500E6E050E0F6ED8900E36B6
:102F80000F2EFCD70E50DF6E1050D96EDA6A030E8A
:102F9000D926DA6A0AC0E1FF0BC0E2FFE7500E6EE5
:102FA000D8900E32D8900E32D8900E30DF6E0A4A8A
:102FB0000B2A0AC0D9FF0BC0DAFFDF500E6E030EDA
:102FC0000E161050D96EDA6A020ED926DA6A0E5041
:102FD000DF120AC0D9FF0BC0DAFFDF500E6ED890A7
:102FE0000E32D8900E32D8900E321C0E0E161050A3
:102FF000D96EDA6A020ED926DA6A0E50DF120A4A50
:103000000B2A0AC0D9FF0BC0DAFF1050E16EE26A4A
:10301000E12AE26ADFCFE7FF0A4A0B2A0AC0D9FF9A
:103020000BC0DAFF1050E16EE26ADFCFE7FF12005B
:1030300038343934416E3C343D34406E415009E0FF
:10304000405041600FD04150405C3E6E210E3E5CCE
:1030500009E33AC036F03BC037F03CC038F03DC021
:1030600039F095D0405009E0415040600FD04050B9
:10307000415C3E6E210E3E5C09E336C036F037C03F
:1030800037F038C038F039C039F081D0060E3F6EC5
:1030900039BE3F8E3DBE3F8C388E396A3C8E3D6ACC
:1030A0004050416018D0D8903A363B363C363D36D9
:1030B0004006405041180BE03F063F50070B07E029
:1030C000F2D7D8903932383237323632412A40502E
:1030D0004162F7D71AD04150406017D0D8903636A9
:1030E0003736383639364106405041180BE03F0636
:1030F0003F50070B07E0F2D7D8903D323C323B32CD
:103100003A32402A40504162F7D73FAE09D0361ECE
:10311000371E381E391E362A000E37223822392231
:103120003FAC09D03A1E3B1E3C1E3D1E3A2A000E03
:103130003B223C223D223F6A36503A2637503B2202
:1031400038503C2239503D223DAE0BD03A1E3B1E3A
:103150003C1E3D1E3A2A000E3B223C223D22010E1F
:103160003F6E3AC00AF03BC00BF03CC00CF03DC0D3
:103170000DF041C00EF03FC00FF019EC1CF00DC077
:1031800039F00CC038F00BC037F00AC036F012002E
:103190000C0E136E106637D01350D96EDA6ADF50FA
:1031A000116ED8901132D8901132D89011300AC0D7
:1031B000D9FF0BC0DAFFDF6E1350D96EDA6AD92A55
:1031C000DA6ADF50116E050E126ED8901136122E8B
:1031D000FCD70AC0D9FF0BC0DAFF1150DF120A4A30
:1031E0000B2A1350D96EDA6ADF50116E050E126E7B
:1031F000D8901136122EFCD711500AC0D9FF0BC03F
:10320000DAFFDF6E6CD01350D96EDA6A020ED9265F
:10321000DA6ADF50116E050E126ED8901132122E3E
:10322000FCD711500AC0D9FF0BC0DAFFDF6E135074
:10323000D96EDA6A030ED926DA6ADF50116ED89099
:103240001136D8901136D89011360AC0D9FF0BC06C
:10325000DAFF1150DF120A4A0B2A1350D96EDA6ACC
:10326000020ED926DA6ADF50116ED8901136D89046
:103270001136D8901134E00B0AC0D9FF0BC0DAFF29
:10328000DF6E0AC0D9FF0BC0DAFF000EDB861350D9
:10329000D96EDA6A020ED926DA6ADF50116E030E91
:1032A00011160AC0D9FF0BC0DAFF1150DF120A4A0B
:1032B0000B2A1350D96EDA6AD92ADA6A0AC0E1FFFA
:1032C0000BC0E2FFDFCFE7FF0A4A0B2A1350D96E8B
:1032D000DA6A0AC0E1FF0BC0E2FFDFCFE7FF1200AE
:1032E000E8CFD9F0D951020DF3509B0FD96EDA6AAD
:1032F000DE6ADD6AD95113EC12F045C0D7F044C044
:10330000D6F043C0D5F042C0D4F00001D951030D2E
:10331000F350510F4A6E4AC0F6FF060EF76E0800D2
:10332000F5500A6E0B6A44EC22F0180BA00900015C
:10333000D925C76FD40ED86FD851D96EDA6A030E6B
:10334000D926DA6ADF50CB6FD851D96EDA6A020E0D
:10335000D926DA6ADF50CA6FD851D96EDA6AD92A0B
:10336000DA6ADF50C96FD851D96EDA6ADF50C86F98
:10337000D951030DF350510F4A6E4AC0F6FF060EA5
:10338000F76E0800F5500A6E0B6A44EC22F04B6EA3
:103390004BBC04D00001D26BD36B04D0020E0001F1
:1033A000D36FD26BD951030DF3CF4AF04A2A4A505A
:1033B000510F4B6E4BC0F6FF060EF76E0800F5502E
:1033C0000A6E0B6A44EC22F00001D225CF6F000E8A
:1033D000D321D06FD951030DF3CF4AF0020E4A2604
:1033E0004A50510F4B6E4BC0F6FF060EF76E0800A9
:1033F000F5500A6E0B6A44EC22F00001D16FCFC089
:103400003FF0D0C040F0D1C041F074C042F0030E94
:10341000436E050E446EC70E456ED6EF1CF0E8CF26
:10342000E2F0DF6BE06BE16BDA290DE0000EF66E87
:10343000060EF76E0800F5500A6E0B6A44EC22F097
:103440000001DA197EE1DB2910E0000E4C6E4C2AF7
:103450004CC0F6FF060EF76E0800F5500A6E0B6AB8
:1034600044EC22F00001DB196CE1E251F00BF00AB0
:1034700004E1010EDF6FE06FE16FDF5127E0E56BE4
:10348000E66BE5C04CF0010E4D6E4C2A02D0D89090
:103490004D364C2EFCD74D50E2150FE0E5C0C7F07D
:1034A000E551020DF350930FD96EDA6ADECFC8F002
:1034B000DDCFC9F0020E11EC20F0E54BE62BE65112
:1034C000800A800F040ED8B4E55DDBE3E0511BE019
:1034D000E36BE46BE3C04CF0010E4D6E4C2A02D05E
:1034E000D8904D364C2EFCD74D50E21503E0E351F9
:1034F00070EC19F0E34BE42BE451800A800F040ECA
:10350000D8B4E35DE7E3E1511CE0300EDC6FDD6B26
:103510008238E832010B4C6E8238010B4D6ED89028
:103520004D344C10DE6F406A0F0E3F6E010E416E3F
:1035300074C042F0030E436E446EDC0E456ED6EC52
:103540001CF01200E8CFBCF0481CBB6FBC51830AD2
:1035500002E1506A81D0830EBC6510D0890EBC6137
:103560000DD048C00EF0BC517C0FA5EC21F000013D
:10357000BC517C0F1DEC22F000013BD0BC51920AE3
:103580000DE148504A6E496A68514B6E4C6A4910C9
:10359000686F4A504C10696F69512BD0BC51930A27
:1035A0000BE1496A69514A6E48504910686F4A50A8
:1035B000696F68C0BBF051D0880EBC651CD0910EFD
:1035C000BC6119D069C049F049C04AF04B6A4A2829
:1035D00002E1682902E0481C0CD048C00EF0BC5142
:1035E000770F1DEC21F00001BC51770F13EC22F096
:1035F000C3D7BB6F32D0CF0EBC6518D0E00EBC6114
:1036000015D069C049F049C04AF04B6A4A28E3E145
:103610006829E1E148C00EF0BC51300F30EC21F0D8
:103620000001BC51300F27EC22F0A6D7BC51A20AF2
:10363000D2E14850550A04E1666B676B550ED9D745
:103640004850AA0A0AE1E80E665D030E675904E2D3
:1036500073EC22F0AA0ECDD7BB6BBB51120045EC28
:1036600020F0D8EC1FF00009D8B44FEC03F0BEEC0A
:103670001EF070EC1FF06BEC0EF00400FA0E00016F
:1036800072650ED075050CE0746977EC22F00B6A58
:10369000010E0A6EFF0E0C682BEC20F070EC1FF090
:1036A000776BB8EC20F02BD0742903E1010E756F15
:1036B00032D0030E756F87EC21F02DD079EC1CF021
:1036C0002AD077AF28D07A51791103E145EC0BF07D
:1036D00022D0A1EC10F079511E0A7A111CE17B5125
:1036E0001A0A19E17EC0DAF07FC0DBF07D510FECE1
:1036F0001AF011D07AEC22F00ED0756B0CD00001CC
:103700007551D2E0010ADAE0030AD5E0010AD9E0F6
:10371000070AF0E0F2D7E90E0001605D030E61597F
:10372000000E6259000E63590BE3606B616B626BB4
:10373000636B24EC1FF07551030AD8B482EC22F0BD
:103740003B0E70650BD0706B6F2B3B0E6F6502D01C
:103750006F6B6E2B170E6E6501D06E6B51EC07F020
:103760008CD71A341B34206E206601D005D01E344D
:103770001F34266E266605D0186A196A1A6A1B6AF3
:1037800057D026507B0F20261BC026F01F50261A2C
:10379000800E26161A8E1E8E000E1F16216A226AB1
:1037A000236A246A070E256E18A008D01C50212613
:1037B0001D5022221E5023221F502422D8901B323B
:1037C0001A3219321832D8901C361D361E361F3662
:1037D000252EEAD7110E256E18A008D01C502126E0
:1037E0001D5022221E5023221F502422D8901B320B
:1037F0001A3219321832D89024322332223221322E
:10380000252EEAD721C00AF022C00BF023C00CF00D
:1038100024C00DF020C00EF026C00FF019EC1CF0F3
:103820000DC01BF00CC01AF00BC019F00AC018F044
:1038300012000E5005E00D500A100B100C100BE199
:103840000A6A0B6A0C6A0D6A53D00E2AD8900D32A0
:103850000C320B320A32106A116A126AFE0E0D1413
:10386000136E13501010111012100CE0EED70E2A28
:103870000A2A000E0B220C220D22D8900D320C3297
:103880000B320A32106A116A126A0D50136E13500D
:1038900010101110121007E0EAD70E06D8900A3661
:1038A0000B360C360D360CAEF8D70EB002D07F0EAC
:1038B0000C16D8900E320EC010F0116A126A136AFC
:1038C00010C013F0126A116A106A10500A121150D7
:1038D0000B1212500C1213500D120F50D8A40D8E53
:1038E0000AC00AF00BC00BF00CC00CF00DC00DF0BC
:1038F000120053D0542812E0810E0001856F866BB0
:10390000876B886B020E896F54C08BF077EC20F0C8
:10391000010E536E00016A6B6B6B45D0040E000103
:10392000756F810E856F8B69070E866F876B886B4D
:10393000030E896F77EC20F036D0000177AF0FD0FF
:103940007A51791130E17B51030A2DE1546603D09D
:10395000020E756FDFD7542A536A556A24D0E90ED8
:103960006A5D030E6B591FE3552A020E556413D08E
:10397000546605D0542A536A6A6B6B6BEED754C0F9
:1039800074F0030E756F536A7451FEEC21F0556AA2
:1039900087EC21F008D0536A06D05350ABE0010AFF
:1039A000CCE0030AF8E10001776B120041C0B3F0EC
:1039B000B46BB56BB66BB5C0B6F0B4C0B5F0B3C000
:1039C000B4F0B36B3F50B76F4050B86FB96BBA6B80
:1039D000B8C0BAF0B7C0B9F0B86BB76B43C0BBF0B2
:1039E000BC6BBD6BBE6B1A0ED890BB37BC37BD37F6
:1039F000BE37E82EF9D7B751BB11BF6FB851BC1114
:103A0000C06FB951BD11C16FBA51BE11C26FB35170
:103A1000BF11C36FB451C011C46FB551C111C56F8F
:103A2000B651C211C66F4250C311466EC451476EA3
:103A3000C551486EC651496E46C038F047C039F08E
:103A400048C03AF049C03BF044C03CF045C03DF0AE
:103A500093EC1FF00009000ED8A4010E12002934C7
:103A60002A34346E346601D005D02D342E34356EB0
:103A7000356605D0276A286A296A2A6A43D03550F4
:103A8000890F345E2AC035F02E50351A800E351657
:103A9000298E2A6A2D8E2E6A200E336ED8902F36EC
:103AA0003036313632362B50275C2C5028582D506A
:103AB00029582E502A5809E32B50275E2C50285A9B
:103AC0002D50295A2E502A5A2F80D8902736283622
:103AD00029362A36332EE2D72FC00AF030C00BF039
:103AE00031C00CF032C00DF034C00EF035C00FF014
:103AF00019EC1CF00DC02AF00CC029F00BC028F006
:103B00000AC027F01200800EE7EC21F0090E706E5B
:103B1000FC0E716E010E726E200E736E778E779CA6
:103B2000606A0F01506B0E01206B306B406B506B65
:103B3000606B706BE00E0D01F86F0F01006B080EEB
:103B4000016F026B036B046BE80E056F1A0E066FB4
:103B5000076B030E0D01D46FD56BE06B110EE16F97
:103B6000E26FE36BE46BE56BE66BE76B540EF06FB3
:103B7000050EF16FF26BF26B0F0E0F01186FE00E76
:103B8000196F1A6B1B6B19870F0E1C6FE00E1D6FE0
:103B90001E691F6B1D87000EE7EF21F0E8CFCCF008
:103BA000CCC0C9F0CC51030B020DF3CF4AF00A0E82
:103BB0004A264A50000F4B6E4BC0F6FF060EF76EBA
:103BC0000800F5500A6E0B6A44EC22F00001CA6F3F
:103BD000CC51030B020DF3CF4AF00B0E4A264A508C
:103BE000000F4B6E4BC0F6FF060EF76E0800F55047
:103BF0000A6E0B6A44EC22F00001CB6FC7C03FF0A5
:103C0000406AC8C041F074C042F0030E436E446E77
:103C1000C90E456ED6EF1CF0E8CF29F023C01CF08A
:103C200024C01DF02A0E8DEC20F0000902E1000EE8
:103C30002ED02150D96EDA6A2AC0DFFF2050D96E0B
:103C4000DA6A2BC0DFFF2C50256E010E2D14266E74
:103C50002950D96EDA6A25C0DEFF26C0DDFF22506A
:103C6000D96EDA6A2AC025F02BC026F02CC027F0C6
:103C70002DC028F01B0E05D0D890283227322632CE
:103C80002532E82EF9D72550070BDF6E010E120002
:103C9000E8CFCAF0CAC0C7F0CAC04AF0030E4A163D
:103CA000020E4A264A50000F4B6E4BC0F6FF060E1E
:103CB000F76E0800F5500A6E0B6A44EC22F0000122
:103CC000C86FCAC04AF0030E4A164A264A50000F6F
:103CD0004B6E4BC0F6FF060EF76E0800F5500A6EED
:103CE0000B6A44EC22F00001C96F406A010E3F6E7E
:103CF000020E416E74C042F0436A030E446EC70E5A
:103D0000456ED6EF1CF0E8CF0DF024D00F0E0F6EED
:103D1000600E1ED00F010F0E0F6E500E19D00E0147
:103D20000E0E0F6E200E14D00E010E0E0F6E300E02
:103D30000FD00E010E0E0F6E400E0AD00E010E0EA9
:103D4000EBD70E010E0EE3D70E010E0E0F6E700EA6
:103D50000E6E0FD00D50DAE0010ADCE0030ADFE05E
:103D6000010AE2E0070AE5E0010AE8E0030AE9E007
:103D7000EBD70EC00AF00FC00BF012000001606B11
:103D8000616B626B636B706B6F6B6E6B0B6A0A6A55
:103D90000D6A080E0C6E930EF6EC20F00B6A0A6AA0
:103DA0000D6A040E0C6E0001AF0EF6EC20F00B6AEB
:103DB0000A6A0D6A040E0C6E0001AB0EF6EC20F0E0
:103DC0000B6A0A6A0D6A080E0C6E0001A30EF6EC6F
:103DD00020F00B6A0A6A0D6A080E0C6E00019B0E39
:103DE000F6EC20F000016C6B6D6B1200E8CF0EF06A
:103DF000C26AC06AD8900A303C0BC26E0AC00CF08E
:103E00000C3AF00E0C16300E0C160B500F0B0C105B
:103E1000C16E0EC00CF0D8900C36D8900C36380E0F
:103E20000C160EC00DF00D3A0F0E0D16070E0D16E6
:103E30000E50800B0D100C10C06E0AAE03D09E9C6D
:103E40009D8CF28CC2801200762B3B0E76650DD0D5
:103E5000766B732B7551030A08E1C1EC21F0000168
:103E6000C76F09EC22F00AEC21F03B0E00017365EC
:103E700002D0736B712B170E716501D0716B755188
:103E8000030A09E1512A51C04CF00F0E4C16020EE4
:103E90004C5CD8B0516A1200E8CFE8F0000EF66E24
:103EA000060EF76E0800F5500A6E0B6A44EC22F01D
:103EB0000001E96F000EE76FE72BE7C0F6FF060E83
:103EC000F76E0800F5500A6E0B6A44EC22F0000110
:103ED000EA6FE9C0DAF0EAC0DBF0E8510FEF1AF060
:103EE000020E526E6EEC22F00001746F746701D006
:103EF0007469776B786B796B7A6B7B6B856B866B90
:103F0000876B886B896B506A4F6A546A756B536A0A
:103F1000556A686B696B6A6B6B6B666B676B766B0C
:103F2000736B716B12003E6A646B656B15D038C0A1
:103F300014F039C015F03AC016F03BC017F03DC080
:103F400018F03CC019F0200E1A6EB3EC16F0000900
:103F500003E0010E3E6E06D0E80E0001645D030E24
:103F60006559E5E30001856B3E501200000EF66EC8
:103F7000060EF76E0800F5500A6E0B6A44EC22F04C
:103F80000001E86F000EE76FE72BE7C0F6FF060EB3
:103F9000F76E0800F5500A6E0B6A44EC22F000013F
:103FA000E96FE8C0DAF0E9C0DBF0FF0E0FEF1AF0BE
:103FB000000E31EC22F0550A07E1010E31EC22F03F
:103FC000AA0A02E1010E10D07CEC22F0FF0EFEECFA
:103FD00021F0550E0E6E000E43EC21F0AA0E0E6E6F
:103FE000010E43EC21F0000E1200E8CF0BF00BA005
:103FF0000BD0010E8BBA000E0A6E0A3A0A468B509D
:104000000A18DF0B0A188B6E0BA20AD0010E8BB8B0
:10401000000E0A6E0A3A8B500A18EF0B0A188B6EC4
:104020001200E8CFCAF0C751600FCB6FCC6BCD6BDD
:10403000C951CE6FC8C0CFF0406A0F0E3F6ECAC0E4
:1040400041F074C042F0030E436E050E446ECB0E79
:10405000456ED6EF1CF00AC0A9FF0CC0A8FFA69EB3
:10406000A69CA684000EF2BE010E0D6EF29E550EA9
:10407000A76EAA0EA76EA682A6B2FED70DB002D07A
:10408000F29E01D0F28EA69412000F0E926E010ED7
:10409000946E826A920E96EC21F0FB0E0B6E1D0E52
:1040A0000A6E3BEC22F0840E0A6E0F0E0B6EEF0EC2
:1040B000F6EC1EF083EC1DF0F28E7EEF22F07751CD
:1040C0000F0B0F6E0F5012E0745120EE7DF0DF6287
:1040D0000DD00F0405E0010E0F6408D07E6706D0F6
:1040E0007469FF0EFEEC21F070EC1FF0120087C027
:1040F0003FF088C040F089C041F074C042F086C0F3
:1041000043F085510F0B446E8B0E456ED6EC1CF0C0
:104110004A6E4A6601D0502A1200E8CF1EF077AFEF
:1041200002D0000E0FD01DC011F01CC012F01F0EE7
:10413000136E1E502FEC13F00009F3E01FAC1FAA02
:10414000F0D7010E120077C04BF00F0E4B164B0448
:104150000EE1745120EE7DF0DF6209D0800E856F94
:10416000866B876B886B030E896F77EC20F01200EB
:1041700077BF12D07B0E206E7C0E216E780E226EE1
:10418000770E236E7D0E246E790E0CEC1EF02E6ED3
:104190002E5002E00001778F120014C00AF015C003
:1041A0000BF00C6A0D6A960E0E6E000E0F6A19EC7B
:1041B0001CF00DC017F00CC016F00BC015F00AC0B3
:1041C00014F01200E8CF0BF0080E0C6E0D6AD890B8
:1041D0000B340D340D6ED8900B360A500D5C02E393
:1041E0000A500D5E0C2EF3D70D501200E8CF0EF0E2
:1041F0000EC00FF006D00F50D96EDA6A0AC0DFFF8A
:104200000F2A0C06D8A00D060C28D8B40D28D8B457
:104210001200F1D7E8CF4BF0830E0001856F070E37
:10422000866F886B140E876F090E896F8B6B4BC07E
:104230008CF0C7C08DF077EF20F0E8CF0FF0070EBD
:104240000F6401D00CD077EC22F00B0E0F240A6E15
:104250000B6A000E0B220EC00CF02BEC20F01200AB
:10426000E8CF0FF00F0E0F6401D00CD077EC22F0E6
:10427000130E0F240A6E0B6A000E0B220EC00CF0F8
:104280002BEC20F01200E8CF0FF0010E0F6401D0EC
:104290000CD077EC22F0020E0F240A6E0B6A000E8F
:1042A0000B220EC00CF02BEC20F0120000EE60F0A0
:1042B000530EEE6AE806FDE100EE4EF0090EEE6ADE
:1042C000E806FDE1000EF86E00012FEF1BF0E8CFCD
:1042D0004DF07F0E4D6406D0DCC048F04D50A2EC8E
:1042E0001AF005D0DCC04AF04D50F9EC15F0120080
:1042F00077510F0B020A0AE1745120EE7DF0DF6264
:1043000005D07EC074F07451FEEC21F01200810ED5
:104310000001856F866B876B886B020E896F74C096
:104320008BF077EC20F0010E526E010CE8CF0AF012
:104330000A507F0BD56ED76AD66AF2940AAE02D0C5
:10434000F28A01D0F29AD58E1200E8CF0FF077EC06
:1043500022F0060E0F240A6E0B6A000E0B220EC00E
:104360000CF02BEF20F0E8CF0EF00E0409E177EC13
:1043700022F00B6A0A6AFF0E0C682BEC20F0FF009B
:104380001200000E0C6E0C2A0CC0F6FF060EF76E23
:104390000800F5500A6E0B6A44EF22F0E8CF4AF0AD
:1043A0007F0E4A6404D04A5021EC15F003D04A50E5
:1043B00036EC14F01200E8CF0BF00B507D0F0A6EB4
:1043C0000AC0F6FF060EF76E0800F5501200E8CF9F
:1043D0000AF01F0E6F160A506F126F50E00B0A188A
:1043E000D8B41200FAD7040E8B6F8C6B8D6B030E52
:1043F0008E6F8F6B030E906F916B1200E8CF0EF0F3
:1044000077EC22F00B6A010E0A6E0EC00CF02BEF57
:1044100020F0000EF66E060EF76E0800F5500A6EDC
:104420000B6A44EF22F0E8CF0CF00B0E0C240A6E5E
:104430000B6A000E0B2244EF22F0E8CF0CF0060EC0
:104440000C240A6E0B6A000E0B2244EF22F0E8CF18
:104450000CF0130E0C240A6E0B6A000E0B2244EFB4
:1044600022F0E8CF0CF0020E0C240A6E0B6A000E4C
:104470000B2244EF22F00AC00CF00BC00DF00DC06F
:10448000D7FF0CC0D6FF12000AC0A9FFA69CA69EAB
:10449000A68000F000F0A850120001C003F002C096
:1044A00004F004C0D7FF03C0D6FF1200E8CF0AF023
:1044B0000AB08B9A0AB28B981200E8CF0AF00AB0C1
:1044C0008B8A0AB28B8812000A6A0B6A0C6A0D6A20
:1044D00012000A6A0B6A0C6A0D6A12000B6A010E5E
:1044E0000A6E44EF22F04FEC03F0BEEF1EF0A6A2DE
:1044F0001200FDD7526A12004FEF03F0C282120081
:10450000C28212001200050C080C010C000C000CF9
:04451000010C120088
:020000040020DA
:08000000FFFFFFFFFFFFFFFF00
:020000040030CA
:0E000000FF061C1EFF8281FF0FC00FE00F40A5
:00000001FF
