:04000000A8EF00F075
:10001800D8CF07F0E8CF08F0E0CF09F0F2A401D07C
:1000280001D050D0FB0E026E1D0E016E4DEC22F079
:1000380000016A4B6B2B664B672B010E6027000E85
:100048006123000E6223000E6323644B652BA24BD1
:10005800A32BA44BA52BA64BA72BA84BA92B9A4B9C
:100068009B2B9C4B9D2B9E4B9F2BA04BA12B82A087
:1000780001D001D002D0726B01D0722B562A525097
:10008800020AD8A401D001D00ED0640E566401D063
:1000980001D009D082A201D001D002D0829201D031
:1000A8008282566A0ED05204D8A401D001D003D05F
:1000B8008282566A06D0526601D001D002D082925E
:1000C800566AF2949EAC01D001D037D01CD0C3CF71
:1000D80098F0C4CF99F0050EC26E2CD0C3CF96F01D
:1000E800C4CF97F0090EC26E25D0C3CF94F0C4CF09
:1000F80095F00D0EC26E1ED0C3CF92F0C4CF93F010
:10010800010EC26E17D0C2503C0B056E066A06502F
:10011800000AD8B401D0F4D70550000AD8B4D7D70C
:10012800040AD8B4DBD70C0AD8B4DFD7040AD8B489
:10013800E3D7E6D780EC22F09E9C09C0E0FF08C018
:0C014800E8FF07C0D8FF100056EF21F0C0
:10060000434445464748494A4B4C4D4E4F50515242
:10061000535455FFFFFFFFFFFFFFFF565758595A2E
:100620005B5C5D5E5F606162636465666768696AA2
:100630006B6C6D6E6F707172737475767778797A92
:100640007B7C7D7E7F808182838485868788898A82
:10065000FF8B8C8D8E8F9091929394949596979812
:10066000999A9B9C9D9E9FA0A1A2A3A4A5A6A7A882
:10067000A9AAABACADAEAFB0B1B2B3B4B577777732
:100680002E6575726F736F757263652E73652F7645
:10069000696C6E6975735F312E786D6C000077EC54
:1006A00022F0000EF66E060EF76E0800F5500A6E88
:1006B0000B6A000E0C6A2BEC20F077EC22F0000E97
:1006C000466E462A46C0F6FF060EF76E0800F55045
:1006D0000A6E0B6A000E0C6A2BEC20F077EC22F00D
:1006E000000E466E020E462646C0F6FF060EF76E58
:1006F0000800F5500A6E0B6A010E0C6E2BEC20F010
:1007000077EC22F0000E466E030E462646C0F6FF3A
:10071000060EF76E0800F5500A6E0B6A010E0C6E9D
:100720002BEC20F077EC22F0000E466E040E4626ED
:1007300046C0F6FF060EF76E0800F5500A6E0B6A0B
:10074000020E0C6E2BEC20F077EC22F0000E466EC1
:10075000050E462646C0F6FF060EF76E0800F55059
:100760000A6E0B6A020E0C6E2BEC20F077EC22F076
:10077000000E466E060E462646C0F6FF060EF76EC3
:100780000800F5500A6E0B6A030E0C6E2BEC20F07D
:1007900077EC22F0000E466E070E462646C0F6FFA6
:1007A000060EF76E0800F5500A6E0B6A030E0C6E0B
:1007B0002BEC20F077EC22F0000E466E080E462659
:1007C00046C0F6FF060EF76E0800F5500A6E0B6A7B
:1007D000040E0C6E2BEC20F077EC22F0000E466E2F
:1007E000090E462646C0F6FF060EF76E0800F550C5
:1007F0000A6E0B6A040E0C6E2BEC20F077EC22F0E4
:10080000000E466E0A0E462646C0F6FF060EF76E2E
:100810000800F5500A6E0B6A050E0C6E2BEC20F0EA
:1008200077EC22F0000E466E0B0E462646C0F6FF11
:10083000060EF76E0800F5500A6E0B6A050E0C6E78
:100840002BEC20F077EC22F0000E466E0C0E4626C4
:1008500046C0F6FF060EF76E0800F5500A6E0B6AEA
:10086000060E0C6E2BEC20F077EC22F0000E466E9C
:100870000D0E462646C0F6FF060EF76E0800F55030
:100880000A6E0B6A060E0C6E2BEC20F077EC22F051
:10089000000E466E0E0E462646C0F6FF060EF76E9A
:1008A0000800F5500A6E0B6A000E0C6A2BEC20F063
:1008B00077EC22F0000E466E0F0E462646C0F6FF7D
:1008C000060EF76E0800F5500A6E0B6A000E0C6AF1
:1008D0002BEC20F077EC22F0000E466E100E462630
:1008E00046C0F6FF060EF76E0800F5500A6E0B6A5A
:1008F000000E0C6A2BEC20F077EC22F0000E466E16
:10090000110E462646C0F6FF060EF76E0800F5509B
:100910000A6E0B6A000E0C6A2BEC20F077EC22F0CA
:10092000000E466E120E462646C0F6FF060EF76E05
:100930000800F5500A6E0B6A000E0C6A2BEC20F0D2
:100940000001B86BB96B77EC22F0B8C046F01B0E13
:1009500046264650000F476E47C0F6FF060EF76E5C
:100960000800F5500A6E0B6A000E0C6A2BEC20F0A2
:1009700077EC22F0B8C046F0370E46264650000FFE
:10098000476E47C0F6FF060EF76E0800F5500A6E78
:100990000B6A000E0C6A2BEC20F077EC22F0B8C04A
:1009A00046F0230E46264650000F476E47C0F6FF1E
:1009B000060EF76E0800F5500A6E0B6A000E0C6A00
:1009C0002BEC20F077EC22F0B8C046F02B0E462638
:1009D0004650000F476E47C0F6FF060EF76E080040
:1009E000F5500A6E0B6A000E0C6A2BEC20F077ECC7
:1009F00022F0B8C046F0470E46264650000F476E1C
:100A000047C0F6FF060EF76E0800F5500A6E0B6A37
:100A1000000E0C6A2BEC20F00001B84BB92BB95139
:100A2000800A800F080ED8B4B85D8DE3B26BB36B4B
:100A300077EC22F0B2C046F03F0E46264650000F3B
:100A4000476E47C0F6FF060EF76E0800F5500A6EB7
:100A50000B6AFF0E0C682BEC20F00001B24BB32B9D
:100A6000B351800A800F080ED8B4B25DE1E377EC91
:100A700022F0000E466E330E462646C0F6FF060EE6
:100A8000F76E0800F5500A6E0B6AC80E0C6E2BEC60
:100A900020F077EC22F0000E466E340E462646C05B
:100AA000F6FF060EF76E0800F5500A6E0B6AC80EC8
:100AB0000C6E2BEC20F077EC22F0000E466E350E1B
:100AC000462646C0F6FF060EF76E0800F5500A6E81
:100AD0000B6AC80E0C6E2BEC20F077EC22F0000EA7
:100AE000466E360E462646C0F6FF060EF76E080026
:100AF000F5500A6E0B6AC80E0C6E2BEC20F077ECEA
:100B000022F0000E466E4F0E462646C0F6FF060E39
:100B1000F76E0800F5500A6E0B6A000E0C6A2BEC9B
:100B200020F077EC22F0000E466E500E462646C0AE
:100B3000F6FF060EF76E0800F5500A6E0B6A000EFF
:100B40000C6A2BEC20F077EC22F0510EF66E060EBC
:100B5000F76E0800F5500A6E0B6A000E0C6A2BEC5B
:100B600020F077EC22F0510E466E030E462646C06A
:100B7000F6FF060EF76E0800F5500A6E0B6A000EBF
:100B80000C6A2BEC20F077EC22F0510E466E060E2C
:100B9000462646C0F6FF060EF76E0800F5500A6EB0
:100BA0000B6A000E0C6A2BEC20F077EC22F0510E51
:100BB000466E090E462646C0F6FF060EF76E080082
:100BC000F5500A6E0B6A000E0C6A2BEC20F077ECE5
:100BD00022F0510E466E462A46C0F6FF060EF76E0C
:100BE0000800F5500A6E0B6A0A0E0C6E2BEC20F012
:100BF00077EC22F0510E466E040E462646C0F6FFF4
:100C0000060EF76E0800F5500A6E0B6A0A0E0C6E9F
:100C10002BEC20F077EC22F0510E466E070E4626A4
:100C200046C0F6FF060EF76E0800F5500A6E0B6A16
:100C30000A0E0C6E2BEC20F077EC22F0510E466E73
:100C40000A0E462646C0F6FF060EF76E0800F5505F
:100C50000A6E0B6A0A0E0C6E2BEC20F077EC22F079
:100C6000510E466E020E462646C0F6FF060EF76E81
:100C70000800F5500A6E0B6A100E0C6E2BEC20F07B
:100C800077EC22F0510E466E050E462646C0F6FF62
:100C9000060EF76E0800F5500A6E0B6A100E0C6E09
:100CA0002BEC20F077EC22F0510E466E080E462613
:100CB00046C0F6FF060EF76E0800F5500A6E0B6A86
:100CC000100E0C6E2BEC20F077EC22F0510E466EDD
:100CD0000B0E462646C0F6FF060EF76E0800F550CE
:100CE0000A6E0B6A100E0C6E2BEC20F00001B56B37
:100CF0000C0EB46F77EC22F00001B451510F466E28
:100D000046C0F6FF060EF76E0800F5500A6E0B6A35
:100D1000000E0C6A2BEC20F00001B44BB52BB55142
:100D2000800A800F2C0ED8B4B45DE4E377EC22F097
:100D3000510E466E0D0E462646C0F6FF060EF76EA5
:100D40000800F5500A6E0B6A800E0C6E2BEC20F03A
:100D500077EC22F0510E466E0C0E462646C0F6FF8A
:100D6000060EF76E0800F5500A6E0B6A3F0E0C6E09
:100D70002BEC20F077EC22F0510E466E110E462639
:100D800046C0F6FF060EF76E0800F5500A6E0B6AB5
:100D9000800E0C6E2BEC20F077EC22F0510E466E9C
:100DA000100E462646C0F6FF060EF76E0800F550F8
:100DB0000A6E0B6A3F0E0C6E2BEC20F077EC22F0E3
:100DC000510E466E150E462646C0F6FF060EF76E0D
:100DD0000800F5500A6E0B6A800E0C6E2BEC20F0AA
:100DE00077EC22F0510E466E140E462646C0F6FFF2
:100DF000060EF76E0800F5500A6E0B6A3F0E0C6E79
:100E00002BEC20F077EC22F0510E466E190E4626A0
:100E100046C0F6FF060EF76E0800F5500A6E0B6A24
:100E2000800E0C6E2BEC20F077EC22F0510E466E0B
:100E3000180E462646C0F6FF060EF76E0800F5505F
:100E40000A6E0B6A3F0E0C6E2BEC20F00001B66BA5
:100E5000B76B77EC22F00001B751B6C046F0476A95
:100E6000D89046364736D89046364736D8904636DC
:100E700047364626000E4722B60E46240A6E000E5E
:100E800047200B6E000E0C6A2BEC20F00001B72BF4
:100E9000070EB765DED7B62B030EB665D9D76BEF55
:100EA0000EF0E56BE66BE551020DF3CFD9F03F0E86
:100EB000D927D951000FDA6FDAC0F6FF060EF76EA8
:100EC0000800F5500A6E0B6A44EC22F00001DC6F5A
:100ED000DB6BE551020DF3CFDDF0400EDD27DD5178
:100EE000000FDE6FDEC0F6FF060EF76E0800F5504D
:100EF0000A6E0B6A44EC22F00001DB27000EDC23B3
:100F0000E551020DF350920FD96EDA6ADECFDFF0B1
:100F1000DDCFE0F0DB51DF5DDC51E05943E277ECFF
:100F200022F00001E551020DF3CFD9F03F0ED92791
:100F3000D951000FDA6FDAC0F6FF060EF76E08001F
:100F4000F5500A6E0B6AE551020DF350920FD96EFF
:100F5000DA6ADECFDBF0DDCFDCF0DCC0DBF0DC6BAF
:100F6000DB510C6E2BEC20F077EC22F00001E55108
:100F7000020DF3CFD9F0400ED927D951000FDA6F07
:100F8000DAC0F6FF060EF76E0800F5500A6E0B6A1F
:100F9000E551020DF350920FD96EDA6ADF500C6EF4
:100FA0002BEC20F00001E551020DF350920FD96EA9
:100FB000DA6ADECFD9F0DDCFDAF0E551020DF3CFFA
:100FC000DBF0470EDB27DB51000FDC6FDCC0F6FFE8
:100FD000060EF76E0800F5500A6E0B6A44EC22F01C
:100FE0000001DE6FDD6BE551020DF3CFDFF0480E3F
:100FF000DF27DF51000FE06FE0C0F6FF060EF76E4F
:101000000800F5500A6E0B6A44EC22F00001DD275F
:10101000000EDE23D951DD5DDA51DE5943E277EC73
:1010200022F00001E551020DF3CFD9F0470ED92788
:10103000D951000FDA6FDAC0F6FF060EF76E08001E
:10104000F5500A6E0B6AE551020DF350920FD96EFE
:10105000DA6ADECFDBF0DDCFDCF0DCC0DBF0DC6BAE
:10106000DB510C6E2BEC20F077EC22F00001E55107
:10107000020DF3CFD9F0480ED927D951000FDA6FFE
:10108000DAC0F6FF060EF76E0800F5500A6E0B6A1E
:10109000E551020DF350920FD96EDA6ADF500C6EF3
:1010A0002BEC20F00001E551020DF3CFD9F01C0E1E
:1010B000D927D951000FDA6FDAC0F6FF060EF76EA6
:1010C0000800F5500A6E0B6A44EC22F00001DB6F59
:1010D000E551020DF3CFDCF01B0EDC27DC51000FD5
:1010E000DD6FDDC0F6FF060EF76E0800F5500A6EE4
:1010F0000B6A44EC22F00001E46FDB51E36FE41172
:1011000026E0E551020DF350A20FD96EDA6ADECF68
:10111000D9F0DDCFDAF0D951E35DDA51E45917E2C5
:10112000E551020DF350A20FD96EDA6ADE6ADD6A6C
:10113000E5C0C6F0E551020DF350920FD96EDA6AA0
:10114000DECFC7F0DDCFC8F0020E11EC20F0E5C015
:10115000D9F00F0ED927D951000FDA6FDAC0F6FF98
:10116000060EF76E0800F5500A6E0B6A44EC22F08A
:101170000001DB6FDBA3A3D0E551AE0FD96EDA6AB5
:10118000DF5047E1E551020DF3CFD9F0230ED92707
:10119000D951000FDA6FDAC0F6FF060EF76E0800BD
:1011A000F5500A6E0B6A44EC22F00001DC6FDB6B39
:1011B000E551020DF3CFDDF0240EDD27DD51000FE8
:1011C000DE6FDEC0F6FF060EF76E0800F5500A6E01
:1011D0000B6A44EC22F00001DB27000EDC23E55112
:1011E000020DF350920FD96EDA6ADECFDFF0DDCF59
:1011F000E0F0DB51DF5DDC51E05961E2E551AE0F1B
:10120000D96EDA6A010EDF6E4F80E55148EC1EF0B0
:1012100056D0E551020DF350920FD96EDA6ADECF47
:10122000D9F0DDCFDAF0E551020DF3CFDBF0230E7C
:10123000DB27DB51000FDC6FDCC0F6FF060EF76E1C
:101240000800F5500A6E0B6A44EC22F00001DE6FD4
:10125000DD6BE551020DF3CFDFF0240EDF27DF5108
:10126000000FE06FE0C0F6FF060EF76E0800F550C5
:101270000A6E0B6A44EC22F00001DD27000EDE232B
:10128000E5C0E1F0330EE127E151000FE26FE2C06B
:10129000F6FF060EF76E0800F5500A6E0B6A44EC76
:1012A00022F00001DD27000EDE23D951DD5DDA5189
:1012B000DE5905E2E551AE0FD96EDA6ADF6AE5C0A4
:1012C000D9F00F0ED927D951000FDA6FDAC0F6FF27
:1012D000060EF76E0800F5500A6E0B6A44EC22F019
:1012E0000001DB6FDBA5A4D0E551AA0FD96EDA6A45
:1012F000DF5048E1E551020DF350920FD96EDA6AE2
:10130000DECFD9F0DDCFDAF0E551020DF3CFDBF01F
:101310002B0EDB27DB51000FDC6FDCC0F6FF060E67
:10132000F76E0800F5500A6E0B6A44EC22F00001DB
:10133000DE6FDD6BE551020DF3CFDFF02C0EDF2702
:10134000DF51000FE06FE0C0F6FF060EF76E0800F9
:10135000F5500A6E0B6A44EC22F00001DD27000E06
:10136000DE23D951DD5DDA51DE5962E2E551AA0F83
:10137000D96EDA6A010EDF6E4F88E551800F48ECB6
:101380001EF056D0E551020DF3CFD9F02B0ED92720
:10139000D951000FDA6FDAC0F6FF060EF76E0800BB
:1013A000F5500A6E0B6A44EC22F00001DC6FDB6B37
:1013B000E551020DF3CFDDF02C0EDD27DD51000FDE
:1013C000DE6FDEC0F6FF060EF76E0800F5500A6EFF
:1013D0000B6A44EC22F00001DB27000EDC23E5C0A1
:1013E000DFF0330EDF27DF51000FE06FE0C0F6FFC4
:1013F000060EF76E0800F5500A6E0B6A44EC22F0F8
:101400000001DB5F000EDC5BE551020DF350920F33
:10141000D96EDA6ADECFE1F0DDCFE2F0DB51E15DDB
:10142000DC51E25905E2E551AA0FD96EDA6ADF6AAA
:10143000E551020DF3CFD9F0380ED927D951000F5D
:10144000DA6FDAC0F6FF060EF76E0800F5500A6E86
:101450000B6A44EC22F00001DB6FE551020DF3CF83
:10146000DCF0370EDC27DC51000FDD6FDDC0F6FF4E
:10147000060EF76E0800F5500A6E0B6A44EC22F077
:101480000001E46FDB51E36FE41112E0E551020D5E
:10149000F3509A0FD96EDA6ADECFD9F0DDCFDAF0E9
:1014A000D951E35DDA51E45903E2E55170EC19F0EA
:1014B000E54BE62BE651800A800F040ED8B4E55DBB
:1014C00001E2F1D4000ED96F4F0ED927D9C0F6FF33
:1014D000060EF76E0800F5500A6E0B6A44EC22F017
:1014E0000001DA6FDAA95FD0000ED96F4F0ED9274D
:1014F000D9C0F6FF060EF76E0800F5500A6E0B6AAB
:1015000044EC22F00001DA6FDAA14DD06C5124E0F6
:1015100082BA45D0000ED96F4F0ED927D9C0F6FF39
:10152000060EF76E0800F5500A6E0B6A44EC22F0C6
:101530000001DA6FDAAD08D01E0EC66F060EC76F57
:10154000000ECEEC1DF02BD0140EC66F040EC76F2C
:10155000000ECEEC1DF023D082AA21D0000ED96F50
:101560004F0ED927D9C0F6FF060EF76E0800F550CA
:101570000A6E0B6A44EC22F00001DA6FDAAD08D093
:101580001E0EC66F050EC76F000ECEEC1DF007D005
:10159000140EC66F030EC76F000ECEEC1DF0000ECA
:1015A00082BA010E6C6F000ED96F4F0ED927D9C0C9
:1015B000F6FF060EF76E0800F5500A6E0B6A44EC53
:1015C00022F00001DA6FDAAB5FD0000ED96F4F0E58
:1015D000D927D9C0F6FF060EF76E0800F5500A6E3F
:1015E0000B6A44EC22F00001DA6FDAA34DD06D51A2
:1015F00024E082B845D0000ED96F4F0ED927D9C04C
:10160000F6FF060EF76E0800F5500A6E0B6A44EC02
:1016100022F00001DA6FDAAF08D01E0EC66F060E98
:10162000C76F010ECEEC1DF02BD0140EC66F040E4A
:10163000C76F010ECEEC1DF023D082A821D0000E82
:10164000D96F4F0ED927D9C0F6FF060EF76E0800E6
:10165000F5500A6E0B6A44EC22F00001DA6FDAAF43
:1016600008D01E0EC66F050EC76F010ECEEC1DF022
:1016700007D0140EC66F030EC76F010ECEEC1DF01F
:10168000000E82B8010E6D6F12007A51791101E1DE
:10169000F0D220D389EC22F01DD3A3EC20F01AD392
:1016A00078EC21F017D35FEC20F014D377510F0BB7
:1016B000020A01E00FD3745120EE7DF0DF620AD3FD
:1016C000800E7E6111D07E5136EC14F08B6F7EC09F
:1016D0008AF0030E866F820E856F876B886B0A0E09
:1016E000896F77EC20F0F6D27E5121EC15F00001E5
:1016F000EDD777510F0B030A01E0ECD2745120EEC5
:101700007DF0DF62E7D2800E7E6106D07FC04AF0B6
:101710007E51F9EC15F0DAD77FC048F07E51A2EC8B
:101720001AF0D4D7745120EE7DF0DF62D3D2000ED0
:1017300027EC22F000017F1901E0CCD2030E27EC48
:1017400022F00001801901E0C5D2050E27EC22F03D
:101750000001811901E0BED2070E27EC22F0000142
:10176000821901E0B7D26951831901E0B3D26851FF
:1017700020EE84F0DF62AED27E51B3EC21F0AAD22B
:10178000000E27EC22F000017E1973E1010E27EC18
:1017900022F000017F196DE1020E27EC22F000011A
:1017A000801967E1030E27EC22F00001811961E145
:1017B00051885FD0040E27EC22F000017E1959E118
:1017C000050E27EC22F000017F1953E1060E27ECED
:1017D00022F0000180194DE1070E27EC22F00001F4
:1017E000811947E1518A45D0080E27EC22F000010B
:1017F0007E193FE1090E27EC22F000017F1939E143
:101800000A0E27EC22F00001801933E10B0E27ECC1
:1018100022F0000181192DE1518C2BD00C0E27EC08
:1018200022F000017E1925E10D0E27EC22F00001C7
:101830007F191FE10E0E27EC22F00001801919E13B
:101840000F0E27EC22F00001811913E1518E11D007
:10185000516A0FD07D390F0BDC6FDD6BDD51F8E184
:10186000DC518EE0010AA6E0030ABEE0010AD6E0E0
:10187000EFD75150F00BF00A01E02CD270EC1FF0C2
:1018800029D2745120EE7DF0DF6224D2E86B7EC055
:10189000E7F07FC0EAF0F66B4AD0E751F625CEECD0
:1018A00021F00001DC6F070E0A6EF651E2EC20F029
:1018B0000001DD6FDD518B0FD96EDA6ADCC0DFFF0E
:1018C000070E0A6EF651E2EC20F0060A0BE0FF0E5E
:1018D0000001EA25DC6FDD6BFF0EDD23F651DC191C
:1018E000DD1124E1070E0A6E0001F651E2EC20F052
:1018F000060A03E1070E000109D0070E0A6E000177
:10190000F651E2EC20F00001DC6FDC29E96FE951CF
:10191000810F856F070E866F876B886B1A0E896F34
:10192000E8C08AF077EC20F00001E82BF62BEA51B2
:10193000F65D01E3CFD1B1D7745120EE7DF0DF62C7
:10194000C9D17EC0EBF07751FE0F070BEC6FF16B46
:1019500017D0F1517F0FD96EDA6ADF50DB6FEB5190
:10196000F12567EC21F0EB51F125CEEC21F00001DF
:10197000DC6FF1518B0FD96EDA6ADCC0DFFFF12B1F
:10198000EC51F15DE6E3070E866F876B886B1A0EEC
:10199000896F8A6BEC51810F856FA3D6745120EE4D
:1019A0007DF0DF6297D17E5136EC14F0DC6FDC29DC
:1019B0004A6E7E51F9EC15F089D6745120EE7DF017
:1019C000DF6288D17E5136EC14F0DC6FDC054A6EA4
:1019D0007E51F9EC15F07AD67D51741903E07D291A
:1019E00001E078D1F06B030E866F880E856F876BF0
:1019F000886B200E896FF56BF5C08AF0010EF76FCA
:101A0000F7518A0FD96EDA6AF0510F0827EC22F0ED
:101A1000DF6E0001F02B100EF06501D004D0F72B23
:101A2000070EF765EDD7100EF06501D007D077EC03
:101A300020F00001F52B020EF565DED7F76BF751AC
:101A4000DBEC21F0000908E0F7518D0FD96EDA6A5E
:101A5000F751DBEC21F005D0F7518D0FD96EDA6A22
:101A6000000EDF6EF72B040EF765E9D777EC20F058
:101A7000050E0001F06F030EF56FF5C08AF0010E40
:101A8000F76FF7518A0FD96EDA6AF051DBEC21F06B
:101A9000DF6EF02BF72B070EF765F3D777EC20F00E
:101AA0000001F52B060EF565E8D714D1745120EE30
:101AB0007DF0DF620FD1030E866F870E856F876B17
:101AC000886B220E896F8A0EF3EC21F00AD67451CE
:101AD00020EE7DF0DF62FED0F26B77C0DCF00F0EFF
:101AE000DC17040EDC5D12E381C0F3F0F46BF451FB
:101AF000F31103E1010EF46FF36B010EF35D010EC0
:101B0000F45907E3010EF46F000E02D0F46B010EDE
:101B1000F36F68C0E3F069C0E4F07F517EC0DCF091
:101B2000DD6BDCC0DDF0DC6BDC11686FDD51696FF3
:101B3000070E866F876B886B270E896F8A6B7EC056
:101B40008BF07FC08CF0F251F35DDC6F000EF45926
:101B5000DD6F040EDC5D000EDD5902E3040E02D0E1
:101B6000F251F35DED6FED51840F856F8051F225D9
:101B70008D6FEE6B0ED08051F225EE25CEEC21F06C
:101B80000001DC6FEE518E0FD96EDA6ADCC0DFFF28
:101B9000EE2BED51EE5DEFE377EC20F00001ED511F
:101BA000F2278A2BF251DC6FDD6BF351DC5DF451CF
:101BB000DD59C9E3E3C068F0E4C069F08BD074512B
:101BC00020EE7DF0DF6286D068C0E5F069C0E6F007
:101BD0007F517EC0DCF0DD6BDCC0DDF0DC6BDC1146
:101BE000686FDD51696F80C0EFF013D080518108BC
:101BF000EF25D96EDA6ADF50DB6FEF5167EC21F029
:101C0000DC6F80518E08EF25D96EDA6ADCC0DFFF09
:101C1000EF2B77510F0BDC6FDD6B8051DC27000E53
:101C2000DD23FC0EDC25DE6FFF0EDD21DF6FEF51C3
:101C3000E06FE16BE151800AE26FDE51E05DDF5160
:101C4000800AE259D3E3E5C068F0E6C069F0070E08
:101C5000866F77510F0B800F856F876B886B270E10
:101C6000896F8A6B7EC08BF07FC08CF080C08DF056
:101C700038D57B51010A01E10DD5030A01E10DD5EB
:101C8000040A01E10DD50E0A01E10DD5010A01E1B9
:101C90000DD5020A01E12DD5070A01E143D51B0A42
:101CA00001E1D8D50F0A01E1ECD5010A01E144D6E2
:101CB000040A01E173D6030A01E17FD6010A01E1BA
:101CC0008BD63E0A01E1F2D6040A01E100D7030AED
:101CD00001E175D71200386839683A683B683C6A98
:101CE0003D6A3E6A3F6A456A4550146E156AD8904F
:101CF00014361536D89014361536D8901436153655
:101D0000440E14240A6E000E15200B6E44EC22F0D3
:101D1000166E16AEE8D14550146E156AD89014367A
:101D20001536D89014361536D89014361536470E19
:101D300014240A6E000E15200B6E44EC22F0166E71
:101D400016C017F0186A196A1A6A19C01AF018C072
:101D500019F017C018F0176A45501B6E1C6AD8900E
:101D60001B361C36D8901B361C36D8901B361C36BA
:101D7000450E1B240A6E000E1C200B6E44EC22F054
:101D80001D6E1DC01EF01F6A206A216A1FC021F04F
:101D90001EC020F01F6A1E6A4550226E236AD8902A
:101DA00022362336D89022362336D8902236233650
:101DB000440E22240A6E000E23200B6E44EC22F007
:101DC000246E020E241624C025F0266A276A286A8B
:101DD000170ED8902536263627362836E82EF9D71E
:101DE0001E502510296E1F5026102A6E20502710D5
:101DF0002B6E215028102C6E175029102D6E185064
:101E00002A102E6E19502B102F6E1A502C10306E77
:101E1000FF0E2D10336E2E50346E2F50356E305015
:101E2000366E4550146E156AD89014361536D89013
:101E300014361536D89014361536480E14240A6E0A
:101E4000000E15200B6E44EC22F0166E16C017F033
:101E5000186A196A1A6A19C01AF018C019F017C05E
:101E600018F0176A45501B6E1C6AD8901B361C363A
:101E7000D8901B361C36D8901B361C36460E1B24B9
:101E80000A6E000E1C200B6E44EC22F01D6E1DC06D
:101E90001EF01F6A206A216A1FC021F01EC020F0B8
:101EA0001F6A1E6A4550226E236AD8902236233656
:101EB000D89022362336D89022362336440E222458
:101EC0000A6E000E23200B6E44EC22F0246E010EED
:101ED000241624C025F0266A276A286A25C028F01F
:101EE000276A266A256A1E502510296E1F50261063
:101EF0002A6E205027102B6E215028102C6E175060
:101F000029102D6E18502A102E6E19502B102F6E7E
:101F10001A502C10306E4550316E326AD8903136DE
:101F20003236D89031363236D89031363236430E8A
:101F300031240A6E000E32200B6E44EC22F02D107C
:101F4000406E2E50416E2F50426E3050436E4566AB
:101F500008D040C03CF041C03DF042C03EF043C01C
:101F60003FF0335038163450391635503A16365043
:101F70003B16446A445040C014F041C015F042C0C2
:101F800016F043C017F0E82A05D0D8901732163261
:101F900015321432E82EF9D7010E141644503CC005
:101FA00018F03DC019F03EC01AF03FC01BF0E82AFF
:101FB00005D0D8901B321A3219321832E82EF9D7D0
:101FC0001850010B14181DE044C014F0010E156EDA
:101FD000166A142A03D0D89015361636142EFBD75D
:101FE000151C176E161C186E196A18BE19061950A2
:101FF0001A6E175038161850391619503A161A50CA
:102000003B16442A1F0E4464B5D740503C1641503D
:102010003D1642503E1643503F1645504FE0446A2D
:1020200045C014F04550156E166AD8901536163610
:10203000D89015361636D89015361636430E152418
:102040000A6E000E16200B6E44EC22F0176E142A56
:1020500002D0D8901732142EFCD7010E171645C0A7
:1020600018F037C019F0182A02D0D8901932182E5B
:10207000FCD71950010B17181DE045C014F0010ED4
:10208000156E166A142A03D0D89015361636142EFB
:10209000FBD715C017F016C018F0000E18BEFF0EC3
:1020A000196E1A6E175038161850391619503A16FC
:1020B0001A503B16442A070E4464B2D74550146E9A
:1020C000156AD89014361536D89014361536D8902F
:1020D00014361536430E14240A6E000E15200B6EAE
:1020E00044EC22F0376E452A030E4564FDD5800E80
:1020F000E7EC21F00F010F0E0B6E1C0E0A6E38C0BC
:102100000CF039C00DF03AC00EF03BC00FF0010EDC
:10211000106EC8EC18F00D01D4830F010F0E0B6E7A
:10212000040E0A6E3CC00CF03DC00DF03EC00EF037
:102130003FC00FF0010E106EC8EC18F0000EE7EF74
:1021400021F07A51791101E16DD1F46BF451EA6F0C
:10215000EB6BD890EA37EB37D890EA37EB37D8906B
:10216000EA37EB37B60EEA250A6E000EEB210B6E4E
:1021700044EC22F00001F36FF3AF4FD1F3AD18D070
:10218000F451EA6FEB6BD890EA37EB37D890EA3727
:10219000EB37D890EA37EB37B60EEA250A6E000E19
:1021A000EB210B6E44EC22F000017C1901E035D1EB
:1021B000F3A910D07E290EE0000EF66E060EF76E23
:1021C0000800F5500A6E0B6A44EC22F000017E19FB
:1021D00001E023D1F3A713D07F2911E0000EEA6FAD
:1021E000EA2BEAC0F6FF060EF76E0800F5500A6EFD
:1021F0000B6A44EC22F000017F1901E00ED1F4518A
:10220000080DB90EF3240A6E000EF4200B6E44EC98
:1022100022F00001EA6FF351010BEC6FEB6BEA5116
:10222000EB25ED6F000EEC21EE6FF451080DB80EAA
:10223000F3240A6E000EF4200B6E44EC22F0000131
:10224000EA6FF351020BEB6FEC6B070ED890EB3794
:10225000EC37E82EFBD7EA51EB25EF6F000EEC21AF
:10226000F06FF451EA6FEB6BD890EA37EB37D89008
:10227000EA37EB37D890EA37EB37BB0EEA250A6E20
:10228000000EEB210B6E44EC22F00001F16FF451D3
:10229000EA6FEB6BD890EA37EB37D890EA37EB3739
:1022A000D890EA37EB37BA0EEA250A6E000EEB211A
:1022B0000B6E44EC22F00001F26F20EE79F0DECFDD
:1022C000EAF0DDCFEBF0ED51EA1BEE51EB1BEF51E5
:1022D000EA17F051EB17EB51EA1101E09ED07B5168
:1022E000F119F21579E099D00001F451EA6FEB6B26
:1022F000D890EA37EB37D890EA37EB37D890EA37FF
:10230000EB37BD0EEA250A6E000EEB210B6E44EC96
:1023100022F05DEC22F081D00001F451EA6FEB6B0A
:10232000D890EA37EB37D890EA37EB37D890EA37CE
:10233000EB37BD0EEA250A6E000EEB210B6E44EC66
:1023400022F056EC22F069D00001F451EA6FEB6BF9
:10235000D890EA37EB37D890EA37EB37D890EA379E
:10236000EB37BD0EEA250A6E000EEB210B6E44EC36
:1023700022F0F5EC1FF051D00001F451EA6FEB6B45
:10238000D890EA37EB37D890EA37EB37D890EA376E
:10239000EB37BD0EEA250A6E000EEB210B6E44EC06
:1023A00022F04CEC1FF039D00001F451EA6FEB6BD6
:1023B000D890EA37EB37D890EA37EB37D890EA373E
:1023C000EB37BD0EEA250A6E000EEB210B6E44ECD6
:1023D00022F0B6EC1FF021D0F451EA6FEB6BD890ED
:1023E000EA37EB37D890EA37EB37D890EA37EB3754
:1023F000BC0EEA250A6E000EEB210B6E44EC22F0B7
:10240000000A0BE0010A01E16FD7030A85E0010A27
:102410009BE0070AB1E0010AC7E00001F42B030EBC
:10242000F46594D61200E8CFC2F0C251040DF3CF88
:1024300046F00F0E46264650510F476E47C0F6FF36
:10244000060EF76E0800F5500A6E0B6A44EC22F097
:102450000001BE6FC251040DF3CF46F00E0E4626AA
:102460004650510F476E47C0F6FF060EF76E080044
:10247000F5500A6E0B6A44EC22F00001BF6FC251A6
:10248000040DF3CF46F00D0E46264650510F476E11
:1024900047C0F6FF060EF76E0800F5500A6E0B6A8D
:1024A00044EC22F00001C06FC251040DF3CF46F09E
:1024B0000C0E46264650510F476E47C0F6FF060EDB
:1024C000F76E0800F5500A6E0B6A44EC22F000012A
:1024D000C16FBEC0B2F0BFC0B3F0C0C0B4F0C1C0E5
:1024E000B5F0C251040DF3CF46F01F0E46264650FC
:1024F000510F476E47C0F6FF060EF76E0800F55005
:102500000A6E0B6A44EC22F00001BE6FC251040D4A
:10251000F3CF46F01E0E46264650510F476E47C079
:10252000F6FF060EF76E0800F5500A6E0B6A44ECD3
:1025300022F00001BF6FC251040DF3CF46F01D0E13
:1025400046264650510F476E47C0F6FF060EF76EFF
:102550000800F5500A6E0B6A44EC22F00001C06FCF
:10256000C251040DF3CF46F01C0E46264650510FC3
:10257000476E47C0F6FF060EF76E0800F5500A6E6C
:102580000B6A44EC22F00001C16FBEC0B6F0BFC0C0
:10259000B7F0C0C0B8F0C1C0B9F0B2C01CF0B3C051
:1025A0001DF0B4C01EF0B5C01FF0C251020DF350B3
:1025B000920FD96EDA6ADECF14F0DDCF15F0CDECD4
:1025C00020F017C01BF016C01AF015C019F014C087
:1025D00018F0B1EC1BF01BC0BDF01AC0BCF019C064
:1025E000BBF018C0BAF02B6AC00E2C6E7F0E2D6E99
:1025F000440E2E6E1C6A1D6AA00E1E6E400E1F6ECB
:10260000BAC018F0BBC019F0BCC01AF0BDC01BF0B6
:10261000B1EC1BF01BC02AF01AC029F019C028F039
:1026200018C027F02FEC1DF02AC039F029C038F06F
:1026300028C037F027C036F0B6C03AF0B7C03BF03C
:10264000B8C03CF0B9C03DF018EC18F039C045F006
:1026500038C044F037C043F036C042F01200E8CF33
:1026600016F04E6A7750C00B186E186632D060AE06
:1026700012D0A49074AE06D01350D96EDA6A000E50
:10268000DB86749E60A002D04E8001D04E900F0E6B
:102690001B6E600E1AD00F0150AF19D0A49274AC0B
:1026A00006D01350D96EDA6A000EDB86749C505146
:1026B000070B4E6E020E4E6005D01350D96EDA6ACB
:1026C000000EDB8E0F0E1B6E500E1A6E65D0000EC4
:1026D000CCD01850400A46E160AE04D00F0E1B6EFD
:1026E000600E3ED00F0150AF04D00F0E1B6E500E87
:1026F00037D00D01F8B507D00E0120AF04D00E0E73
:102700001B6E200E2DD00D01F8B707D00E0130AF93
:1027100004D00E0E1B6E300E23D00D01F8B907D079
:102720000E0140AF04D00E0E1B6E400E19D00D01ED
:10273000F8BB05D00E0150AF02D00E0ED7D70D0159
:10274000F8BD05D00E0160AF02D00E0EC8D70D0146
:10275000F8BFBDD70E0170AFBAD70E0E1B6E700E4C
:102760001A6E0AD074AEB3D76F50070B83EC1EF00D
:102770000AC01AF00BC01BF01AC0D9FF1BC0DAFF49
:10278000DF501F0B4E6EA49274AC06D01350D96E5E
:10279000DA6A000EDB86749C1AC014F01BC015F0B8
:1027A0001350D96EDA6ADF6A20EE05F01A50D92686
:1027B0001B50DA22DF50196E1250D96EDA6A1950A6
:1027C0000F0BDF6E19AC05D01350D96EDA6A000E0C
:1027D000DB8C20EE02F01A50D9261B50DA22DF5093
:1027E000196E19A608D01350D96EDA6A000EDB8A6A
:1027F000010E196E01D0196A1A280A6E000E1B20EC
:102800000B6E16C00CF019C00DF066EC17F0060E3A
:102810001A26000E1B221250D96EDA6ADF50196E8A
:10282000176A0DD01AC0D9FF1BC0DAFF1150E16E34
:10283000E26ADFCFE7FF1A4A1B2A112A172A19502A
:10284000175CF0E3A4AE06D01350D96EDA6A000E1E
:10285000DB88A49E14C0D9FF15C0DAFF7F0EDF16F7
:102860001850800AD8B4749E010E1200E8CFD8F038
:10287000D76B6951681153E1130ED8610ED0D8514E
:10288000000F486E48C0F6FF060EF76E0800F550C0
:102890000A6E0B6A44EC22F0D0D0D851130A02E140
:1028A0009351CCD0D851140A03E192C0D7F0C7D0CD
:1028B000D851150A02E19551C1D0D851160A03E149
:1028C00094C0D7F0BCD0D851170A02E19751B6D0C6
:1028D000D851180A03E196C0D7F0B1D0D851190ADF
:1028E00002E19951ABD0D8511A0A03E198C0D7F050
:1028F000A6D01A0ED86504D0500ED86101D0BFD72B
:10290000D851500A01E09BD08238E832010B486E62
:102910008238010B496ED890493448108FD0680531
:1029200069117CE12C0ED8610ED0D851510F486E40
:1029300048C0F6FF060EF76E0800F5500A6E0B6AE7
:1029400044EC22F07AD02B0ED86517D0300ED86127
:1029500014D0000E13EC12F045C0C6F044C0C5F010
:1029600043C0C4F042C0C3F00001C30ED36FD351C3
:10297000D825D96EDA6AD40E4DD02F0ED86517D06F
:10298000340ED86114D0010E13EC12F045C0CAF019
:1029900044C0C9F043C0C8F042C0C7F00001C70E30
:1029A000D46FD451D825D96EDA6AD00E33D0330E15
:1029B000D86517D0380ED86114D0020E13EC12F07F
:1029C00045C0CEF044C0CDF043C0CCF042C0CBF007
:1029D0000001CB0ED56FD551D825D96EDA6ACC0E51
:1029E00019D0370ED8652BD03C0ED86128D0030EF5
:1029F00013EC12F045C0D2F044C0D1F043C0D0F087
:102A000042C0CFF00001CF0ED66FD651D825D96E77
:102A1000DA6AC80ED926DA6ADF5010D06851020A85
:102A200069110DE1200ED8610AD0B60ED8250A6EC4
:102A30000B6A000E0B2244EC22F00001D76FD75135
:102A40001200E8CF1EF01D6A1E50800A04E14FC03C
:102A50001DF04F6ACCD01E50810A02E1010E82D0D7
:102A60001E50820A02E1060E7DD01E50830A03E149
:102A700050C01DF0BCD01E50940A03E188EC22F037
:102A800071D01E50950A03E187EC22F06BD01E50E6
:102A9000960A03E186EC22F065D0890E1E6005D00F
:102AA0001E507C0F1DEC22F05DD0880E1E6408D0F5
:102AB000910E1E6005D01E50770F13EC22F052D0FD
:102AC0001E50910A03E174C01DF091D01E50930A6C
:102AD00003E168C01DF08BD01E50920A02E16951DB
:102AE00041D01E50970A03E185EC22F03BD01E50E6
:102AF000980A03E184EC22F035D01E50990A03E1D4
:102B000083EC22F02FD0990E1E642ED09E0E1E60F4
:102B10002BD069EC22F00DC016F00CC015F00BC0E4
:102B200014F00AC013F01E50660F1B6E1B500308F2
:102B30000E6ED8900E36D8900E36D8900E360E50B7
:102B400013C00FF014C010F015C011F016C012F031
:102B5000E82A05D0D8901232113210320F32E82E06
:102B6000F9D730D01D6E43D09D0E1E642DD0A20E1D
:102B70001E602AD064EC22F00DC01AF00CC019F0CF
:102B80000BC018F00AC017F01E50620F1C6E1C50CC
:102B900003080E6ED8900E36D8900E36D8900E36AA
:102BA0000E5017C00FF018C010F019C011F01AC065
:102BB00012F0E82A05D0D8901232113210320F32BA
:102BC000E82EF9D70F50CED7CF0E1E6408D0E00EF6
:102BD0001E6005D01E50300F27EC22F0C3D7DF0E49
:102BE0001E6405D01E50200FDBEC21F0BBD71D501A
:102BF0001200E8CFDAF04A1CD96F6951681169E117
:102C0000130EDA6121D077EC22F00001DA51000FC7
:102C10004B6E4BC0F6FF060EF76E0800F5500A6EBD
:102C20000B6A4AC00CF02BEC20F00001DA51000FC7
:102C30004B6E4BC0F6FF060EF76E0800F5500A6E9D
:102C40000B6A44EC22F08BD0120EDA6504D04F0EE2
:102C5000DA6101D0D8D7DA514F0A18E14AC04BF0F7
:102C6000010E4B164B3A4B4694504B18DF0B4B184A
:102C7000946E4AC04BF0D8904B32010E4B164B3A33
:102C800094504B18EF0B4B18946EBDD7DA51500A85
:102C900068E1010E4AA0000E4B6E4B3A4B468B503A
:102CA0004B18DF0B4B188B6E010E4AA2000E4B6EB9
:102CB0004B3A8B504B18EF0B4B188B6E8238E83227
:102CC000010B4B6E8238010B4C6ED8904C344B107C
:102CD00047D06805691124E12C0EDA6142D077EC07
:102CE00022F00001DA51510F4B6E4BC0F6FF060E79
:102CF000F76E0800F5500A6E0B6A4AC00CF02BEC18
:102D000020F00001DA51510F4B6E4BC0F6FF060E5A
:102D1000F76E0800F5500A6E0B6A44EC22F01FD0E3
:102D20006851030A69111DE1200EDA611AD077ECAF
:102D300022F0B60E0001DA250A6E0B6A000E0B2295
:102D40004AC00CF02BEC20F06BEC0EF0B60E00013C
:102D5000DA250A6E0B6A000E0B2244EC22F0000109
:102D6000D96FD95112000F0E1D6E400E1C6E0F0E42
:102D70001F6E300E1E6E0F0E216E200E206E0E0E78
:102D8000236E200E226E0E0E256E300E246E0E0E59
:102D9000276E400E266E0E0E296E500E286E0E0EF9
:102DA0002B6E600E2A6E0E0E2D6E700E2C6E7750EE
:102DB000C00B2E6E2E6602D0020E01D0080E2F6EB2
:102DC0000D01D890F831316E356A7BD03550020D47
:102DD000F3501C0FD96EDA6ADECF36F0DDCF37F054
:102DE00036C032F037C033F0020E356404D0D890CC
:102DF000313231A065D036C0D9FF37C0DAFFDF509D
:102E00001B6E1BB65DD036C0D9FF37C0DAFFFC0E93
:102E1000DF161AC01BF0030E1B1636C0D9FF37C0D1
:102E2000DAFF1B50DF121AAC04D019504009346E7F
:102E300002D019C034F020EE05F03650D9263750B4
:102E4000DA2234C0DFFF1AAA03D0010E346E01D09B
:102E5000346A36280A6E000E37200B6E14C00CF050
:102E600015C00DF016C00EF017C00FF034C010F0F2
:102E7000C8EC18F0060E3626000E3722306A0DD048
:102E80001850D96EDA6A36C0E1FF37C0E2FFDFCFF3
:102E9000E7FF182A364A372A302A1950305CF0E307
:102EA00032C0D9FF33C0DAFFDF501B6E1BB406D02F
:102EB00032C0D9FF33C0DAFF000EDB86010E05D029
:102EC000352A2F50355C82E3000E12000CC010F042
:102ED0000D6646D01050D96EDA6A0AC0E1FF0BC009
:102EE000E2FFE7500E6ED8900E36D8900E36D8908E
:102EF0000E34DF6E1050D96EDA6AD92ADA6A0AC047
:102F0000E1FF0BC0E2FFE7500E6E050E0F6ED8908A
:102F10000E320F2EFCD70E50DF6E0A4A0B2A0AC063
:102F2000D9FF0BC0DAFFDF500E6E050E0F6ED89082
:102F30000E320F2EFCD71050D96EDA6A0E50DF1207
:102F40001050D96EDA6A020ED926DA6ADF6A10509A
:102F5000D96EDA6A030ED926DA6A000EDF6E67D000
:102F60001050D96EDA6A020ED926DA6A0AC0E1FF79
:102F70000BC0E2FFE7500E6E050E0F6ED8900E36B6
:102F80000F2EFCD70E50DF6E1050D96EDA6A030E8A
:102F9000D926DA6A0AC0E1FF0BC0E2FFE7500E6EE5
:102FA000D8900E32D8900E32D8900E30DF6E0A4A8A
:102FB0000B2A0AC0D9FF0BC0DAFFDF500E6E030EDA
:102FC0000E161050D96EDA6A020ED926DA6A0E5041
:102FD000DF120AC0D9FF0BC0DAFFDF500E6ED890A7
:102FE0000E32D8900E32D8900E321C0E0E161050A3
:102FF000D96EDA6A020ED926DA6A0E50DF120A4A50
:103000000B2A0AC0D9FF0BC0DAFF1050E16EE26A4A
:10301000E12AE26ADFCFE7FF0A4A0B2A0AC0D9FF9A
:103020000BC0DAFF1050E16EE26ADFCFE7FF12005B
:1030300038343934416E3C343D34406E415009E0FF
:10304000405041600FD04150405C3E6E210E3E5CCE
:1030500009E33AC036F03BC037F03CC038F03DC021
:1030600039F095D0405009E0415040600FD04050B9
:10307000415C3E6E210E3E5C09E336C036F037C03F
:1030800037F038C038F039C039F081D0060E3F6EC5
:1030900039BE3F8E3DBE3F8C388E396A3C8E3D6ACC
:1030A0004050416018D0D8903A363B363C363D36D9
:1030B0004006405041180BE03F063F50070B07E029
:1030C000F2D7D8903932383237323632412A40502E
:1030D0004162F7D71AD04150406017D0D8903636A9
:1030E0003736383639364106405041180BE03F0636
:1030F0003F50070B07E0F2D7D8903D323C323B32CD
:103100003A32402A40504162F7D73FAE09D0361ECE
:10311000371E381E391E362A000E37223822392231
:103120003FAC09D03A1E3B1E3C1E3D1E3A2A000E03
:103130003B223C223D223F6A36503A2637503B2202
:1031400038503C2239503D223DAE0BD03A1E3B1E3A
:103150003C1E3D1E3A2A000E3B223C223D22010E1F
:103160003F6E3AC00AF03BC00BF03CC00CF03DC0D3
:103170000DF041C00EF03FC00FF019EC1CF00DC077
:1031800039F00CC038F00BC037F00AC036F012002E
:103190000C0E136E106637D01350D96EDA6ADF50FA
:1031A000116ED8901132D8901132D89011300AC0D7
:1031B000D9FF0BC0DAFFDF6E1350D96EDA6AD92A55
:1031C000DA6ADF50116E050E126ED8901136122E8B
:1031D000FCD70AC0D9FF0BC0DAFF1150DF120A4A30
:1031E0000B2A1350D96EDA6ADF50116E050E126E7B
:1031F000D8901136122EFCD711500AC0D9FF0BC03F
:10320000DAFFDF6E6CD01350D96EDA6A020ED9265F
:10321000DA6ADF50116E050E126ED8901132122E3E
:10322000FCD711500AC0D9FF0BC0DAFFDF6E135074
:10323000D96EDA6A030ED926DA6ADF50116ED89099
:103240001136D8901136D89011360AC0D9FF0BC06C
:10325000DAFF1150DF120A4A0B2A1350D96EDA6ACC
:10326000020ED926DA6ADF50116ED8901136D89046
:103270001136D8901134E00B0AC0D9FF0BC0DAFF29
:10328000DF6E0AC0D9FF0BC0DAFF000EDB861350D9
:10329000D96EDA6A020ED926DA6ADF50116E030E91
:1032A00011160AC0D9FF0BC0DAFF1150DF120A4A0B
:1032B0000B2A1350D96EDA6AD92ADA6A0AC0E1FFFA
:1032C0000BC0E2FFDFCFE7FF0A4A0B2A1350D96E8B
:1032D000DA6A0AC0E1FF0BC0E2FFDFCFE7FF1200AE
:1032E000E8CFD8F0D851020DF3509A0FD96EDA6AB0
:1032F000DE6ADD6AD85113EC12F045C0D6F044C046
:10330000D5F043C0D4F042C0D3F00001D851030D32
:10331000F350510F4A6E4AC0F6FF060EF76E0800D2
:10332000F5500A6E0B6A44EC22F0180BA00900015C
:10333000D825C66FD30ED76FD751D96EDA6A030E70
:10334000D926DA6ADF50CA6FD751D96EDA6A020E0F
:10335000D926DA6ADF50C96FD751D96EDA6AD92A0D
:10336000DA6ADF50C86FD751D96EDA6ADF50C76F9B
:10337000D851030DF350510F4A6E4AC0F6FF060EA6
:10338000F76E0800F5500A6E0B6A44EC22F04B6EA3
:103390004BBC04D00001D16BD26B04D0020E0001F3
:1033A000D26FD16BD851030DF3CF4AF04A2A4A505D
:1033B000510F4B6E4BC0F6FF060EF76E0800F5502E
:1033C0000A6E0B6A44EC22F00001D125CE6F000E8C
:1033D000D221CF6FD851030DF3CF4AF0020E4A2607
:1033E0004A50510F4B6E4BC0F6FF060EF76E0800A9
:1033F000F5500A6E0B6A44EC22F00001D06FCEC08B
:103400003FF0CFC040F0D0C041F074C042F0030E96
:10341000436E050E446EC60E456ED6EF1CF0E8CF27
:10342000E1F0DE6BDF6BE06BD9290DE0000EF66E8C
:10343000060EF76E0800F5500A6E0B6A44EC22F097
:103440000001D9197EE1DA2910E0000E4C6E4C2AF9
:103450004CC0F6FF060EF76E0800F5500A6E0B6AB8
:1034600044EC22F00001DA196CE1E151F00BF00AB2
:1034700004E1010EDE6FDF6FE06FDE5127E0E46BE9
:10348000E56BE4C04CF0010E4D6E4C2A02D0D89092
:103490004D364C2EFCD74D50E1150FE0E4C0C6F080
:1034A000E451020DF350920FD96EDA6ADECFC7F005
:1034B000DDCFC8F0020E11EC20F0E44BE52BE55116
:1034C000800A800F040ED8B4E45DDBE3DF511BE01B
:1034D000E26BE36BE2C04CF0010E4D6E4C2A02D061
:1034E000D8904D364C2EFCD74D50E11503E0E251FB
:1034F00070EC19F0E24BE32BE351800A800F040ECD
:10350000D8B4E25DE7E3E0511CE0300EDB6FDC6B2A
:103510008238E832010B4C6E8238010B4D6ED89028
:103520004D344C10DD6F406A0F0E3F6E010E416E40
:1035300074C042F0030E436E446EDB0E456ED6EC53
:103540001CF01200E8CFBBF0481CBA6FBB51830AD5
:1035500002E1506A81D0830EBB6510D0890EBB6139
:103560000DD048C00EF0BB517C0FA5EC21F000013E
:10357000BB517C0F1DEC22F000013BD0BB51920AE5
:103580000DE148504A6E496A68514B6E4C6A4910C9
:10359000686F4A504C10696F69512BD0BB51930A28
:1035A0000BE1496A69514A6E48504910686F4A50A8
:1035B000696F68C0BAF051D0880EBB651CD0910EFF
:1035C000BB6119D069C049F049C04AF04B6A4A282A
:1035D00002E1682902E0481C0CD048C00EF0BB5143
:1035E000770F1DEC21F00001BB51770F13EC22F097
:1035F000C3D7BA6F32D0CF0EBB6518D0E00EBB6117
:1036000015D069C049F049C04AF04B6A4A28E3E145
:103610006829E1E148C00EF0BB51300F30EC21F0D9
:103620000001BB51300F27EC22F0A6D7BB51A20AF4
:10363000D2E14850550A04E1666B676B550ED9D745
:103640004850AA0A0AE1E80E665D030E675904E2D3
:1036500073EC22F0AA0ECDD7BA6BBA51120045EC2A
:1036600020F0D8EC1FF00009D8B44FEC03F0BEEC0A
:103670001EF070EC1FF06BEC0EF00400FA0E00016F
:1036800072650ED075050CE0746977EC22F00B6A58
:10369000010E0A6EFF0E0C682BEC20F070EC1FF090
:1036A000776BB8EC20F02BD0742903E1010E756F15
:1036B00032D0030E756F87EC21F02DD079EC1CF021
:1036C0002AD077AF28D07A51791103E145EC0BF07D
:1036D00022D0A1EC10F079511E0A7A111CE17B5125
:1036E0001A0A19E17EC0D9F07FC0DAF07D510FECE3
:1036F0001AF011D07AEC22F00ED0756B0CD00001CC
:103700007551D2E0010ADAE0030AD5E0010AD9E0F6
:10371000070AF0E0F2D7E90E0001605D030E61597F
:10372000000E6259000E63590BE3606B616B626BB4
:10373000636B24EC1FF07551030AD8B482EC22F0BD
:103740003B0E70650BD0706B6F2B3B0E6F6502D01C
:103750006F6B6E2B170E6E6501D06E6B51EC07F020
:103760008CD71A341B34206E206601D005D01E344D
:103770001F34266E266605D0186A196A1A6A1B6AF3
:1037800057D026507B0F20261BC026F01F50261A2C
:10379000800E26161A8E1E8E000E1F16216A226AB1
:1037A000236A246A070E256E18A008D01C50212613
:1037B0001D5022221E5023221F502422D8901B323B
:1037C0001A3219321832D8901C361D361E361F3662
:1037D000252EEAD7110E256E18A008D01C502126E0
:1037E0001D5022221E5023221F502422D8901B320B
:1037F0001A3219321832D89024322332223221322E
:10380000252EEAD721C00AF022C00BF023C00CF00D
:1038100024C00DF020C00EF026C00FF019EC1CF0F3
:103820000DC01BF00CC01AF00BC019F00AC018F044
:1038300012000E5005E00D500A100B100C100BE199
:103840000A6A0B6A0C6A0D6A53D00E2AD8900D32A0
:103850000C320B320A32106A116A126AFE0E0D1413
:10386000136E13501010111012100CE0EED70E2A28
:103870000A2A000E0B220C220D22D8900D320C3297
:103880000B320A32106A116A126A0D50136E13500D
:1038900010101110121007E0EAD70E06D8900A3661
:1038A0000B360C360D360CAEF8D70EB002D07F0EAC
:1038B0000C16D8900E320EC010F0116A126A136AFC
:1038C00010C013F0126A116A106A10500A121150D7
:1038D0000B1212500C1213500D120F50D8A40D8E53
:1038E0000AC00AF00BC00BF00CC00CF00DC00DF0BC
:1038F000120053D0542812E0810E0001856F866BB0
:10390000876B886B020E896F54C08AF077EC20F0C9
:10391000010E536E00016A6B6B6B45D0040E000103
:10392000756F810E856F8A69070E866F876B886B4E
:10393000030E896F77EC20F036D0000177AF0FD0FF
:103940007A51791130E17B51030A2DE1546603D09D
:10395000020E756FDFD7542A536A556A24D0E90ED8
:103960006A5D030E6B591FE3552A020E556413D08E
:10397000546605D0542A536A6A6B6B6BEED754C0F9
:1039800074F0030E756F536A7451FEEC21F0556AA2
:1039900087EC21F008D0536A06D05350ABE0010AFF
:1039A000CCE0030AF8E10001776B120041C0B2F0ED
:1039B000B36BB46BB56BB4C0B5F0B3C0B4F0B2C008
:1039C000B3F0B26B3F50B66F4050B76FB86BB96B86
:1039D000B7C0B9F0B6C0B8F0B76BB66B43C0BAF0B9
:1039E000BB6BBC6BBD6B1A0ED890BA37BB37BC37FC
:1039F000BD37E82EF9D7B651BA11BE6FB751BB111A
:103A0000BF6FB851BC11C06FB951BD11C16FB25178
:103A1000BE11C26FB351BF11C36FB451C011C46F97
:103A2000B551C111C56F4250C211466EC351476EA8
:103A3000C451486EC551496E46C038F047C039F090
:103A400048C03AF049C03BF044C03CF045C03DF0AE
:103A500093EC1FF00009000ED8A4010E12002934C7
:103A60002A34346E346601D005D02D342E34356EB0
:103A7000356605D0276A286A296A2A6A43D03550F4
:103A8000890F345E2AC035F02E50351A800E351657
:103A9000298E2A6A2D8E2E6A200E336ED8902F36EC
:103AA0003036313632362B50275C2C5028582D506A
:103AB00029582E502A5809E32B50275E2C50285A9B
:103AC0002D50295A2E502A5A2F80D8902736283622
:103AD00029362A36332EE2D72FC00AF030C00BF039
:103AE00031C00CF032C00DF034C00EF035C00FF014
:103AF00019EC1CF00DC02AF00CC029F00BC028F006
:103B00000AC027F01200800EE7EC21F0090E706E5B
:103B1000FC0E716E010E726E200E736E778E779CA6
:103B2000606A0F01506B0E01206B306B406B506B65
:103B3000606B706BE00E0D01F86F0F01006B080EEB
:103B4000016F026B036B046BE80E056F1A0E066FB4
:103B5000076B030E0D01D46FD56BE06B110EE16F97
:103B6000E26FE36BE46BE56BE66BE76B540EF06FB3
:103B7000050EF16FF26BF26B0F0E0F01186FE00E76
:103B8000196F1A6B1B6B19870F0E1C6FE00E1D6FE0
:103B90001E691F6B1D87000EE7EF21F0E8CFCBF009
:103BA000CBC0C8F0CB51030B020DF3CF4AF00A0E85
:103BB0004A264A50000F4B6E4BC0F6FF060EF76EBA
:103BC0000800F5500A6E0B6A44EC22F00001C96F40
:103BD000CB51030B020DF3CF4AF00B0E4A264A508D
:103BE000000F4B6E4BC0F6FF060EF76E0800F55047
:103BF0000A6E0B6A44EC22F00001CA6FC6C03FF0A7
:103C0000406AC7C041F074C042F0030E436E446E78
:103C1000C80E456ED6EF1CF0E8CF29F023C01CF08B
:103C200024C01DF02A0E8DEC20F0000902E1000EE8
:103C30002ED02150D96EDA6A2AC0DFFF2050D96E0B
:103C4000DA6A2BC0DFFF2C50256E010E2D14266E74
:103C50002950D96EDA6A25C0DEFF26C0DDFF22506A
:103C6000D96EDA6A2AC025F02BC026F02CC027F0C6
:103C70002DC028F01B0E05D0D890283227322632CE
:103C80002532E82EF9D72550070BDF6E010E120002
:103C9000E8CFC9F0C9C0C6F0C9C04AF0030E4A1641
:103CA000020E4A264A50000F4B6E4BC0F6FF060E1E
:103CB000F76E0800F5500A6E0B6A44EC22F0000122
:103CC000C76FC9C04AF0030E4A164A264A50000F71
:103CD0004B6E4BC0F6FF060EF76E0800F5500A6EED
:103CE0000B6A44EC22F00001C86F406A010E3F6E7F
:103CF000020E416E74C042F0436A030E446EC60E5B
:103D0000456ED6EF1CF0E8CF0DF024D00F0E0F6EED
:103D1000600E1ED00F010F0E0F6E500E19D00E0147
:103D20000E0E0F6E200E14D00E010E0E0F6E300E02
:103D30000FD00E010E0E0F6E400E0AD00E010E0EA9
:103D4000EBD70E010E0EE3D70E010E0E0F6E700EA6
:103D50000E6E0FD00D50DAE0010ADCE0030ADFE05E
:103D6000010AE2E0070AE5E0010AE8E0030AE9E007
:103D7000EBD70EC00AF00FC00BF012000001606B11
:103D8000616B626B636B706B6F6B6E6B0B6A0A6A55
:103D90000D6A080E0C6E920EF6EC20F00B6A0A6AA1
:103DA0000D6A040E0C6E0001AE0EF6EC20F00B6AEC
:103DB0000A6A0D6A040E0C6E0001AA0EF6EC20F0E1
:103DC0000B6A0A6A0D6A080E0C6E0001A20EF6EC70
:103DD00020F00B6A0A6A0D6A080E0C6E00019A0E3A
:103DE000F6EC20F000016C6B6D6B1200E8CF0EF06A
:103DF000C26AC06AD8900A303C0BC26E0AC00CF08E
:103E00000C3AF00E0C16300E0C160B500F0B0C105B
:103E1000C16E0EC00CF0D8900C36D8900C36380E0F
:103E20000C160EC00DF00D3A0F0E0D16070E0D16E6
:103E30000E50800B0D100C10C06E0AAE03D09E9C6D
:103E40009D8CF28CC2801200762B3B0E76650DD0D5
:103E5000766B732B7551030A08E1C1EC21F0000168
:103E6000C66F09EC22F00AEC21F03B0E00017365ED
:103E700002D0736B712B170E716501D0716B755188
:103E8000030A09E1512A51C04CF00F0E4C16020EE4
:103E90004C5CD8B0516A1200E8CFE7F0000EF66E25
:103EA000060EF76E0800F5500A6E0B6A44EC22F01D
:103EB0000001E86F000EE66FE62BE6C0F6FF060E87
:103EC000F76E0800F5500A6E0B6A44EC22F0000110
:103ED000E96FE8C0D9F0E9C0DAF0E7510FEF1AF066
:103EE000020E526E6EEC22F00001746F746701D006
:103EF0007469776B786B796B7A6B7B6B856B866B90
:103F0000876B886B896B506A4F6A546A756B536A0A
:103F1000556A686B696B6A6B6B6B666B676B766B0C
:103F2000736B716B12003E6A646B656B15D038C0A1
:103F300014F039C015F03AC016F03BC017F03DC080
:103F400018F03CC019F0200E1A6EB3EC16F0000900
:103F500003E0010E3E6E06D0E80E0001645D030E24
:103F60006559E5E30001856B3E501200000EF66EC8
:103F7000060EF76E0800F5500A6E0B6A44EC22F04C
:103F80000001E76F000EE66FE62BE6C0F6FF060EB7
:103F9000F76E0800F5500A6E0B6A44EC22F000013F
:103FA000E86FE7C0D9F0E8C0DAF0FF0E0FEF1AF0C3
:103FB000000E31EC22F0550A07E1010E31EC22F03F
:103FC000AA0A02E1010E10D07CEC22F0FF0EFEECFA
:103FD00021F0550E0E6E000E43EC21F0AA0E0E6E6F
:103FE000010E43EC21F0000E1200E8CF0BF00BA005
:103FF0000BD0010E8BBA000E0A6E0A3A0A468B509D
:104000000A18DF0B0A188B6E0BA20AD0010E8BB8B0
:10401000000E0A6E0A3A8B500A18EF0B0A188B6EC4
:104020001200E8CFC9F0C651600FCA6FCB6BCC6BE2
:10403000C851CD6FC7C0CEF0406A0F0E3F6EC9C0E9
:1040400041F074C042F0030E436E050E446ECA0E7A
:10405000456ED6EF1CF00AC0A9FF0CC0A8FFA69EB3
:10406000A69CA684000EF2BE010E0D6EF29E550EA9
:10407000A76EAA0EA76EA682A6B2FED70DB002D07A
:10408000F29E01D0F28EA69412000F0E926E010ED7
:10409000946E826A920E96EC21F0FB0E0B6E1D0E52
:1040A0000A6E3BEC22F0840E0A6E0F0E0B6EEF0EC2
:1040B000F6EC1EF083EC1DF0F28E7EEF22F07751CD
:1040C0000F0B0F6E0F5012E0745120EE7DF0DF6287
:1040D0000DD00F0405E0010E0F6408D07E6706D0F6
:1040E0007469FF0EFEEC21F070EC1FF0120087C027
:1040F0003FF088C040F089C041F074C042F086C0F3
:1041000043F085510F0B446E8A0E456ED6EC1CF0C1
:104110004A6E4A6601D0502A1200E8CF1EF077AFEF
:1041200002D0000E0FD01DC011F01CC012F01F0EE7
:10413000136E1E502FEC13F00009F3E01FAC1FAA02
:10414000F0D7010E120077C04BF00F0E4B164B0448
:104150000EE1745120EE7DF0DF6209D0800E856F94
:10416000866B876B886B030E896F77EC20F01200EB
:1041700077BF12D07B0E206E7C0E216E780E226EE1
:10418000770E236E7D0E246E790E0CEC1EF02E6ED3
:104190002E5002E00001778F120014C00AF015C003
:1041A0000BF00C6A0D6A960E0E6E000E0F6A19EC7B
:1041B0001CF00DC017F00CC016F00BC015F00AC0B3
:1041C00014F01200E8CF0BF0080E0C6E0D6AD890B8
:1041D0000B340D340D6ED8900B360A500D5C02E393
:1041E0000A500D5E0C2EF3D70D501200E8CF0EF0E2
:1041F0000EC00FF006D00F50D96EDA6A0AC0DFFF8A
:104200000F2A0C06D8A00D060C28D8B40D28D8B457
:104210001200F1D7E8CF4BF0830E0001856F070E37
:10422000866F886B140E876F090E896F8A6B4BC07F
:104230008BF0C6C08CF077EF20F0E8CF0FF0070EC0
:104240000F6401D00CD077EC22F00B0E0F240A6E15
:104250000B6A000E0B220EC00CF02BEC20F01200AB
:10426000E8CF0FF00F0E0F6401D00CD077EC22F0E6
:10427000130E0F240A6E0B6A000E0B220EC00CF0F8
:104280002BEC20F01200E8CF0FF0010E0F6401D0EC
:104290000CD077EC22F0020E0F240A6E0B6A000E8F
:1042A0000B220EC00CF02BEC20F0120000EE60F0A0
:1042B000520EEE6AE806FDE100EE4EF0090EEE6ADF
:1042C000E806FDE1000EF86E00012FEF1BF0E8CFCD
:1042D0004DF07F0E4D6406D0DBC048F04D50A2EC8F
:1042E0001AF005D0DBC04AF04D50F9EC15F0120081
:1042F00077510F0B020A0AE1745120EE7DF0DF6264
:1043000005D07EC074F07451FEEC21F01200810ED5
:104310000001856F866B876B886B020E896F74C096
:104320008AF077EC20F0010E526E010CE8CF0AF013
:104330000A507F0BD56ED76AD66AF2940AAE02D0C5
:10434000F28A01D0F29AD58E1200E8CF0FF077EC06
:1043500022F0060E0F240A6E0B6A000E0B220EC00E
:104360000CF02BEF20F0E8CF0EF00E0409E177EC13
:1043700022F00B6A0A6AFF0E0C682BEC20F0FF009B
:104380001200000E0C6E0C2A0CC0F6FF060EF76E23
:104390000800F5500A6E0B6A44EF22F0E8CF4AF0AD
:1043A0007F0E4A6404D04A5021EC15F003D04A50E5
:1043B00036EC14F01200E8CF0BF00B507D0F0A6EB4
:1043C0000AC0F6FF060EF76E0800F5501200E8CF9F
:1043D0000AF01F0E6F160A506F126F50E00B0A188A
:1043E000D8B41200FAD7040E8A6F8B6B8C6B030E55
:1043F0008D6F8E6B030E8F6F906B1200E8CF0EF0F7
:1044000077EC22F00B6A010E0A6E0EC00CF02BEF57
:1044100020F0000EF66E060EF76E0800F5500A6EDC
:104420000B6A44EF22F0E8CF0CF00B0E0C240A6E5E
:104430000B6A000E0B2244EF22F0E8CF0CF0060EC0
:104440000C240A6E0B6A000E0B2244EF22F0E8CF18
:104450000CF0130E0C240A6E0B6A000E0B2244EFB4
:1044600022F0E8CF0CF0020E0C240A6E0B6A000E4C
:104470000B2244EF22F00AC00CF00BC00DF00DC06F
:10448000D7FF0CC0D6FF12000AC0A9FFA69CA69EAB
:10449000A68000F000F0A850120001C003F002C096
:1044A00004F004C0D7FF03C0D6FF1200E8CF0AF023
:1044B0000AB08B9A0AB28B981200E8CF0AF00AB0C1
:1044C0008B8A0AB28B8812000A6A0B6A0C6A0D6A20
:1044D00012000A6A0B6A0C6A0D6A12000B6A010E5E
:1044E0000A6E44EF22F04FEC03F0BEEF1EF0A6A2DE
:1044F0001200FDD7526A12004FEF03F0C282120081
:10450000C28212001200050C080C010C000C000CF9
:04451000010C120088
:020000040020DA
:08000000FFFFFFFFFFFFFFFF00
:020000040030CA
:0E000000FF061C1EFF8281FF0FC00FE00F40A5
:00000001FF
