:04080000A8EF04F069
:10081800D8CF07F0E8CF08F0E0CF09F0F2A401D074
:1008280001D050D0FB0E026E1D0E016EF7EC23F0C6
:1008380000016A4B6B2B664B672B010E6027000E7D
:100848006123000E6223000E6323644B652BA34BC8
:10085800A42BA54BA62BA74BA82BA94BAA2B9B4B8C
:100868009C2B9D4B9E2B9F4BA02BA14BA22B82A078
:1008780001D001D002D0726B01D0722B562A52508F
:10088800020AD8A401D001D00ED0640E566401D05B
:1008980001D009D082A201D001D002D0829201D029
:1008A8008282566A0ED05204D8A401D001D003D057
:1008B8008282566A06D0526601D001D002D0829256
:1008C800566AF2949EAC01D001D037D01CD0C3CF69
:1008D80099F0C4CF9AF0050EC26E2CD0C3CF97F012
:1008E800C4CF98F0090EC26E25D0C3CF95F0C4CFFF
:1008F80096F00D0EC26E1ED0C3CF93F0C4CF94F005
:10090800010EC26E17D0C2503C0B056E066A065027
:10091800000AD8B401D0F4D70550000AD8B4D7D704
:10092800040AD8B4DBD70C0AD8B4DFD7040AD8B481
:10093800E3D7E6D72AEC24F09E9C09C0E0FF08C064
:10094800E8FF07C0D8FF100000EF23F043444546F6
:100958004748494A4B4C4D4E4F505152535455FFFE
:10096800FFFFFFFFFFFFFF565758595A5B5C5D5E5C
:100978005F606162636465666768696A6B6C6D6E07
:100988006F707172737475767778797A7B7C7D7EF7
:100998007F808182838485868788898AFF8B8C8D76
:1009A8008E8F90919293949495969798999A9B9CF0
:1009B8009D9E9FA0A1A2A3A4A5A6A7A8A9AAABACE7
:1009C800ADAEAFB0B1B2B3B4B57777772E65757207
:1009D8006F736F757263652E73652F76696C6E69B8
:1009E80075735F312E786D6C000021EC24F0540E85
:1009F800F66E090EF76E0800F5500A6E0B6A000EC7
:100A08000C6AD5EC21F021EC24F0540E466E462AEF
:100A180046C0F6FF090EF76E0800F5500A6E0B6A1D
:100A2800000E0C6AD5EC21F021EC24F0540E466E31
:100A3800020E462646C0F6FF090EF76E0800F5506E
:100A48000A6E0B6A010E0C6ED5EC21F021EC24F035
:100A5800540E466E030E462646C0F6FF090EF76E84
:100A68000800F5500A6E0B6A010E0C6ED5EC21F0E9
:100A780021EC24F0540E466E040E462646C0F6FFBE
:100A8800090EF76E0800F5500A6E0B6A020E0C6E1E
:100A9800D5EC21F021EC24F0540E466E050E4626C6
:100AA80046C0F6FF090EF76E0800F5500A6E0B6A8D
:100AB800020E0C6ED5EC21F021EC24F0540E466E9B
:100AC800060E462646C0F6FF090EF76E0800F550DA
:100AD8000A6E0B6A030E0C6ED5EC21F021EC24F0A3
:100AE800540E466E070E462646C0F6FF090EF76EF0
:100AF8000800F5500A6E0B6A030E0C6ED5EC21F057
:100B080021EC24F0540E466E080E462646C0F6FF29
:100B1800090EF76E0800F5500A6E0B6A040E0C6E8B
:100B2800D5EC21F021EC24F0540E466E090E462631
:100B380046C0F6FF090EF76E0800F5500A6E0B6AFC
:100B4800040E0C6ED5EC21F021EC24F0540E466E08
:100B58000A0E462646C0F6FF090EF76E0800F55045
:100B68000A6E0B6A050E0C6ED5EC21F021EC24F010
:100B7800540E466E0B0E462646C0F6FF090EF76E5B
:100B88000800F5500A6E0B6A050E0C6ED5EC21F0C4
:100B980021EC24F0540E466E0C0E462646C0F6FF95
:100BA800090EF76E0800F5500A6E0B6A060E0C6EF9
:100BB800D5EC21F021EC24F0540E466E0D0E46269D
:100BC80046C0F6FF090EF76E0800F5500A6E0B6A6C
:100BD800060E0C6ED5EC21F021EC24F0540E466E76
:100BE8000E0E462646C0F6FF090EF76E0800F550B1
:100BF8000A6E0B6A000E0C6AD5EC21F021EC24F089
:100C0800540E466E0F0E462646C0F6FF090EF76EC6
:100C18000800F5500A6E0B6A000E0C6AD5EC21F03C
:100C280021EC24F0540E466E100E462646C0F6FF00
:100C3800090EF76E0800F5500A6E0B6A000E0C6A72
:100C4800D5EC21F021EC24F0540E466E110E462608
:100C580046C0F6FF090EF76E0800F5500A6E0B6ADB
:100C6800000E0C6AD5EC21F021EC24F0540E466EEF
:100C7800120E462646C0F6FF090EF76E0800F5501C
:100C88000A6E0B6A000E0C6AD5EC21F00001B96BF4
:100C9800BA6B21EC24F0B9C046F01B0E462646502C
:100CA800540F476E47C0F6FF090EF76E0800F5505F
:100CB8000A6E0B6A000E0C6AD5EC21F021EC24F0C8
:100CC800B9C046F0370E46264650540F476E47C007
:100CD800F6FF090EF76E0800F5500A6E0B6A000E53
:100CE8000C6AD5EC21F021EC24F0B9C046F0230EB3
:100CF80046264650540F476E47C0F6FF090EF76E5A
:100D08000800F5500A6E0B6A000E0C6AD5EC21F04B
:100D180021EC24F0B9C046F02B0E46264650540F5D
:100D2800476E47C0F6FF090EF76E0800F5500A6EC9
:100D38000B6A000E0C6AD5EC21F021EC24F0B9C046
:100D480046F0470E46264650540F476E47C0F6FFFA
:100D5800090EF76E0800F5500A6E0B6A000E0C6A51
:100D6800D5EC21F00001B94BBA2BBA51800A800F9B
:100D7800080ED8B4B95D8DE3B36BB46B21EC24F0E5
:100D8800B3C046F03F0E46264650540F476E47C044
:100D9800F6FF090EF76E0800F5500A6E0B6AFF0E93
:100DA8000C68D5EC21F00001B34BB42BB451800A88
:100DB800800F080ED8B4B35DE1E321EC24F0540EA3
:100DC800466E330E462646C0F6FF090EF76E08003B
:100DD800F5500A6E0B6AC80E0C6ED5EC21F021ECAA
:100DE80024F0540E466E340E462646C0F6FF090E11
:100DF800F76E0800F5500A6E0B6AC80E0C6ED5EC3B
:100E080021F021EC24F0540E466E350E462646C0DD
:100E1800F6FF090EF76E0800F5500A6E0B6AC80E49
:100E28000C6ED5EC21F021EC24F0540E466E360EF3
:100E3800462646C0F6FF090EF76E0800F5500A6E02
:100E48000B6AC80E0C6ED5EC21F021EC24F0540E80
:100E5800466E4F0E462646C0F6FF090EF76E08008E
:100E6800F5500A6E0B6A000E0C6AD5EC21F021ECE5
:100E780024F0540E466E500E462646C0F6FF090E64
:100E8800F76E0800F5500A6E0B6A000E0C6AD5EC76
:100E980021F021EC24F0A50EF66E090EF76E08007D
:100EA800F5500A6E0B6A000E0C6AD5EC21F021ECA5
:100EB80024F0A50E466E030E462646C0F6FF090E20
:100EC800F76E0800F5500A6E0B6A000E0C6AD5EC36
:100ED80021F021EC24F0A50E466E060E462646C0EB
:100EE800F6FF090EF76E0800F5500A6E0B6A000E41
:100EF8000C6AD5EC21F021EC24F0A50E466E090E03
:100F0800462646C0F6FF090EF76E0800F5500A6E31
:100F18000B6A000E0C6AD5EC21F021EC24F0A50E2A
:100F2800466E462A46C0F6FF090EF76E0800F550D1
:100F38000A6E0B6A0A0E0C6ED5EC21F021EC24F037
:100F4800A50E466E040E462646C0F6FF090EF76E3D
:100F58000800F5500A6E0B6A0A0E0C6ED5EC21F0EB
:100F680021EC24F0A50E466E070E462646C0F6FF75
:100F7800090EF76E0800F5500A6E0B6A0A0E0C6E21
:100F8800D5EC21F021EC24F0A50E466E0A0E46267B
:100F980046C0F6FF090EF76E0800F5500A6E0B6A98
:100FA8000A0E0C6ED5EC21F021EC24F0A50E466E4D
:100FB800020E462646C0F6FF090EF76E0800F550E9
:100FC8000A6E0B6A100E0C6ED5EC21F021EC24F0A1
:100FD800A50E466E050E462646C0F6FF090EF76EAC
:100FE8000800F5500A6E0B6A100E0C6ED5EC21F055
:100FF80021EC24F0A50E466E080E462646C0F6FFE4
:10100800090EF76E0800F5500A6E0B6A100E0C6E8A
:10101800D5EC21F021EC24F0A50E466E0B0E4626E9
:1010280046C0F6FF090EF76E0800F5500A6E0B6A07
:10103800100E0C6ED5EC21F00001B66B0C0EB56FDE
:1010480021EC24F00001B551A50F466E46C0F6FF0D
:10105800090EF76E0800F5500A6E0B6A000E0C6A4E
:10106800D5EC21F00001B54BB62BB651800A800FA4
:101078002C0ED8B4B55DE4E321EC24F0A50E466E41
:101088000D0E462646C0F6FF090EF76E0800F5500D
:101098000A6E0B6A800E0C6ED5EC21F021EC24F060
:1010A800A50E466E0C0E462646C0F6FF090EF76ED4
:1010B8000800F5500A6E0B6A3F0E0C6ED5EC21F055
:1010C80021EC24F0A50E466E110E462646C0F6FF0A
:1010D800090EF76E0800F5500A6E0B6A800E0C6E4A
:1010E800D5EC21F021EC24F0A50E466E100E462614
:1010F80046C0F6FF090EF76E0800F5500A6E0B6A37
:101108003F0E0C6ED5EC21F021EC24F0A50E466EB6
:10111800150E462646C0F6FF090EF76E0800F55074
:101128000A6E0B6A800E0C6ED5EC21F021EC24F0CF
:10113800A50E466E140E462646C0F6FF090EF76E3B
:101148000800F5500A6E0B6A3F0E0C6ED5EC21F0C4
:1011580021EC24F0A50E466E190E462646C0F6FF71
:10116800090EF76E0800F5500A6E0B6A800E0C6EB9
:10117800D5EC21F021EC24F0A50E466E180E46267B
:1011880046C0F6FF090EF76E0800F5500A6E0B6AA6
:101198003F0E0C6ED5EC21F00001B76BB86B21EC5B
:1011A80024F00001B851B7C046F0476AD8904636D7
:1011B8004736D89046364736D8904636473646267C
:1011C800000E4722B60E46240A6E000E47200B6E0C
:1011D800000E0C6AD5EC21F00001B82B070EB8659B
:1011E800DED7B72B030EB765D9D715EF10F0E66B2E
:1011F800E76BE651020DF3CFDAF03F0EDA27DA514A
:10120800540FDB6FDBC0F6FF090EF76E0800F550D0
:101218000A6E0B6AEEEC23F00001DD6FDC6BE65121
:10122800020DF3CFDEF0400EDE27DE51540FDF6FE4
:10123800DFC0F6FF090EF76E0800F5500A6E0B6A5C
:10124800EEEC23F00001DC27000EDD23E651020D51
:10125800F350930FD96EDA6ADECFE0F0DDCFE1F01C
:10126800DC51E05DDD51E15943E221EC24F000015D
:10127800E651020DF3CFDAF03F0EDA27DA51540FB8
:10128800DB6FDBC0F6FF090EF76E0800F5500A6E3B
:101298000B6AE651020DF350930FD96EDA6ADECF6E
:1012A800DCF0DDCFDDF0DDC0DCF0DD6BDC510C6E99
:1012B800D5EC21F021EC24F00001E651020DF3CF2A
:1012C800DAF0400EDA27DA51540FDB6FDBC0F6FF95
:1012D800090EF76E0800F5500A6E0B6AE651020D0A
:1012E800F350930FD96EDA6ADF500C6ED5EC21F00B
:1012F8000001E651020DF350930FD96EDA6ADECF82
:10130800DAF0DDCFDBF0E651020DF3CFDCF0470E6B
:10131800DC27DC51540FDD6FDDC0F6FF090EF76ED8
:101328000800F5500A6E0B6AEEEC23F00001DF6F3F
:10133800DE6BE651020DF3CFE0F0480EE027E051F6
:10134800540FE16FE1C0F6FF090EF76E0800F55083
:101358000A6E0B6AEEEC23F00001DE27000EDF2395
:10136800DA51DE5DDB51DF5943E221EC24F0000164
:10137800E651020DF3CFDAF0470EDA27DA51540FAF
:10138800DB6FDBC0F6FF090EF76E0800F5500A6E3A
:101398000B6AE651020DF350930FD96EDA6ADECF6D
:1013A800DCF0DDCFDDF0DDC0DCF0DD6BDC510C6E98
:1013B800D5EC21F021EC24F00001E651020DF3CF29
:1013C800DAF0480EDA27DA51540FDB6FDBC0F6FF8C
:1013D800090EF76E0800F5500A6E0B6AE651020D09
:1013E800F350930FD96EDA6ADF500C6ED5EC21F00A
:1013F8000001E651020DF3CFDAF01C0EDA27DA51BC
:10140800540FDB6FDBC0F6FF090EF76E0800F550CE
:101418000A6E0B6AEEEC23F00001DC6FE651020D58
:10142800F3CFDDF01B0EDD27DD51540FDE6FDEC07C
:10143800F6FF090EF76E0800F5500A6E0B6AEEEC1F
:1014480023F00001E56FDC51E46FE51126E0E65179
:10145800020DF350A30FD96EDA6ADECFDAF0DDCFD2
:10146800DBF0DA51E45DDB51E55917E2E651020D94
:10147800F350A30FD96EDA6ADE6ADD6AE6C0C7F0F8
:10148800E651020DF350930FD96EDA6ADECFC8F039
:10149800DDCFC9F0020EBBEC21F0E6C0DAF00F0E8A
:1014A800DA27DA51540FDB6FDBC0F6FF090EF76E4F
:1014B8000800F5500A6E0B6AEEEC23F00001DC6FB1
:1014C800DCA3A3D0E651AF0FD96EDA6ADF5047E14B
:1014D800E651020DF3CFDAF0230EDA27DA51540F72
:1014E800DB6FDBC0F6FF090EF76E0800F5500A6ED9
:1014F8000B6AEEEC23F00001DD6FDC6BE651020DA8
:10150800F3CFDEF0240EDE27DE51540FDF6FDFC08D
:10151800F6FF090EF76E0800F5500A6E0B6AEEEC3E
:1015280023F00001DC27000EDD23E651020DF35005
:10153800930FD96EDA6ADECFE0F0DDCFE1F0DC514F
:10154800E05DDD51E15961E2E651AF0FD96EDA6A2B
:10155800010EDF6E4F80E651F2EC1FF056D0E651D7
:10156800020DF350930FD96EDA6ADECFDAF0DDCFD1
:10157800DBF0E651020DF3CFDCF0230EDC27DC5163
:10158800540FDD6FDDC0F6FF090EF76E0800F55049
:101598000A6E0B6AEEEC23F00001DF6FDE6BE6519A
:1015A800020DF3CFE0F0240EE027E051540FE16F75
:1015B800E1C0F6FF090EF76E0800F5500A6E0B6AD7
:1015C800EEEC23F00001DE27000EDF23E6C0E2F098
:1015D800330EE227E251540FE36FE3C0F6FF090E22
:1015E800F76E0800F5500A6E0B6AEEEC23F0000166
:1015F800DE27000EDF23DA51DE5DDB51DF5905E21D
:10160800E651AF0FD96EDA6ADF6AE6C0DAF00F0E7C
:10161800DA27DA51540FDB6FDBC0F6FF090EF76EDD
:101628000800F5500A6E0B6AEEEC23F00001DC6F3F
:10163800DCA5A4D0E651AB0FD96EDA6ADF5048E1D9
:10164800E651020DF350930FD96EDA6ADECFDAF065
:10165800DDCFDBF0E651020DF3CFDCF02B0EDC27FB
:10166800DC51540FDD6FDDC0F6FF090EF76E080080
:10167800F5500A6E0B6AEEEC23F00001DF6FDE6BAB
:10168800E651020DF3CFE0F02C0EE027E051540FA5
:10169800E16FE1C0F6FF090EF76E0800F5500A6E1B
:1016A8000B6AEEEC23F00001DE27000EDF23DA518F
:1016B800DE5DDB51DF5962E2E651AB0FD96EDA6AC3
:1016C800010EDF6E4F88E651800FF2EC1FF056D006
:1016D800E651020DF3CFDAF02B0EDA27DA51540F68
:1016E800DB6FDBC0F6FF090EF76E0800F5500A6ED7
:1016F8000B6AEEEC23F00001DD6FDC6BE651020DA6
:10170800F3CFDEF02C0EDE27DE51540FDF6FDFC083
:10171800F6FF090EF76E0800F5500A6E0B6AEEEC3C
:1017280023F00001DC27000EDD23E6C0E0F0330ED5
:10173800E027E051540FE16FE1C0F6FF090EF76EA4
:101748000800F5500A6E0B6AEEEC23F00001DC5F2E
:10175800000EDD5BE651020DF350930FD96EDA6A85
:10176800DECFE2F0DDCFE3F0DC51E25DDD51E3599D
:1017780005E2E651AB0FD96EDA6ADF6AE651020D6F
:10178800F3CFDAF0380EDA27DA51540FDB6FDBC00B
:10179800F6FF090EF76E0800F5500A6E0B6AEEECBC
:1017A80023F00001DC6FE651020DF3CFDDF0370EB8
:1017B800DD27DD51540FDE6FDEC0F6FF090EF76E30
:1017C8000800F5500A6E0B6AEEEC23F00001E56F95
:1017D800DC51E46FE51112E0E651020DF3509B0F66
:1017E800D96EDA6ADECFDAF0DDCFDBF0DA51E45D0C
:1017F800DB51E55903E2E6511AEC1BF0E64BE72B07
:10180800E751800A800F040ED8B4E65D01E2F1D4F6
:10181800540EDA6F4F0EDA27DAC0F6FF090EF76EAC
:101828000800F5500A6E0B6AEEEC23F00001DB6F3E
:10183800DBA95FD0540EDA6F4F0EDA27DAC0F6FF55
:10184800090EF76E0800F5500A6E0B6AEEEC23F0ED
:101858000001DB6FDBA14DD06C5124E082BA45D08A
:10186800540EDA6F4F0EDA27DAC0F6FF090EF76E5C
:101878000800F5500A6E0B6AEEEC23F00001DB6FEE
:10188800DBAD08D01E0EC76F060EC86F000E78ECD1
:101898001FF02BD0140EC76F040EC86F000E78EC23
:1018A8001FF023D082AA21D0540EDA6F4F0EDA2708
:1018B800DAC0F6FF090EF76E0800F5500A6E0B6ADB
:1018C800EEEC23F00001DB6FDBAD08D01E0EC76F16
:1018D800050EC86F000E78EC1FF007D0140EC76F06
:1018E800030EC86F000E78EC1FF0000E82BA010ECE
:1018F8006C6F540EDA6F4F0EDA27DAC0F6FF090E56
:10190800F76E0800F5500A6E0B6AEEEC23F0000142
:10191800DB6FDBAB5FD0540EDA6F4F0EDA27DAC01D
:10192800F6FF090EF76E0800F5500A6E0B6AEEEC2A
:1019380023F00001DB6FDBA34DD06D5124E082B8AA
:1019480045D0540EDA6F4F0EDA27DAC0F6FF090ECB
:10195800F76E0800F5500A6E0B6AEEEC23F00001F2
:10196800DB6FDBAF08D01E0EC76F060EC86F010E07
:1019780078EC1FF02BD0140EC76F040EC86F010E41
:1019880078EC1FF023D082A821D0540EDA6F4F0EC6
:10199800DA27DAC0F6FF090EF76E0800F5500A6E6E
:1019A8000B6AEEEC23F00001DB6FDBAF08D01E0EF4
:1019B800C76F050EC86F010E78EC1FF007D0140E24
:1019C800C76F030EC86F010E78EC1FF0000E82B8C7
:1019D800010E6D6F12007A51791101E1F0D220D316
:1019E80033EC24F01DD34DEC22F01AD322EC23F073
:1019F80017D309EC22F014D377510F0B020A01E038
:101A08000FD3745120EE7DF0DF620AD3800E7E6121
:101A180011D07E51E0EC15F08C6F7EC08BF0030E78
:101A2800866F820E856F876B886B0A0E896F21EC33
:101A380022F0F6D27E51CBEC16F00001EDD77751AB
:101A48000F0B030A01E0ECD2745120EE7DF0DF6247
:101A5800E7D2800E7E6106D07FC04AF07E51A3ECAB
:101A680017F0DAD77FC048F07E514CEC1CF0D4D781
:101A7800745120EE7DF0DF62D3D2000ED1EC23F05A
:101A880000017F1901E0CCD2030ED1EC23F0000154
:101A9800801901E0C5D2050ED1EC23F000018119AF
:101AA80001E0BED2070ED1EC23F00001821901E05B
:101AB800B7D26951831901E0B3D2685120EE84F09E
:101AC800DF62AED27E515DEC23F0AAD2000ED1ECDB
:101AD80023F000017E1973E1010ED1EC23F000011F
:101AE8007F196DE1020ED1EC23F00001801967E146
:101AF800030ED1EC23F00001811961E151885FD018
:101B0800040ED1EC23F000017E1959E1050ED1EC49
:101B180023F000017F1953E1060ED1EC23F00001F8
:101B280080194DE1070ED1EC23F00001811947E13E
:101B3800518A45D0080ED1EC23F000017E193FE10F
:101B4800090ED1EC23F000017F1939E10A0ED1EC1E
:101B580023F00001801933E10B0ED1EC23F00001D2
:101B680081192DE1518C2BD00C0ED1EC23F0000102
:101B78007E1925E10D0ED1EC23F000017F191FE13C
:101B88000E0ED1EC23F00001801919E10F0ED1ECF3
:101B980023F00001811913E1518E11D0516A0FD041
:101BA8007D390F0BDD6FDE6BDE51F8E1DD518EE024
:101BB800010AA6E0030ABEE0010AD6E0EFD75150B9
:101BC800F00BF00A01E02CD21AEC21F029D2745162
:101BD80020EE7DF0DF6224D2E96B7EC0E8F07FC0A2
:101BE800EBF0F76B4AD0E851F72578EC23F00001C9
:101BF800DD6F070E0A6EF7518CEC22F00001DE6FE4
:101C0800DE518C0FD96EDA6ADDC0DFFF070E0A6E6F
:101C1800F7518CEC22F0060A0BE0FF0E0001EB25D1
:101C2800DD6FDE6BFF0EDE23F751DD19DE1124E1D7
:101C3800070E0A6E0001F7518CEC22F0060A03E148
:101C4800070E000109D0070E0A6E0001F7518CEC4F
:101C580022F00001DD6FDD29EA6FEA51810F856FFF
:101C6800070E866F876B886B1A0E896FE9C08BF039
:101C780021EC22F00001E92BF72BEB51F75D01E392
:101C8800CFD1B1D7745120EE7DF0DF62C9D17EC0CB
:101C9800ECF07751FE0F070BED6FF26B17D0F25196
:101CA8007F0FD96EDA6ADF50DC6FEC51F22511EC48
:101CB80023F0EC51F22578EC23F00001DD6FF251AE
:101CC8008C0FD96EDA6ADDC0DFFFF22BED51F25DC1
:101CD800E6E3070E866F876B886B1A0E896F8B6B2E
:101CE800ED51810F856FA3D6745120EE7DF0DF6230
:101CF80097D17E51E0EC15F0DD6FDD294A6E7E51FB
:101D0800A3EC17F089D6745120EE7DF0DF6288D1FC
:101D18007E51E0EC15F0DD6FDD054A6E7E51A3ECD7
:101D280017F07AD67D51741903E07D2901E078D146
:101D3800F16B030E866F880E856F876B886B200E9C
:101D4800896FF66BF6C08BF0010EF86FF8518B0FA8
:101D5800D96EDA6AF1510F08D1EC23F0DF6E000179
:101D6800F12B100EF16501D004D0F82B070EF865A1
:101D7800EDD7100EF16501D007D021EC22F000015B
:101D8800F62B020EF665DED7F86BF85185EC23F0DA
:101D9800000908E0F8518E0FD96EDA6AF85185EC1F
:101DA80023F005D0F8518E0FD96EDA6A000EDF6E77
:101DB800F82B040EF865E9D721EC22F0050E000196
:101DC800F16F030EF66FF6C08BF0010EF86FF85145
:101DD8008B0FD96EDA6AF15185EC23F0DF6EF12BA7
:101DE800F82B070EF865F3D721EC22F00001F62B4B
:101DF800060EF665E8D714D1745120EE7DF0DF6247
:101E08000FD1030E866F870E856F876B886B220E46
:101E1800896F8B0E9DEC23F00AD6745120EE7DF06D
:101E2800DF62FED0F36B77C0DDF00F0EDD17040E16
:101E3800DD5D12E381C0F4F0F56BF551F41103E1B7
:101E4800010EF56FF46B010EF45D010EF55907E311
:101E5800010EF56F000E02D0F56B010EF46F68C02D
:101E6800E4F069C0E5F07F517EC0DDF0DE6BDDC0D7
:101E7800DEF0DD6BDD11686FDE51696F070E866F6E
:101E8800876B886B270E896F8B6B7EC08CF07FC049
:101E98008DF0F351F45DDD6F000EF559DE6F040E21
:101EA800DD5D000EDE5902E3040E02D0F351F45D4D
:101EB800EE6FEE51840F856F8051F3258E6FEF6BB7
:101EC8000ED08051F325EF2578EC23F00001DD6F6B
:101ED800EF518F0FD96EDA6ADDC0DFFFEF2BEE51BD
:101EE800EF5DEFE321EC22F00001EE51F3278B2B9D
:101EF800F351DD6FDE6BF451DD5DF551DE59C9E359
:101F0800E4C068F0E5C069F08BD0745120EE7DF034
:101F1800DF6286D068C0E6F069C0E7F07F517EC016
:101F2800DDF0DE6BDDC0DEF0DD6BDD11686FDE51EC
:101F3800696F80C0F0F013D080518108F025D96E08
:101F4800DA6ADF50DC6FF05111EC23F0DD6F80515D
:101F58008F08F025D96EDA6ADDC0DFFFF02B7751E4
:101F68000F0BDD6FDE6B8051DD27000EDE23FC0ECC
:101F7800DD25DF6FFF0EDE21E06FF051E16FE26BD0
:101F8800E251800AE36FDF51E15DE051800AE359D5
:101F9800D3E3E6C068F0E7C069F0070E866F7751B3
:101FA8000F0B800F856F876B886B270E896F8B6B84
:101FB8007EC08CF07FC08DF080C08EF038D57B510C
:101FC800010A01E10DD5030A01E10DD5040A01E179
:101FD8000DD50E0A01E10DD5010A01E10DD5020A60
:101FE80001E12DD5070A01E143D51B0A01E1D8D546
:101FF8000F0A01E1ECD5010A01E144D6040A01E126
:1020080073D6030A01E17FD6010A01E18BD63E0AA5
:1020180001E1F2D6040A01E100D7030A01E175D70C
:102028001200386839683A683B683C6A3D6A3E6A1B
:102038003F6A456A4550146E156AD89014361536AD
:10204800D89014361536D89014361536440E142404
:102058000A6E000E15200B6EEEEC23F0166E16AE0F
:10206800E8D14550146E156AD89014361536D890B4
:1020780014361536D89014361536470E14240A6EC1
:10208800000E15200B6EEEEC23F0166E16C017F03E
:10209800186A196A1A6A19C01AF018C019F017C014
:1020A80018F0176A45501B6E1C6AD8901B361C36F0
:1020B800D8901B361C36D8901B361C36450E1B2470
:1020C8000A6E000E1C200B6EEEEC23F01D6E1DC078
:1020D8001EF01F6A206A216A1FC021F01EC020F06E
:1020E8001F6A1E6A4550226E236AD890223623360C
:1020F800D89022362336D89022362336440E22240E
:102108000A6E000E23200B6EEEEC23F0246E020EF6
:10211800241624C025F0266A276A286A170ED89044
:102128002536263627362836E82EF9D71E502510AC
:10213800296E1F5026102A6E205027102B6E215012
:1021480028102C6E175029102D6E18502A102E6E3C
:1021580019502B102F6E1A502C10306EFF0E2D10A8
:10216800336E2E50346E2F50356E3050366E4550CB
:10217800146E156AD89014361536D890143615365C
:10218800D89014361536480E14240A6E000E152001
:102198000B6EEEEC23F0166E16C017F0186A196A6B
:1021A8001A6A19C01AF018C019F017C018F0176A7F
:1021B80045501B6E1C6AD8901B361C36D8901B36AF
:1021C8001C36D8901B361C36460E1B240A6E000E91
:1021D8001C200B6EEEEC23F01D6E1DC01EF01F6A56
:1021E800206A216A1FC021F01EC020F01F6A1E6AE3
:1021F8004550226E236AD89022362336D89022364C
:102208002336D89022362336440E22240A6E000E36
:1022180023200B6EEEEC23F0246E010E241624C04E
:1022280025F0266A276A286A25C028F0276A266AC0
:10223800256A1E502510296E1F5026102A6E205020
:1022480027102B6E215028102C6E175029102D6E38
:1022580018502A102E6E19502B102F6E1A502C1051
:10226800306E4550316E326AD89031363236D89059
:1022780031363236D89031363236430E31240A6E32
:10228800000E32200B6EEEEC23F02D10406E2E5017
:10229800416E2F50426E3050436E456608D040C0A4
:1022A8003CF041C03DF042C03EF043C03FF03350E7
:1022B80038163450391635503A1636503B16446A9B
:1022C800445040C014F041C015F042C016F043C05D
:1022D80017F0E82A05D0D890173216321532143282
:1022E800E82EF9D7010E141644503CC018F03DC032
:1022F80019F03EC01AF03FC01BF0E82A05D0D8906C
:102308001B321A3219321832E82EF9D71850010B3D
:1023180014181DE044C014F0010E156E166A142A34
:1023280003D0D89015361636142EFBD7151C176E09
:10233800161C186E196A18BE190619501A6E17500D
:1023480038161850391619503A161A503B16442A9E
:102358001F0E4464B5D740503C1641503D164250BC
:102368003E1643503F1645504FE0446A45C014F0AE
:102378004550156E166AD89015361636D89015360B
:102388001636D89015361636430E15240A6E000EEA
:1023980016200B6EEEEC23F0176E142A02D0D8909C
:1023A8001732142EFCD7010E171645C018F037C087
:1023B80019F0182A02D0D8901932182EFCD71950C3
:1023C800010B17181DE045C014F0010E156E166AB2
:1023D800142A03D0D89015361636142EFBD715C0FC
:1023E80017F016C018F0000E18BEFF0E196E1A6E00
:1023F800175038161850391619503A161A503B16F5
:10240800442A070E4464B2D74550146E156AD89012
:1024180014361536D89014361536D8901436153625
:10242800430E14240A6E000E15200B6EEEEC23F0FA
:10243800376E452A030E4564FDD5800E91EC23F0D6
:102448000F010F0E0B6E1C0E0A6E38C00CF039C04F
:102458000DF03AC00EF03BC00FF0010E106E72EC9A
:102468001AF00D01D4830F010F0E0B6E040E0A6EC5
:102478003CC00CF03DC00DF03EC00EF03FC00FF068
:10248800010E106E72EC1AF0000E91EF23F07A51E3
:10249800791101E16DD1F56BF551EB6FEC6BD890CB
:1024A800EB37EC37D890EB37EC37D890EB37EC3785
:1024B800B60EEB250A6E000EEC210B6EEEEC23F047
:1024C8000001F46FF4AF4FD1F4AD18D0F551EB6FB4
:1024D800EC6BD890EB37EC37D890EB37EC37D890DB
:1024E800EB37EC37B60EEB250A6E000EEC210B6EBF
:1024F800EEEC23F000017C1901E035D1F4A910D0ED
:102508007E290EE0540EF66E090EF76E0800F5509F
:102518000A6E0B6AEEEC23F000017E1901E023D16C
:10252800F4A713D07F2911E0540EEB6FEB2BEBC00F
:10253800F6FF090EF76E0800F5500A6E0B6AEEEC0E
:1025480023F000017F1901E00ED1F551080DB90EF5
:10255800F3240A6E000EF4200B6EEEEC23F000015B
:10256800EB6FF451010BED6FEC6BEB51EC25EE6F5B
:10257800000EED21EF6FF551080DB80EF3240A6E29
:10258800000EF4200B6EEEEC23F00001EB6FF4511B
:10259800020BEC6FED6B070ED890EC37ED37E82E99
:1025A800FBD7EB51EC25F06F000EED21F16FF551E3
:1025B800EB6FEC6BD890EB37EC37D890EB37EC3708
:1025C800D890EB37EC37BB0EEB250A6E000EEC21EA
:1025D8000B6EEEEC23F00001F26FF551EB6FEC6B34
:1025E800D890EB37EC37D890EB37EC37D890EB37FF
:1025F800EC37BA0EEB250A6E000EEC210B6EEEECF2
:1026080023F00001F36F20EE79F0DECFEBF0DDCFA1
:10261800ECF0EE51EB1BEF51EC1BF051EB17F151C5
:10262800EC17EC51EB1101E09ED07B51F219F31538
:1026380079E099D00001F551EB6FEC6BD890EB374E
:10264800EC37D890EB37EC37D890EB37EC37BD0E3A
:10265800EB250A6E000EEC210B6EEEEC23F007EC76
:1026680024F081D00001F551EB6FEC6BD890EB377B
:10267800EC37D890EB37EC37D890EB37EC37BD0E0A
:10268800EB250A6E000EEC210B6EEEEC23F000EC4D
:1026980024F069D00001F551EB6FEC6BD890EB3763
:1026A800EC37D890EB37EC37D890EB37EC37BD0EDA
:1026B800EB250A6E000EEC210B6EEEEC23F09FEC7E
:1026C80021F051D00001F551EB6FEC6BD890EB374E
:1026D800EC37D890EB37EC37D890EB37EC37BD0EAA
:1026E800EB250A6E000EEC210B6EEEEC23F0F6ECF7
:1026F80020F039D00001F551EB6FEC6BD890EB3737
:10270800EC37D890EB37EC37D890EB37EC37BD0E79
:10271800EB250A6E000EEC210B6EEEEC23F060EC5C
:1027280021F021D0F551EB6FEC6BD890EB37EC37FB
:10273800D890EB37EC37D890EB37EC37BC0EEB255D
:102748000A6E000EEC210B6EEEEC23F0000A0BE093
:10275800010A01E16FD7030A85E0010A9BE0070A35
:10276800B1E0010AC7E00001F52B030EF56594D628
:102778001200E8CFC3F0C351040DF3CF46F00F0E9B
:1027880046264650A50F476E47C0F6FF090EF76E5E
:102798000800F5500A6E0B6AEEEC23F00001BF6FDB
:1027A800C351040DF3CF46F00E0E46264650A50F32
:1027B800476E47C0F6FF090EF76E0800F5500A6E1F
:1027C8000B6AEEEC23F00001C06FC351040DF3CF88
:1027D80046F00D0E46264650A50F476E47C0F6FF39
:1027E800090EF76E0800F5500A6E0B6AEEEC23F03E
:1027F8000001C16FC351040DF3CF46F00C0E4626FD
:102808004650A50F476E47C0F6FF090EF76E080041
:10281800F5500A6E0B6AEEEC23F00001C26FBFC0E0
:10282800B3F0C0C0B4F0C1C0B5F0C2C0B6F0C35177
:10283800040DF3CF46F01F0E46264650A50F476EEF
:1028480047C0F6FF090EF76E0800F5500A6E0B6ACE
:10285800EEEC23F00001BF6FC351040DF3CF46F037
:102868001E0E46264650A50F476E47C0F6FF090EB6
:10287800F76E0800F5500A6E0B6AEEEC23F00001C3
:10288800C06FC351040DF3CF46F01D0E46264650C7
:10289800A50F476E47C0F6FF090EF76E0800F55002
:1028A8000A6E0B6AEEEC23F00001C16FC351040DF0
:1028B800F3CF46F01C0E46264650A50F476E47C07C
:1028C800F6FF090EF76E0800F5500A6E0B6AEEEC7B
:1028D80023F00001C26FBFC0B7F0C0C0B8F0C1C0DC
:1028E800B9F0C2C0BAF0B3C01CF0B4C01DF0B5C096
:1028F8001EF0B6C01FF0C351020DF350930FD96EEE
:10290800DA6ADECF14F0DDCF15F077EC22F017C0CD
:102918001BF016C01AF015C019F014C018F05BECC3
:102928001DF01BC0BEF01AC0BDF019C0BCF018C025
:10293800BBF02B6AC00E2C6E7F0E2D6E440E2E6ED1
:102948001C6A1D6AA00E1E6E400E1F6EBBC018F0DA
:10295800BCC019F0BDC01AF0BEC01BF05BEC1DF086
:102968001BC02AF01AC029F019C028F018C027F097
:10297800D9EC1EF02AC039F029C038F028C037F049
:1029880027C036F0B7C03AF0B8C03BF0B9C03CF049
:10299800BAC03DF0C2EC19F039C045F038C044F077
:1029A80037C043F036C042F01200E8CF16F04E6A46
:1029B8007750C00B186E186632D060AE12D0A49053
:1029C80074AE06D01350D96EDA6A000EDB86749E98
:1029D80060A002D04E8001D04E900F0E1B6E600E8C
:1029E8001AD00F0150AF19D0A49274AC06D013506E
:1029F800D96EDA6A000EDB86749C5051070B4E6E56
:102A0800020E4E6005D01350D96EDA6A000EDB8EC6
:102A18000F0E1B6E500E1A6E65D0000ECCD01850DB
:102A2800400A46E160AE04D00F0E1B6E600E3ED029
:102A38000F0150AF04D00F0E1B6E500E37D00D0192
:102A4800F8B507D00E0120AF04D00E0E1B6E200E75
:102A58002DD00D01F8B707D00E0130AF04D00E0EFF
:102A68001B6E300E23D00D01F8B907D00E0140AF10
:102A780004D00E0E1B6E400E19D00D01F8BB05D008
:102A88000E0150AF02D00E0ED7D70D01F8BD05D0FC
:102A98000E0160AF02D00E0EC8D70D01F8BFBDD72A
:102AA8000E0170AFBAD70E0E1B6E700E1A6E0AD0DA
:102AB80074AEB3D76F50070B2DEC20F00AC01AF094
:102AC8000BC01BF01AC0D9FF1BC0DAFFDF501F0B69
:102AD8004E6EA49274AC06D01350D96EDA6A000E0A
:102AE800DB86749C1AC014F01BC015F01350D96E05
:102AF800DA6ADF6A20EE05F01A50D9261B50DA226E
:102B0800DF50196E1250D96EDA6A19500F0BDF6E4A
:102B180019AC05D01350D96EDA6A000EDB8C20EEA2
:102B280002F01A50D9261B50DA22DF50196E19A666
:102B380008D01350D96EDA6A000EDB8A010E196EBE
:102B480001D0196A1A280A6E000E1B200B6E16C0D7
:102B58000CF019C00DF010EC19F0060E1A26000E34
:102B68001B221250D96EDA6ADF50196E176A0DD01F
:102B78001AC0D9FF1BC0DAFF1150E16EE26ADFCF3D
:102B8800E7FF1A4A1B2A112A172A1950175CF0E383
:102B9800A4AE06D01350D96EDA6A000EDB88A49E64
:102BA80014C0D9FF15C0DAFF7F0EDF161850800A4F
:102BB800D8B4749E010E1200E8CFD9F0D86B6951D1
:102BC800681153E1130ED9610ED0D951540F486ED4
:102BD80048C0F6FF090EF76E0800F5500A6E0B6A3A
:102BE800EEEC23F0D0D0D951130A02E19451CCD0A5
:102BF800D951140A03E193C0D8F0C7D0D951150AA6
:102C080002E19651C1D0D951160A03E195C0D8F016
:102C1800BCD0D951170A02E19851B6D0D951180A37
:102C280003E197C0D8F0B1D0D951190A02E19A51FD
:102C3800ABD0D9511A0A03E199C0D8F0A6D01A0E20
:102C4800D96504D0500ED96101D0BFD7D951500AE7
:102C580001E09BD08238E832010B486E8238010BC4
:102C6800496ED890493448108FD0680569117CE1C5
:102C78002C0ED9610ED0D951A50F486E48C0F6FF69
:102C8800090EF76E0800F5500A6E0B6AEEEC23F099
:102C98007AD02B0ED96517D0300ED96114D0000E1A
:102CA800BDEC13F045C0C7F044C0C6F043C0C5F042
:102CB80042C0C4F00001C40ED46FD451D925D96ED6
:102CC800DA6AD40E4DD02F0ED96517D0340ED961DB
:102CD80014D0010EBDEC13F045C0CBF044C0CAF0CF
:102CE80043C0C9F042C0C8F00001C80ED56FD55125
:102CF800D925D96EDA6AD00E33D0330ED96517D0FC
:102D0800380ED96114D0020EBDEC13F045C0CFF0D7
:102D180044C0CEF043C0CDF042C0CCF00001CC0E90
:102D2800D66FD651D925D96EDA6ACC0E19D0370E9E
:102D3800D9652BD03C0ED96128D0030EBDEC13F019
:102D480045C0D3F044C0D2F043C0D1F042C0D0F067
:102D58000001D00ED76FD751D925D96EDA6AC80EBF
:102D6800D926DA6ADF5010D06851020A69110DE1DC
:102D7800200ED9610AD0B60ED9250A6E0B6A000E4C
:102D88000B22EEEC23F00001D86FD8511200E8CFE7
:102D98001EF01D6A1E50800A04E14FC01DF04F6AE4
:102DA800CCD01E50810A02E1010E82D01E50820A48
:102DB80002E1060E7DD01E50830A03E150C01DF0CB
:102DC800BCD01E50940A03E132EC24F071D01E509E
:102DD800950A03E131EC24F06BD01E50960A03E10A
:102DE80030EC24F065D0890E1E6005D01E507C0F93
:102DF800C7EC23F05DD0880E1E6408D0910E1E60CB
:102E080005D01E50770FBDEC23F052D01E50910A0A
:102E180003E174C01DF091D01E50930A03E168C00D
:102E28001DF08BD01E50920A02E1695141D01E500C
:102E3800970A03E12FEC24F03BD01E50980A03E1D7
:102E48002EEC24F035D01E50990A03E12DEC24F025
:102E58002FD0990E1E642ED09E0E1E602BD013EC20
:102E680024F00DC016F00CC015F00BC014F00AC009
:102E780013F01E50660F1B6E1B5003080E6ED89081
:102E88000E36D8900E36D8900E360E5013C00FF06E
:102E980014C010F015C011F016C012F0E82A05D0C1
:102EA800D8901232113210320F32E82EF9D730D0C2
:102EB8001D6E43D09D0E1E642DD0A20E1E602AD01A
:102EC8000EEC24F00DC01AF00CC019F00BC018F06D
:102ED8000AC017F01E50620F1C6E1C5003080E6EBD
:102EE800D8900E36D8900E36D8900E360E5017C0A1
:102EF8000FF018C010F019C011F01AC012F0E82A2B
:102F080005D0D8901232113210320F32E82EF9D78C
:102F18000F50CED7CF0E1E6408D0E00E1E6005D02D
:102F28001E50300FD1EC23F0C3D7DF0E1E6405D03E
:102F38001E50200F85EC23F0BBD71D501200E8CFA0
:102F4800DBF04A1CDA6F6951681169E1130EDB6125
:102F580021D021EC24F00001DB51540F4B6E4BC003
:102F6800F6FF090EF76E0800F5500A6E0B6A4AC0A4
:102F78000CF0D5EC21F00001DB51540F4B6E4BC027
:102F8800F6FF090EF76E0800F5500A6E0B6AEEECB4
:102F980023F08BD0120EDB6504D04F0EDB6101D01D
:102FA800D8D7DB514F0A18E14AC04BF0010E4B1637
:102FB8004B3A4B4694504B18DF0B4B18946E4AC053
:102FC8004BF0D8904B32010E4B164B3A94504B189D
:102FD800EF0B4B18946EBDD7DB51500A68E1010E18
:102FE8004AA0000E4B6E4B3A4B468B504B18DF0BEA
:102FF8004B188B6E010E4AA2000E4B6E4B3A8B504B
:103008004B18EF0B4B188B6E8238E832010B4B6E66
:103018008238010B4C6ED8904C344B1047D0680561
:10302800691124E12C0EDB6142D021EC24F000016F
:10303800DB51A50F4B6E4BC0F6FF090EF76E08006B
:10304800F5500A6E0B6A4AC00CF0D5EC21F000016D
:10305800DB51A50F4B6E4BC0F6FF090EF76E08004B
:10306800F5500A6E0B6AEEEC23F01FD06851030A84
:1030780069111DE1200EDB611AD021EC24F0B60E97
:103088000001DB250A6E0B6A000E0B224AC00CF009
:10309800D5EC21F015EC10F0B60E0001DB250A6E18
:1030A8000B6A000E0B22EEEC23F00001DA6FDA5106
:1030B80012000F0E1D6E400E1C6E0F0E1F6E300E8E
:1030C8001E6E0F0E216E200E206E0E0E236E200E29
:1030D800226E0E0E256E300E246E0E0E276E400EDA
:1030E800266E0E0E296E500E286E0E0E2B6E600E7A
:1030F8002A6E0E0E2D6E700E2C6E7750C00B2E6E33
:103108002E6602D0020E01D0080E2F6E0D01D89047
:10311800F831316E356A7BD03550020DF3501C0FF3
:10312800D96EDA6ADECF36F0DDCF37F036C032F04E
:1031380037C033F0020E356404D0D890313231A054
:1031480065D036C0D9FF37C0DAFFDF501B6E1BB61B
:103158005DD036C0D9FF37C0DAFFFC0EDF161AC0C3
:103168001BF0030E1B1636C0D9FF37C0DAFF1B5001
:10317800DF121AAC04D019504009346E02D019C0BD
:1031880034F020EE05F03650D9263750DA2234C014
:10319800DFFF1AAA03D0010E346E01D0346A362834
:1031A8000A6E000E37200B6E14C00CF015C00DF01F
:1031B80016C00EF017C00FF034C010F072EC1AF001
:1031C800060E3626000E3722306A0DD01850D96EFA
:1031D800DA6A36C0E1FF37C0E2FFDFCFE7FF182A1F
:1031E800364A372A302A1950305CF0E332C0D9FF0A
:1031F80033C0DAFFDF501B6E1BB406D032C0D9FFD4
:1032080033C0DAFF000EDB86010E05D0352A2F50B9
:10321800355C82E3000E12000CC010F00D6646D03B
:103228001050D96EDA6A0AC0E1FF0BC0E2FFE7501E
:103238000E6ED8900E36D8900E36D8900E34DF6EBB
:103248001050D96EDA6AD92ADA6A0AC0E1FF0BC0CF
:10325800E2FFE7500E6E050E0F6ED8900E320F2E5D
:10326800FCD70E50DF6E0A4A0B2A0AC0D9FF0BC0E2
:10327800DAFFDF500E6E050E0F6ED8900E320F2E4D
:10328800FCD71050D96EDA6A0E50DF121050D96E82
:10329800DA6A020ED926DA6ADF6A1050D96EDA6A5B
:1032A800030ED926DA6A000EDF6E67D01050D96E89
:1032B800DA6A020ED926DA6A0AC0E1FF0BC0E2FF19
:1032C800E7500E6E050E0F6ED8900E360F2EFCD7F7
:1032D8000E50DF6E1050D96EDA6A030ED926DA6AFC
:1032E8000AC0E1FF0BC0E2FFE7500E6ED8900E3225
:1032F800D8900E32D8900E30DF6E0A4A0B2A0AC0D8
:10330800D9FF0BC0DAFFDF500E6E030E0E161050F9
:10331800D96EDA6A020ED926DA6A0E50DF120AC0AE
:10332800D9FF0BC0DAFFDF500E6ED8900E32D8905E
:103338000E32D8900E321C0E0E161050D96EDA6A64
:10334800020ED926DA6A0E50DF120A4A0B2A0AC080
:10335800D9FF0BC0DAFF1050E16EE26AE12AE26A97
:10336800DFCFE7FF0A4A0B2A0AC0D9FF0BC0DAFFF2
:103378001050E16EE26ADFCFE7FF120038343934CB
:10338800416E3C343D34406E415009E0405041604C
:103398000FD04150405C3E6E210E3E5C09E33AC0BE
:1033A80036F03BC037F03CC038F03DC039F095D01E
:1033B800405009E0415040600FD04050415C3E6EA3
:1033C800210E3E5C09E336C036F037C037F038C00E
:1033D80038F039C039F081D0060E3F6E39BE3F8EC5
:1033E8003DBE3F8C388E396A3C8E3D6A4050416004
:1033F80018D0D8903A363B363C363D3640064050D9
:1034080041180BE03F063F50070B07E0F2D7D89072
:103418003932383237323632412A40504162F7D792
:103428001AD04150406017D0D890363637363836E3
:1034380039364106405041180BE03F063F50070B14
:1034480007E0F2D7D8903D323C323B323A32402A3C
:1034580040504162F7D73FAE09D0361E371E381E9E
:10346800391E362A000E3722382239223FAC09D0BD
:103478003A1E3B1E3C1E3D1E3A2A000E3B223C22B1
:103488003D223F6A36503A2637503B2238503C227C
:1034980039503D223DAE0BD03A1E3B1E3C1E3D1E10
:1034A8003A2A000E3B223C223D22010E3F6E3AC0D2
:1034B8000AF03BC00BF03CC00CF03DC00DF041C021
:1034C8000EF03FC00FF0C3EC1DF00DC039F00CC07A
:1034D80038F00BC037F00AC036F012000C0E136E2D
:1034E800106637D01350D96EDA6ADF50116ED89053
:1034F8001132D8901132D89011300AC0D9FF0BC0C0
:10350800DAFFDF6E1350D96EDA6AD92ADA6ADF5029
:10351800116E050E126ED8901136122EFCD70AC005
:10352800D9FF0BC0DAFF1150DF120A4A0B2A1350D9
:10353800D96EDA6ADF50116E050E126ED890113608
:10354800122EFCD711500AC0D9FF0BC0DAFFDF6E6C
:103558006CD01350D96EDA6A020ED926DA6ADF50B7
:10356800116E050E126ED8901132122EFCD7115022
:103578000AC0D9FF0BC0DAFFDF6E1350D96EDA6AC2
:10358800030ED926DA6ADF50116ED8901136D8901A
:103598001136D89011360AC0D9FF0BC0DAFF115086
:1035A800DF120A4A0B2A1350D96EDA6A020ED9269C
:1035B800DA6ADF50116ED8901136D8901136D8904B
:1035C8001134E00B0AC0D9FF0BC0DAFFDF6E0AC066
:1035D800D9FF0BC0DAFF000EDB861350D96EDA6A0A
:1035E800020ED926DA6ADF50116E030E11160AC0D0
:1035F800D9FF0BC0DAFF1150DF120A4A0B2A135009
:10360800D96EDA6AD92ADA6A0AC0E1FF0BC0E2FF8A
:10361800DFCFE7FF0A4A0B2A1350D96EDA6A0AC0CD
:10362800E1FF0BC0E2FFDFCFE7FF1200E8CFD9F0E0
:10363800D951020DF3509B0FD96EDA6ADE6ADD6A42
:10364800D951BDEC13F045C0D7F044C0D6F043C003
:10365800D5F042C0D4F00001D951030DF350A50FA5
:103668004A6E4AC0F6FF090EF76E0800F5500A6E5A
:103678000B6AEEEC23F0180BA0090001D925C76FDF
:10368800D40ED86FD851D96EDA6A030ED926DA6A01
:10369800DF50CB6FD851D96EDA6A020ED926DA6AB2
:1036A800DF50CA6FD851D96EDA6AD92ADA6ADF5080
:1036B800C96FD851D96EDA6ADF50C86FD951030D76
:1036C800F350A50F4A6E4AC0F6FF090EF76E0800C0
:1036D800F5500A6E0B6AEEEC23F04B6E4BBC04D02F
:1036E8000001D26BD36B04D0020E0001D36FD26BF2
:1036F800D951030DF3CF4AF04A2A4A50A50F4B6E11
:103708004BC0F6FF090EF76E0800F5500A6E0B6AFB
:10371800EEEC23F00001D225CF6F000ED321D06F3D
:10372800D951030DF3CF4AF0020E4A264A50A50F8D
:103738004B6E4BC0F6FF090EF76E0800F5500A6E87
:103748000B6AEEEC23F00001D16FCFC03FF0D0C080
:1037580040F0D1C041F074C042F0030E436E050E34
:10376800446EC70E456E80EF1EF0E8CFE2F0DF6BC7
:10377800E06BE16BDA290DE0540EF66E090EF76E78
:103788000800F5500A6E0B6AEEEC23F00001DA1916
:103798007EE1DB2910E0540E4C6E4C2A4CC0F6FF3B
:1037A800090EF76E0800F5500A6E0B6AEEEC23F06E
:1037B8000001DB196CE1E251F00BF00A04E1010EA3
:1037C800DF6FE06FE16FDF5127E0E56BE66BE5C087
:1037D8004CF0010E4D6E4C2A02D0D8904D364C2E2E
:1037E800FCD74D50E2150FE0E5C0C7F0E551020DDA
:1037F800F350930FD96EDA6ADECFC8F0DDCFC9F087
:10380800020EBBEC21F0E54BE62BE651800A800F57
:10381800040ED8B4E55DDBE3E0511BE0E36BE46B39
:10382800E3C04CF0010E4D6E4C2A02D0D8904D36B4
:103838004C2EFCD74D50E21503E0E3511AEC1BF077
:10384800E34BE42BE451800A800F040ED8B4E35D07
:10385800E7E3E1511CE0300EDC6FDD6B8238E832C3
:10386800010B4C6E8238010B4D6ED8904D344C10C4
:10387800DE6F406A0F0E3F6E010E416E74C042F05B
:10388800030E436E446EDC0E456E80EC1EF0120093
:10389800E8CFBCF0481CBB6FBC51830A02E1506AF8
:1038A80081D0830EBC6510D0890EBC610DD048C094
:1038B8000EF0BC517C0F4FEC23F00001BC517C0F83
:1038C800C7EC23F000013BD0BC51920A0DE14850EF
:1038D8004A6E496A68514B6E4C6A4910686F4A5083
:1038E8004C10696F69512BD0BC51930A0BE1496A9E
:1038F80069514A6E48504910686F4A50696F68C0EC
:10390800BBF051D0880EBC651CD0910EBC6119D09B
:1039180069C049F049C04AF04B6A4A2802E168295F
:1039280002E0481C0CD048C00EF0BC51770FC7EC21
:1039380022F00001BC51770FBDEC23F0C3D7BB6F59
:1039480032D0CF0EBC6518D0E00EBC6115D069C06E
:1039580049F049C04AF04B6A4A28E3E16829E1E1A5
:1039680048C00EF0BC51300FDAEC22F00001BC5117
:10397800300FD1EC23F0A6D7BC51A20AD2E14850AF
:10398800550A04E1666B676B550ED9D74850AA0AE9
:103998000AE1E80E665D030E675904E21DEC24F0A7
:1039A800AA0ECDD7BB6BBB511200EFEC21F082EC15
:1039B80021F00009D8B4F9EC04F068EC20F01AEC16
:1039C80021F015EC10F00400FA0E000172650ED01B
:1039D80075050CE0746921EC24F00B6A010E0A6E7F
:1039E800FF0E0C68D5EC21F01AEC21F0776B62EC35
:1039F80022F02BD0742903E1010E756F32D0030E2B
:103A0800756F31EC23F02DD023EC1EF02AD077AF60
:103A180028D07A51791103E1EFEC0CF022D04BEC6D
:103A280012F079511E0A7A111CE17B511A0A19E128
:103A38007EC0DAF07FC0DBF07D51B9EC1BF011D00D
:103A480024EC24F00ED0756B0CD000017551D2E037
:103A5800010ADAE0030AD5E0010AD9E0070AF0E032
:103A6800F2D7E90E0001605D030E6159000E62593C
:103A7800000E63590BE3606B616B626B636BCEEC9A
:103A880020F07551030AD8B42CEC24F03B0E706575
:103A98000BD0706B6F2B3B0E6F6502D06F6B6E2B6C
:103AA800170E6E6501D06E6BFBEC08F08CD71A34DC
:103AB8001B34206E206601D005D01E341F34266EBC
:103AC800266605D0186A196A1A6A1B6A57D02650E2
:103AD8007B0F20261BC026F01F50261A800E2616A4
:103AE8001A8E1E8E000E1F16216A226A236A246A05
:103AF800070E256E18A008D01C5021261D50222222
:103B08001E5023221F502422D8901B321A321932F9
:103B18001832D8901C361D361E361F36252EEAD789
:103B2800110E256E18A008D01C5021261D502222E7
:103B38001E5023221F502422D8901B321A321932C9
:103B48001832D8902432233222322132252EEAD755
:103B580021C00AF022C00BF023C00CF024C00DF0E5
:103B680020C00EF026C00FF0C3EC1DF00DC01BF0F6
:103B78000CC01AF00BC019F00AC018F012000E5051
:103B880005E00D500A100B100C100BE10A6A0B6AC5
:103B98000C6A0D6A53D00E2AD8900D320C320B32B3
:103BA8000A32106A116A126AFE0E0D14136E13504F
:103BB8001010111012100CE0EED70E2A0A2A000E6F
:103BC8000B220C220D22D8900D320C320B320A3205
:103BD800106A116A126A0D50136E135010101110EA
:103BE800121007E0EAD70E06D8900A360B360C36C4
:103BF8000D360CAEF8D70EB002D07F0E0C16D8904A
:103C08000E320EC010F0116A126A136A10C013F057
:103C1800126A116A106A10500A1211500B121250CF
:103C28000C1213500D120F50D8A40D8E0AC00AF0B2
:103C38000BC00BF00CC00CF00DC00DF0120053D0EF
:103C4800542812E0810E0001856F866B876B886BA4
:103C5800020E896F54C08BF021EC22F0010E536ED6
:103C680000016A6B6B6B45D0040E0001756F810E05
:103C7800856F8B69070E866F876B886B030E896F5C
:103C880021EC22F036D0000177AF0FD07A517911AC
:103C980030E17B51030A2DE1546603D0020E756FA3
:103CA800DFD7542A536A556A24D0E90E6A5D030E99
:103CB8006B591FE3552A020E556413D0546605D07C
:103CC800542A536A6A6B6B6BEED754C074F0030EB8
:103CD800756F536A7451A8EC23F0556A31EC23F0E0
:103CE80008D0536A06D05350ABE0010ACCE0030A6F
:103CF800F8E10001776B120041C0B3F0B46BB56B0B
:103D0800B66BB5C0B6F0B4C0B5F0B3C0B4F0B36B21
:103D18003F50B76F4050B86FB96BBA6BB8C0BAF0C4
:103D2800B7C0B9F0B86BB76B43C0BBF0BC6BBD6B29
:103D3800BE6B1A0ED890BB37BC37BD37BE37E82EDE
:103D4800F9D7B751BB11BF6FB851BC11C06FB9518A
:103D5800BD11C16FBA51BE11C26FB351BF11C36F4C
:103D6800B451C011C46FB551C111C56FB651C2115C
:103D7800C66F4250C311466EC451476EC551486E56
:103D8800C651496E46C038F047C039F048C03AF0CD
:103D980049C03BF044C03CF045C03DF03DEC21F04B
:103DA8000009000ED8A4010E120029342A34346EFA
:103DB800346601D005D02D342E34356E356605D0E5
:103DC800276A286A296A2A6A43D03550890F345EDF
:103DD8002AC035F02E50351A800E3516298E2A6ADB
:103DE8002D8E2E6A200E336ED8902F36303631360F
:103DF80032362B50275C2C5028582D5029582E50DD
:103E08002A5809E32B50275E2C50285A2D50295A3E
:103E18002E502A5A2F80D8902736283629362A3607
:103E2800332EE2D72FC00AF030C00BF031C00CF0AF
:103E380032C00DF034C00EF035C00FF0C3EC1DF0E9
:103E48000DC02AF00CC029F00BC028F00AC027F0DA
:103E58001200800E91EC23F0090E706EFC0E716E4C
:103E6800010E726E200E736E778E779C606A0F015A
:103E7800506B0E01206B306B406B506B606B706B3E
:103E8800E00E0D01F86F0F01006B080E016F026B59
:103E9800036B046BE80E056F1A0E066F076B030EB3
:103EA8000D01D46FD56BE06B110EE16FE26FE36B20
:103EB800E46BE56BE66BE76B540EF06F050EF16F84
:103EC800F26BF26B0F0E0F01186FE00E196F1A6B81
:103ED8001B6B19870F0E1C6FE00E1D6F1E691F6B81
:103EE8001D87000E91EF23F0E8CFCCF0CCC0C9F0CD
:103EF800CC51030B020DF3CF4AF00A0E4A264A5062
:103F0800540F4B6E4BC0F6FF090EF76E0800F550C4
:103F18000A6E0B6AEEEC23F00001CA6FCC51030B5A
:103F2800020DF3CF4AF00B0E4A264A50540F4B6E3F
:103F38004BC0F6FF090EF76E0800F5500A6E0B6AC3
:103F4800EEEC23F00001CB6FC7C03FF0406AC8C059
:103F580041F074C042F0030E436E446EC90E456EC4
:103F680080EF1EF0E8CF29F023C01CF024C01DF01C
:103F78002A0E37EC22F0000902E1000E2ED0215063
:103F8800D96EDA6A2AC0DFFF2050D96EDA6A2BC0F0
:103F9800DFFF2C50256E010E2D14266E2950D96E88
:103FA800DA6A25C0DEFF26C0DDFF2250D96EDA6A44
:103FB8002AC025F02BC026F02CC027F02DC028F0F1
:103FC8001B0E05D0D8902832273226322532E82E0B
:103FD800F9D72550070BDF6E010E1200E8CFCAF0A3
:103FE800CAC0C7F0CAC04AF0030E4A16020E4A26D3
:103FF8004A50540F4B6E4BC0F6FF090EF76E08007F
:10400800F5500A6E0B6AEEEC23F00001C86FCAC0C7
:104018004AF0030E4A164A264A50540F4B6E4BC0BC
:10402800F6FF090EF76E0800F5500A6E0B6AEEEC03
:1040380023F00001C96F406A010E3F6E020E416E07
:1040480074C042F0436A030E446EC70E456E80EF9B
:104058001EF0E8CF0DF024D00F0E0F6E600E1ED0AC
:104068000F010F0E0F6E500E19D00E010E0E0F6EAF
:10407800200E14D00E010E0E0F6E300E0FD00E0152
:104088000E0E0F6E400E0AD00E010E0EEBD70E016B
:104098000E0EE3D70E010E0E0F6E700E0E6E0FD0C1
:1040A8000D50DAE0010ADCE0030ADFE0010AE2E091
:1040B800070AE5E0010AE8E0030AE9E0EBD70EC0E9
:1040C8000AF00FC00BF012000001606B616B626BAD
:1040D800636B706B6F6B6E6B0B6A0A6A0D6A080E06
:1040E8000C6E930EA0EC22F00B6A0A6A0D6A040E9D
:1040F8000C6E0001AF0EA0EC22F00B6A0A6A0D6A82
:10410800040E0C6E0001AB0EA0EC22F00B6A0A6ADA
:104118000D6A080E0C6E0001A30EA0EC22F00B6ACB
:104128000A6A0D6A080E0C6E00019B0EA0EC22F0C4
:1041380000016C6B6D6B1200E8CF0EF0C26AC06AAA
:10414800D8900A303C0BC26E0AC00CF00C3AF00E44
:104158000C16300E0C160B500F0B0C10C16E0EC047
:104168000CF0D8900C36D8900C36380E0C160EC0C1
:104178000DF00D3A0F0E0D16070E0D160E50800B92
:104188000D100C10C06E0AAE03D09E9C9D8CF28C54
:10419800C2801200762B3B0E76650DD0766B732BA2
:1041A8007551030A08E16BEC23F00001C76FB3EC0B
:1041B80023F0B4EC22F03B0E0001736502D0736B60
:1041C800712B170E716501D0716B7551030A09E1E6
:1041D800512A51C04CF00F0E4C16020E4C5CD8B050
:1041E800516A1200E8CFE8F0540EF66E090EF76E29
:1041F8000800F5500A6E0B6AEEEC23F00001E96F37
:10420800540EE76FE72BE7C0F6FF090EF76E0800BC
:10421800F5500A6E0B6AEEEC23F00001EA6FE9C074
:10422800DAF0EAC0DBF0E851B9EF1BF0020E526E8B
:1042380018EC24F00001746F746701D07469776B0F
:10424800786B796B7A6B7B6B856B866B876B886B0E
:10425800896B506A4F6A546A756B536A556A686B02
:10426800696B6A6B6B6B666B676B766B736B716B89
:1042780012003E6A646B656B15D038C014F039C003
:1042880015F03AC016F03BC017F03DC018F03CC01E
:1042980019F0200E1A6E5DEC18F0000903E0010E0B
:1042A8003E6E06D0E80E0001645D030E6559E5E335
:1042B8000001856B3E501200540EF66E090EF76E23
:1042C8000800F5500A6E0B6AEEEC23F00001E86F67
:1042D800540EE76FE72BE7C0F6FF090EF76E0800EC
:1042E800F5500A6E0B6AEEEC23F00001E96FE8C0A6
:1042F800DAF0E9C0DBF0FF0EB9EF1BF0000EDBECE3
:1043080023F0550A07E1010EDBEC23F0AA0A02E1CB
:10431800010E10D026EC24F0FF0EA8EC23F0550E69
:104328000E6E000EEDEC22F0AA0E0E6E010EEDECF4
:1043380022F0000E1200E8CF0BF00BA00BD0010EFC
:104348008BBA000E0A6E0A3A0A468B500A18DF0B1F
:104358000A188B6E0BA20AD0010E8BB8000E0A6EDB
:104368000A3A8B500A18EF0B0A188B6E1200E8CF26
:10437800CAF0C751600FCB6FCC6BCD6BC951CE6FF4
:10438800C8C0CFF0406A0F0E3F6ECAC041F074C07B
:1043980042F0030E436E050E446ECB0E456E80EF61
:1043A8001EF00AC0A9FF0CC0A8FFA69EA69CA68462
:1043B800000EF2BE010E0D6EF29E550EA76EAA0EED
:1043C800A76EA682A6B2FED70DB002D0F29E01D08B
:1043D800F28EA69412000F0E926E010E946E826AEF
:1043E800920E40EC23F0FB0E0B6E1D0E0A6EE5ECF0
:1043F80023F0840E0A6E0F0E0B6EEF0EA0EC20F069
:104408002DEC1FF0F28E28EF24F077510F0B0F6E72
:104418000F5012E0745120EE7DF0DF620DD00F04D2
:1044280005E0010E0F6408D07E6706D07469FF0EA0
:10443800A8EC23F01AEC21F0120087C03FF088C0E6
:1044480040F089C041F074C042F086C043F0855105
:104458000F0B446E8B0E456E80EC1EF04A6E4A665A
:1044680001D0502A1200E8CF1EF077AF02D0000E1C
:104478000FD01DC011F01CC012F01F0E136E1E507D
:10448800D9EC14F00009F3E01FAC1FAAF0D7010E15
:10449800120077C04BF00F0E4B164B040EE174510F
:1044A80020EE7DF0DF6209D0800E856F866B876B0A
:1044B800886B030E896F21EC22F0120077BF12D0AF
:1044C8007B0E206E7C0E216E780E226E770E236E88
:1044D8007D0E246E790EB6EC1FF02E6E2E5002E083
:1044E8000001778F120014C00AF015C00BF00C6A97
:1044F8000D6A960E0E6E000E0F6AC3EC1DF00DC00D
:1045080017F00CC016F00BC015F00AC014F012001A
:10451800E8CF0BF0080E0C6E0D6AD8900B340D34F2
:104528000D6ED8900B360A500D5C02E30A500D5EF2
:104538000C2EF3D70D501200E8CF0EF00EC00FF07E
:1045480006D00F50D96EDA6A0AC0DFFF0F2A0C06B0
:10455800D8A00D060C28D8B40D28D8B41200F1D76D
:10456800E8CF4BF0830E0001856F070E866F886BCE
:10457800140E876F090E896F8B6B4BC08CF0C7C008
:104588008DF021EF22F0E8CF0FF0070E0F6401D075
:104598000CD021EC24F00B0E0F240A6E0B6A000ECF
:1045A8000B220EC00CF0D5EC21F01200E8CF0FF072
:1045B8000F0E0F6401D00CD021EC24F0130E0F2441
:1045C8000A6E0B6A000E0B220EC00CF0D5EC21F01F
:1045D8001200E8CF0FF0010E0F6401D00CD021ECCF
:1045E80024F0020E0F240A6E0B6A000E0B220EC076
:1045F8000CF0D5EC21F0120000EE60F0530EEE6ADC
:10460800E806FDE100EE4EF0090EEE6AE806FDE16F
:10461800000EF86E0001D9EF1CF0E8CF4DF07F0EC8
:104628004D6406D0DCC048F04D504CEC1CF005D071
:10463800DCC04AF04D50A3EC17F0120077510F0B75
:10464800020A0AE1745120EE7DF0DF6205D07EC0D7
:1046580074F07451A8EC23F01200810E0001856FEC
:10466800866B876B886B020E896F74C08BF021ECA8
:1046780022F0010E526E010CE8CF0AF00A507F0BAF
:10468800D56ED76AD66AF2940AAE02D0F28A01D001
:10469800F29AD58E1200E8CF0FF021EC24F0060E26
:1046A8000F240A6E0B6A000E0B220EC00CF0D5EF19
:1046B80021F0E8CF0EF00E0409E121EC24F00B6A9A
:1046C8000A6AFF0E0C68D5EC21F0FF001200540EA8
:1046D8000C6E0C2A0CC0F6FF090EF76E0800F55098
:1046E8000A6E0B6AEEEF23F0E8CF4AF07F0E4A64B9
:1046F80004D04A50CBEC16F003D04A50E0EC15F049
:104708001200E8CF0BF00B50D10F0A6E0AC0F6FF6B
:10471800090EF76E0800F5501200E8CF0AF01F0ED8
:104728006F160A506F126F50E00B0A18D8B41200B7
:10473800FAD7040E8B6F8C6B8D6B030E8E6F8F6B9D
:10474800030E906F916B1200E8CF0EF021EC24F06D
:104758000B6A010E0A6E0EC00CF0D5EF21F0540E54
:10476800F66E090EF76E0800F5500A6E0B6AEEEF4A
:1047780023F0E8CF0CF00B0E0C240A6E0B6A000E27
:104788000B22EEEF23F0E8CF0CF0060E0C240A6E95
:104798000B6A000E0B22EEEF23F0E8CF0CF0130E9D
:1047A8000C240A6E0B6A000E0B22EEEF23F0E8CF02
:1047B8000CF0020E0C240A6E0B6A000E0B22EEEFB0
:1047C80023F00AC00CF00BC00DF00DC0D7FF0CC0D1
:1047D800D6FF12000AC0A9FFA69CA69EA68000F0DC
:1047E80000F0A850120001C003F002C004F004C099
:1047F800D7FF03C0D6FF1200E8CF0AF00AB08B9AA1
:104808000AB28B981200E8CF0AF00AB08B8A0AB273
:104818008B8812000A6A0B6A0C6A0D6A12000A6A0F
:104828000B6A0C6A0D6A12000B6A010E0A6EEEEF33
:1048380023F0F9EC04F068EF20F0A6A21200FDD7EF
:10484800526A1200F9EF04F0C2821200C28212000A
:104858001200050C080C010C000C000C010C1200D5
:020000040020DA
:08000000FFFFFFFFFFFFFFFF00
:020000040030CA
:0E000000FF061C1EFF8281FF0FC00FE00F40A5
:00000001FF
