:04080000AAEF04F067
:10081800D8CF07F0E8CF08F0E0CF09F0F2A401D074
:1008280001D052D0FB0E026E1D0E016EE6EC27F0D1
:100838004E4A4F2A0001664B672B010E6027000EB7
:100848006123000E6223000E6323644B652BA44BC7
:10085800A52BA64BA72BA84BA92BAA4BAB2B9C4B84
:100868009D2B9E4B9F2BA04BA12BA24BA32B82A071
:1008780001D001D003D0686B696B02D0684B692B3B
:10088800562A5450020AD8A401D001D00ED0640EC2
:10089800566401D001D009D082A201D001D002D083
:1008A800829201D08282566A0ED05404D8A401D014
:1008B80001D003D08282566A06D0546601D001D096
:1008C80002D08292566AF2949EAC01D001D037D001
:1008D8001CD0C3CF9AF0C4CF9BF0050EC26E2CD0AB
:1008E800C3CF98F0C4CF99F0090EC26E25D0C3CFFC
:1008F80096F0C4CF97F00D0EC26E1ED0C3CF94F001
:10090800C4CF95F0010EC26E17D0C2503C0B056ED5
:10091800066A0650000AD8B401D0F4D70550000A78
:10092800D8B4D7D7040AD8B4DBD70C0AD8B4DFD7E1
:10093800040AD8B4E3D7E6D719EC28F09E9C09C07E
:10094800E0FF08C0E8FF07C0D8FF100005EF27F058
:100F0000434445464748494A4B4C4D4E4F50515239
:100F1000535455FFFFFFFFFFFFFFFF565758595A25
:100F20005B5C5D5E5F606162636465666768696A99
:100F30006B6C6D6E6F707172737475767778797A89
:100F40007B7C7D7E7F808182838485868788898A79
:100F5000FF8B8C8D8E8F9091929394949596979809
:100F6000999A9B9C9D9E9FA0A1A2A3A4A5A6A7A879
:100F7000A9AAABACADAEAFB0B1B2B3B4B577777729
:100F80002E6575726F736F757263652E73652F763C
:100F9000696C6E6975735F312E786D6C000010ECB2
:100FA00028F0000EF66E0F0EF76E000EF86E0800B9
:100FB000F5500A6E0B6A000E0C6A8AEC25F010ECF4
:100FC00028F0000E466E462A46C0F6FF0F0EF76E5A
:100FD000000EF86E0800F5500A6E0B6A000E0C6ADF
:100FE0008AEC25F010EC28F0000E466E020E462624
:100FF00046C0F6FF0F0EF76E000EF86E0800F550B3
:101000000A6E0B6A010E0C6E8AEC25F010EC28F0CB
:10101000000E466E030E462646C0F6FF0F0EF76E14
:10102000000EF86E0800F5500A6E0B6A010E0C6E89
:101030008AEC25F010EC28F0000E466E040E4626D1
:1010400046C0F6FF0F0EF76E000EF86E0800F55062
:101050000A6E0B6A020E0C6E8AEC25F010EC28F07A
:10106000000E466E050E462646C0F6FF0F0EF76EC2
:10107000000EF86E0800F5500A6E0B6A020E0C6E38
:101080008AEC25F010EC28F0000E466E060E46267F
:1010900046C0F6FF0F0EF76E000EF86E0800F55012
:1010A0000A6E0B6A030E0C6E8AEC25F010EC28F029
:1010B000000E466E070E462646C0F6FF0F0EF76E70
:1010C000000EF86E0800F5500A6E0B6A030E0C6EE7
:1010D0008AEC25F010EC28F0000E466E080E46262D
:1010E00046C0F6FF0F0EF76E000EF86E0800F550C2
:1010F0000A6E0B6A040E0C6E8AEC25F010EC28F0D8
:10110000000E466E090E462646C0F6FF0F0EF76E1D
:10111000000EF86E0800F5500A6E0B6A040E0C6E95
:101120008AEC25F010EC28F0000E466E0A0E4626DA
:1011300046C0F6FF0F0EF76E000EF86E0800F55071
:101140000A6E0B6A050E0C6E8AEC25F010EC28F086
:10115000000E466E0B0E462646C0F6FF0F0EF76ECB
:10116000000EF86E0800F5500A6E0B6A050E0C6E44
:101170008AEC25F010EC28F0000E466E0C0E462688
:1011800046C0F6FF0F0EF76E000EF86E0800F55021
:101190000A6E0B6A060E0C6E8AEC25F010EC28F035
:1011A000000E466E0D0E462646C0F6FF0F0EF76E79
:1011B000000EF86E0800F5500A6E0B6A060E0C6EF3
:1011C0008AEC25F010EC28F0000E466E0E0E462636
:1011D00046C0F6FF0F0EF76E000EF86E0800F550D1
:1011E0000A6E0B6A000E0C6A8AEC25F010EC28F0EF
:1011F000000E466E0F0E462646C0F6FF0F0EF76E27
:10120000000EF86E0800F5500A6E0B6A000E0C6AAC
:101210008AEC25F010EC28F0000E466E100E4626E3
:1012200046C0F6FF0F0EF76E000EF86E0800F55080
:101230000A6E0B6A000E0C6A8AEC25F010EC28F09E
:10124000000E466E110E462646C0F6FF0F0EF76ED4
:10125000000EF86E0800F5500A6E0B6A000E0C6A5C
:101260008AEC25F010EC28F0000E466E120E462691
:1012700046C0F6FF0F0EF76E000EF86E0800F55030
:101280000A6E0B6A000E0C6A8AEC25F00001BA6B3C
:10129000BB6B10EC28F0BAC046F01B0E4626465039
:1012A000000F476E47C0F6FF0F0EF76E000EF86E88
:1012B0000800F5500A6E0B6A000E0C6A8AEC25F0E5
:1012C00010EC28F0BAC046F0370E46264650000F04
:1012D000476E47C0F6FF0F0EF76E000EF86E08005F
:1012E000F5500A6E0B6A000E0C6A8AEC25F010ECC1
:1012F00028F0BAC046F0230E46264650000F476E2F
:1013000047C0F6FF0F0EF76E000EF86E0800F5509E
:101310000A6E0B6A000E0C6A8AEC25F010EC28F0BD
:10132000BAC046F02B0E46264650000F476E47C007
:10133000F6FF0F0EF76E000EF86E0800F5500A6EFD
:101340000B6A000E0C6A8AEC25F010EC28F0BAC08B
:1013500046F0470E46264650000F476E47C0F6FF40
:101360000F0EF76E000EF86E0800F5500A6E0B6A4D
:10137000000E0C6A8AEC25F00001BA4BBB2BBB5166
:10138000800A800F080ED8B4BA5D83E3B46BB56BE6
:1013900010EC28F0B4C046F03F0E46264650000F31
:1013A000476E47C0F6FF0F0EF76E000EF86E08008E
:1013B000F5500A6E0B6AFF0E0C688AEC25F00001EE
:1013C000B44BB52BB551800A800F080ED8B4B45D6C
:1013D000DFE310EC28F0000E466E330E462646C0C2
:1013E000F6FF0F0EF76E000EF86E0800F5500A6E4D
:1013F0000B6AC80E0C6E8AEC25F010EC28F0000E7B
:10140000466E340E462646C0F6FF0F0EF76E000EEF
:10141000F86E0800F5500A6E0B6AC80E0C6E8AEC66
:1014200025F010EC28F0000E466E350E462646C01C
:10143000F6FF0F0EF76E000EF86E0800F5500A6EFC
:101440000B6AC80E0C6E8AEC25F010EC28F0000E2A
:10145000466E360E462646C0F6FF0F0EF76E000E9D
:10146000F86E0800F5500A6E0B6AC80E0C6E8AEC16
:1014700025F010EC28F0000E466E4F0E462646C0B2
:10148000F6FF0F0EF76E000EF86E0800F5500A6EAC
:101490000B6A000E0C6A8AEC25F010EC28F0000EA6
:1014A000466E500E462646C0F6FF0F0EF76E000E33
:1014B000F86E0800F5500A6E0B6A000E0C6A8AEC92
:1014C00025F010EC28F0510EF66E0F0EF76E000EA0
:1014D000F86E0800F5500A6E0B6A000E0C6A8AEC72
:1014E00025F010EC28F0510E466E030E462646C03D
:1014F000F6FF0F0EF76E000EF86E0800F5500A6E3C
:101500000B6A000E0C6A8AEC25F010EC28F0510EE4
:10151000466E060E462646C0F6FF0F0EF76E000E0C
:10152000F86E0800F5500A6E0B6A000E0C6A8AEC21
:1015300025F010EC28F0510E466E090E462646C0E6
:10154000F6FF0F0EF76E000EF86E0800F5500A6EEB
:101550000B6A000E0C6A8AEC25F010EC28F0510E94
:10156000466E462A46C0F6FF0F0EF76E000EF86E66
:101570000800F5500A6E0B6A0A0E0C6E8AEC25F014
:1015800010EC28F0510E466E040E462646C0F6FFBB
:101590000F0EF76E000EF86E0800F5500A6E0B6A1B
:1015A0000A0E0C6E8AEC25F010EC28F0510E466EF7
:1015B000070E462646C0F6FF0F0EF76E000EF86EB9
:1015C0000800F5500A6E0B6A0A0E0C6E8AEC25F0C4
:1015D00010EC28F0510E466E0A0E462646C0F6FF65
:1015E0000F0EF76E000EF86E0800F5500A6E0B6ACB
:1015F0000A0E0C6E8AEC25F010EC28F0510E466EA7
:10160000020E462646C0F6FF0F0EF76E000EF86E6D
:101610000800F5500A6E0B6A100E0C6E8AEC25F06D
:1016200010EC28F0510E466E050E462646C0F6FF19
:101630000F0EF76E000EF86E0800F5500A6E0B6A7A
:10164000100E0C6E8AEC25F010EC28F0510E466E50
:10165000080E462646C0F6FF0F0EF76E000EF86E17
:101660000800F5500A6E0B6A100E0C6E8AEC25F01D
:1016700010EC28F0510E466E0B0E462646C0F6FFC3
:101680000F0EF76E000EF86E0800F5500A6E0B6A2A
:10169000100E0C6E8AEC25F00001B76B0C0EB66FC5
:1016A00010EC28F00001B651510F466E46C0F6FF0F
:1016B0000F0EF76E000EF86E0800F5500A6E0B6AFA
:1016C000000E0C6A8AEC25F00001B64BB72BB7511F
:1016D000800A800F2C0ED8B4B65DE2E310EC28F03F
:1016E000510E466E0D0E462646C0F6FF0F0EF76EE3
:1016F000000EF86E0800F5500A6E0B6A800E0C6E34
:101700008AEC25F010EC28F0510E466E0C0E4626A1
:1017100046C0F6FF0F0EF76E000EF86E0800F5508B
:101720000A6E0B6A3F0E0C6E8AEC25F010EC28F066
:10173000510E466E110E462646C0F6FF0F0EF76E8E
:10174000000EF86E0800F5500A6E0B6A800E0C6EE3
:101750008AEC25F010EC28F0510E466E100E46264D
:1017600046C0F6FF0F0EF76E000EF86E0800F5503B
:101770000A6E0B6A3F0E0C6E8AEC25F010EC28F016
:10178000510E466E150E462646C0F6FF0F0EF76E3A
:10179000000EF86E0800F5500A6E0B6A800E0C6E93
:1017A0008AEC25F010EC28F0510E466E140E4626F9
:1017B00046C0F6FF0F0EF76E000EF86E0800F550EB
:1017C0000A6E0B6A3F0E0C6E8AEC25F010EC28F0C6
:1017D000510E466E190E462646C0F6FF0F0EF76EE6
:1017E000000EF86E0800F5500A6E0B6A800E0C6E43
:1017F0008AEC25F010EC28F0510E466E180E4626A5
:1018000046C0F6FF0F0EF76E000EF86E0800F5509A
:101810000A6E0B6A3F0E0C6E8AEC25F00001B86B65
:10182000B96B10EC28F00001B951B8C046F0476A16
:10183000D89046364736D89046364736D890463602
:1018400047364626000E4722B60E46240A6E000E84
:1018500047200B6E000E0C6A8AEC25F00001B92BB4
:10186000070EB965DED7B82B030EB865D9D79DEF43
:1018700013F0E76BE86BE751020DF3CFDBF03F0E9F
:10188000DB27DB51000FDC6FDCC0F6FF0F0EF76EBD
:10189000000EF86E0800F5500A6E0B6A93EC27F004
:1018A0000001DE6FDD6BE751020DF3CFDFF0400E7C
:1018B000DF27DF51000FE06FE0C0F6FF0F0EF76E7D
:1018C000000EF86E0800F5500A6E0B6A93EC27F0D4
:1018D0000001DD27000EDE23E751020DF350940FC7
:1018E000D96EDA6ADECFE1F0DDCFE2F0DD51E15D05
:1018F000DE51E25947E210EC28F00001E751020DF9
:10190000F3CFDBF03F0EDB27DB51000FDC6FDCC0D9
:10191000F6FF0F0EF76E000EF86E0800F5500A6E17
:101920000B6AE751020DF350940FD96EDA6ADECFDD
:10193000DDF0DDCFDEF0DEC0DDF0DE6BDD510C6E04
:101940008AEC25F010EC28F00001E751020DF3CFEE
:10195000DBF0400EDB27DB51000FDC6FDCC0F6FF55
:101960000F0EF76E000EF86E0800F5500A6E0B6A47
:10197000E751020DF350940FD96EDA6ADF500C6E06
:101980008AEC25F00001E751020DF350940FD96E57
:10199000DA6ADECFDBF0DDCFDCF0E751020DF3CF0A
:1019A000DDF0470EDD27DD51000FDE6FDEC0F6FFF4
:1019B0000F0EF76E000EF86E0800F5500A6E0B6AF7
:1019C00093EC27F00001E06FDF6BE751020DF3CFDE
:1019D000E1F0480EE127E151000FE26FE2C0F6FFAF
:1019E0000F0EF76E000EF86E0800F5500A6E0B6AC7
:1019F00093EC27F00001DF27000EE023DB51DF5DD1
:101A0000DC51E05947E210EC28F00001E751020DEB
:101A1000F3CFDBF0470EDB27DB51000FDC6FDCC0C0
:101A2000F6FF0F0EF76E000EF86E0800F5500A6E06
:101A30000B6AE751020DF350940FD96EDA6ADECFCC
:101A4000DDF0DDCFDEF0DEC0DDF0DE6BDD510C6EF3
:101A50008AEC25F010EC28F00001E751020DF3CFDD
:101A6000DBF0480EDB27DB51000FDC6FDCC0F6FF3C
:101A70000F0EF76E000EF86E0800F5500A6E0B6A36
:101A8000E751020DF350940FD96EDA6ADF500C6EF5
:101A90008AEC25F00001E751020DF3CFDBF01C0EBC
:101AA000DB27DB51000FDC6FDCC0F6FF0F0EF76E9B
:101AB000000EF86E0800F5500A6E0B6A93EC27F0E2
:101AC0000001DD6FE751020DF3CFDEF01B0EDE27C4
:101AD000DE51000FDF6FDFC0F6FF0F0EF76E000E56
:101AE000F86E0800F5500A6E0B6A93EC27F00001BF
:101AF000E66FDD51E56FE61126E0E751020DF35088
:101B0000A40FD96EDA6ADECFDBF0DDCFDCF0DB517B
:101B1000E55DDC51E65917E2E751020DF350A40FE1
:101B2000D96EDA6ADE6ADD6AE7C0C8F0E751020DF5
:101B3000F350940FD96EDA6ADECFC9F0DDCFCAF068
:101B4000020EDEEC25F0E7C0DBF00F0EDB27DB51E9
:101B5000000FDC6FDCC0F6FF0F0EF76E000EF86EA4
:101B60000800F5500A6E0B6A93EC27F00001DD6F58
:101B7000DDA3ADD0E751B00FD96EDA6ADF504BE18B
:101B8000E751020DF3CFDBF0230EDB27DB51000F13
:101B9000DC6FDCC0F6FF0F0EF76E000EF86E08006B
:101BA000F5500A6E0B6A93EC27F00001DE6FDD6BD7
:101BB000E751020DF3CFDFF0240EDF27DF51000FD6
:101BC000E06FE0C0F6FF0F0EF76E000EF86E080033
:101BD000F5500A6E0B6A93EC27F00001DD27000E2A
:101BE000DE23E751020DF350940FD96EDA6ADECF8F
:101BF000E1F0DDCFE2F0DD51E15DDE51E25967E277
:101C0000E751B00FD96EDA6A010EDF6E5180E751ED
:101C100060EC23F05CD0E751020DF350940FD96EC5
:101C2000DA6ADECFDBF0DDCFDCF0E751020DF3CF77
:101C3000DDF0230EDD27DD51000FDE6FDEC0F6FF85
:101C40000F0EF76E000EF86E0800F5500A6E0B6A64
:101C500093EC27F00001E06FDF6BE751020DF3CF4B
:101C6000E1F0240EE127E151000FE26FE2C0F6FF40
:101C70000F0EF76E000EF86E0800F5500A6E0B6A34
:101C800093EC27F00001DF27000EE023E7C0E3F02C
:101C9000330EE327E351000FE46FE4C0F6FF0F0EAD
:101CA000F76E000EF86E0800F5500A6E0B6A93ECA2
:101CB00027F00001DF27000EE023DB51DF5DDC5160
:101CC000E05905E2E751B00FD96EDA6ADF6AE7C082
:101CD000DBF00F0EDB27DB51000FDC6FDCC0F6FF03
:101CE0000F0EF76E000EF86E0800F5500A6E0B6AC4
:101CF00093EC27F00001DD6FDDA5AED0E751AC0F0E
:101D0000D96EDA6ADF504CE1E751020DF350940FBF
:101D1000D96EDA6ADECFDBF0DDCFDCF0E751020D01
:101D2000F3CFDDF02B0EDD27DD51000FDE6FDEC0BF
:101D3000F6FF0F0EF76E000EF86E0800F5500A6EF3
:101D40000B6A93EC27F00001E06FDF6BE751020DA7
:101D5000F3CFE1F02C0EE127E151000FE26FE2C07A
:101D6000F6FF0F0EF76E000EF86E0800F5500A6EC3
:101D70000B6A93EC27F00001DF27000EE023DB5114
:101D8000DF5DDC51E05968E2E751AC0FD96EDA6AE9
:101D9000010EDF6E5188E751800F60EC23F05CD0BC
:101DA000E751020DF3CFDBF02B0EDB27DB51000FE9
:101DB000DC6FDCC0F6FF0F0EF76E000EF86E080049
:101DC000F5500A6E0B6A93EC27F00001DE6FDD6BB5
:101DD000E751020DF3CFDFF02C0EDF27DF51000FAC
:101DE000E06FE0C0F6FF0F0EF76E000EF86E080011
:101DF000F5500A6E0B6A93EC27F00001DD27000E08
:101E0000DE23E7C0E1F0330EE127E151000FE26F7E
:101E1000E2C0F6FF0F0EF76E000EF86E0800F550E8
:101E20000A6E0B6A93EC27F00001DD5F000EDE5BAB
:101E3000E751020DF350940FD96EDA6ADECFE3F06A
:101E4000DDCFE4F0DD51E35DDE51E45905E2E75119
:101E5000AC0FD96EDA6ADF6AE751020DF3CFDBF01F
:101E6000380EDB27DB51000FDC6FDCC0F6FF0F0EF6
:101E7000F76E000EF86E0800F5500A6E0B6A93ECD0
:101E800027F00001DD6FE751020DF3CFDEF0370ED2
:101E9000DE27DE51000FDF6FDFC0F6FF0F0EF76E9B
:101EA000000EF86E0800F5500A6E0B6A93EC27F0EE
:101EB0000001E66FDD51E56FE61112E0E751020D1A
:101EC000F3509C0FD96EDA6ADECFDBF0DDCFDCF0A9
:101ED000DB51E55DDC51E65903E2E751ADEC1EF064
:101EE000E74BE82BE851800A800F040ED8B4E75D79
:101EF00001E2C1D4000EDB6F4F0EDB27DBC0F6FF23
:101F00000F0EF76E000EF86E0800F5500A6E0B6AA1
:101F100093EC27F00001DC6FDCA965D0000EDB6FCD
:101F20004F0EDB27DBC0F6FF0F0EF76E000EF86ECC
:101F30000800F5500A6E0B6A93EC27F00001DC6F85
:101F4000DCA151D06C5126E082BA49D0000EDB6F83
:101F50004F0EDB27DBC0F6FF0F0EF76E000EF86E9C
:101F60000800F5500A6E0B6A93EC27F00001DC6F55
:101F7000DCAD08D01E0EC86F060EC96F000E1EEC39
:101F800023F02DD0140EC86F040EC96F000E1EEC86
:101F900023F025D082AA23D0000EDB6F4F0EDB2763
:101FA000DBC0F6FF0F0EF76E000EF86E0800F5505E
:101FB0000A6E0B6A93EC27F00001DC6FDCAD08D0F1
:101FC0001E0EC86F050EC96F000E1EEC23F007D061
:101FD000140EC86F030EC96F000E1EEC23F0000E26
:101FE00082BA010E6C6F000EDB6F4F0EDB27DBC079
:101FF000F6FF0F0EF76E000EF86E0800F5500A6E31
:102000000B6A93EC27F00001DC6FDCAB1200000ED2
:10201000DB6F4F0EDB27DBC0F6FF0F0EF76E000EF7
:10202000F86E0800F5500A6E0B6A93EC27F0000179
:10203000DC6FDCA312006D5126E082B849D0000E9F
:10204000DB6F4F0EDB27DBC0F6FF0F0EF76E000EC7
:10205000F86E0800F5500A6E0B6A93EC27F0000149
:10206000DC6FDCAF08D01E0EC86F060EC96F010E04
:102070001EEC23F02DD0140EC86F040EC96F010E94
:102080001EEC23F025D082A823D0000EDB6F4F0E6C
:10209000DB27DBC0F6FF0F0EF76E000EF86E0800B0
:1020A000F5500A6E0B6A93EC27F00001DC6FDCAF91
:1020B00008D01E0EC86F050EC96F010E1EEC23F06E
:1020C00007D0140EC86F030EC96F010E1EEC23F06B
:1020D000000E82B8010E6D6F12007B517A11D8A4E8
:1020E0001200F9D2120057EF26F0C3EF25F012EFDD
:1020F00026F078510F0B020AD8A41200735120EE7B
:102100007EF0DF621200800E7F6110D07F5170EC94
:1021100019F08D6F7FC08CF0030E876F820E866F73
:10212000886B896B0A0E8A6F2AEF26F07F515FEC6D
:102130001AF00001EED778510F0B030AD8A4120051
:10214000735120EE7EF0DF621200800E7F6106D0B8
:1021500080C04AF07F5137EC1BF0DBD780C048F0DD
:102160007F51EDEC1FF0D5D7735120EE7EF0DF628A
:102170001200000EC9EC27F000018019D8A412004B
:10218000030EC9EC27F000018119D8A41200050E36
:10219000C9EC27F000018219D8A41200070EC9EC7F
:1021A00027F000018319D8A412006B518419D8A418
:1021B00012006A5120EE85F0DF6212007F5132EF8B
:1021C00027F0000EC9EC27F000017F1973E1010E22
:1021D000C9EC27F0000180196DE1020EC9EC27F06F
:1021E0000001811967E1030EC9EC27F00001821993
:1021F00061E153885FD0040EC9EC27F000017F191C
:1022000059E1050EC9EC27F00001801953E1060ED3
:10221000C9EC27F0000181194DE1070EC9EC27F048
:102220000001821947E1538A45D0080EC9EC27F016
:1022300000017F193FE1090EC9EC27F00001801968
:1022400039E10A0EC9EC27F00001811933E10B0EC8
:10225000C9EC27F0000182192DE1538C2BD00C0E14
:10226000C9EC27F000017F1925E10D0EC9EC27F01C
:10227000000180191FE10E0EC9EC27F00001811941
:1022800019E10F0EC9EC27F00001821913E1538EFA
:1022900011D0536A0FD07E390F0BDE6FDF6BDF5129
:1022A000F8E1DE518EE0010AA6E0030ABEE0010A71
:1022B000D6E0EFD75350F00BF00AD8B484EC24F0FA
:1022C0001200735120EE7EF0DF621200EC6B7FC0D3
:1022D000EBF080C0EEF0FA6B4AD0EB51FA259FECA0
:1022E00027F00001DE6F070E0A6EFA5181EC26F02E
:1022F0000001DF6FDF518D0FD96EDA6ADEC0DFFFBC
:10230000070E0A6EFA5181EC26F0060A0BE0FF0E6A
:102310000001EE25DE6FDF6BFF0EDF23FA51DE19C1
:10232000DF1124E1070E0A6E0001FA5181EC26F05C
:10233000060A03E1070E000109D0070E0A6E00012C
:10234000FA5181EC26F00001DE6FDE29ED6FED51D0
:10235000810F866F070E876F886B896B1A0E8A6FE5
:10236000ECC08CF02AEC26F00001EC2BFA2BEE519D
:10237000FA5DD8B01200B1D7735120EE7EF0DF6263
:1023800012007FC0EFF07851FE0F070BF06FF56B76
:1023900017D0F551800FD96EDA6ADF50DD6FEF513B
:1023A000F52523EC27F0EF51F5259FEC27F00001F0
:1023B000DE6FF5518D0FD96EDA6ADEC0DFFFF52BC7
:1023C000F051F55DE6E3070E876F886B896B1A0E97
:1023D0008A6F8C6BF051810F866F2AEF26F0735154
:1023E00020EE7EF0DF6212007F5170EC19F0DE6F9C
:1023F000DE294A6E7F5137EC1BF08BD6735120EEED
:102400007EF0DF6212007F5170EC19F0DE6FDE05A6
:102410004A6E7F5137EC1BF07CD67E51731903E076
:102420007E29D8A41200F46B030E876F880E866F86
:10243000886B896B200E8A6FF96BF9C08CF0010EE6
:10244000FB6FFB518C0FD96EDA6AF4510F08C9EC9F
:1024500027F0DF6E0001F42B100EF46501D004D0DC
:10246000FB2B070EFB65EDD7100EF46501D007D0EE
:102470002AEC26F00001F92B020EF965DED7FB6B82
:10248000FB516DEC27F0000908E0FB518F0FD96E6E
:10249000DA6AFB516DEC27F005D0FB518F0FD96E36
:1024A000DA6A000EDF6EFB2B040EFB65E9D72AEC1F
:1024B00026F0050E0001F46F030EF96FF9C08CF0E1
:1024C000010EFB6FFB518C0FD96EDA6AF4516DEC83
:1024D00027F0DF6EF42BFB2B070EFB65F3D72AECFE
:1024E00026F00001F92B060EF965E8D7060C7351AA
:1024F00020EE7EF0DF621200030E876F870E866F7C
:10250000886B896B220E8A6F8C0E50EC24F02AEFB8
:1025100026F0735120EE7EF0DF621200F66B78C079
:10252000DEF00F0EDE17040EDE5D12E382C0F7F060
:10253000F86BF851F71103E1010EF86FF76B010E1C
:10254000F75D010EF85907E3010EF86F000E02D097
:10255000F86B010EF76F6AC0E5F06BC0E6F08051D2
:102560007FC0DEF0DF6BDEC0DFF0DE6BDE116A6F96
:10257000DF516B6F070E876F886B896B270E8A6F31
:102580008C6B7FC08DF080C08EF0F651F75DDE6FF2
:10259000000EF859DF6F040EDE5D000EDF5902E316
:1025A000040E02D0F651F75DF16FF151840F866F82
:1025B0008151F6258F6FF26B0ED08151F625F225F1
:1025C0009FEC27F00001DE6FF251900FD96EDA6AAE
:1025D000DEC0DFFFF22BF151F25DEFE34EC0E7F01A
:1025E0004FC0E8F02AEC26F0020E0001E725DE6F6E
:1025F000000EE821DF6FDE514E5CDF514F58F4E3EF
:10260000F151F6278C2BF651DE6FDF6BF751DE5D53
:10261000F851DF59BAE3E5C06AF0E6C06BF012008A
:10262000735120EE7EF0DF6212006AC0E9F06BC0E9
:10263000EAF080517FC0DEF0DF6BDEC0DFF0DE6BE2
:10264000DE116A6FDF516B6F81C0F3F013D08151DF
:102650008208F325D96EDA6ADF50DD6FF35123EC7F
:1026600027F0DE6F81519008F325D96EDA6ADEC05B
:10267000DFFFF32B78510F0BDE6FDF6B8151DE270D
:10268000000EDF23FC0EDE25E06FFF0EDF21E16F81
:10269000F351E26FE36BE351800AE46FE051E25DD6
:1026A000E151800AE459D3E3E9C06AF0EAC06BF073
:1026B000070E876F78510F0B800F866F886B896BC1
:1026C000270E8A6F8C6B7FC08DF080C08EF081C02A
:1026D0008FF02AEF26F07C51010A01E103D5030AAD
:1026E00001E101D5040A01E100D50E0A01E1FFD4A0
:1026F000010A01E1FED4020A01E11DD5070A01E148
:1027000033D51B0A01E1C7D50F0A01E1DAD5010A69
:1027100001E132D6040A01E162D6030A01E16ED674
:10272000010A01E17AD63E0A01E1E1D6040A01E19B
:10273000F0D6030AD8A4120073D7386839683A680B
:102740003B683C6A3D6A3E6A3F6A456A4550146E82
:10275000156AD89014361536D89014361536D89098
:1027600014361536440E14240A6E000E15200B6E16
:1027700093EC27F0166E16AEE8D14550146E156A2C
:10278000D89014361536D89014361536D89014369D
:102790001536470E14240A6E000E15200B6E93ECAE
:1027A00027F0166E16C017F0186A196A1A6A19C04F
:1027B0001AF018C019F017C018F0176A45501B6EB0
:1027C0001C6AD8901B361C36D8901B361C36D89005
:1027D0001B361C36450E1B240A6E000E1C200B6E89
:1027E00093EC27F01D6E1DC01EF01F6A206A216A3F
:1027F0001FC021F01EC020F01F6A1E6A4550226EC5
:10280000236AD89022362336D89022362336D890A1
:1028100022362336440E22240A6E000E23200B6E2D
:1028200093EC27F0246E020E241624C025F0266AAD
:10283000276A286A170ED890253626362736283676
:10284000E82EF9D71E502510296E1F5026102A6E2B
:10285000205027102B6E215028102C6E1750291055
:102860002D6E18502A102E6E19502B102F6E1A50E4
:102870002C10306EFF0E2D10336E2E50346E2F50F4
:10288000356E3050366E4550146E156AD890143639
:102890001536D89014361536D89014361536480E9D
:1028A00014240A6E000E15200B6E93EC27F0166EA2
:1028B00016C017F0186A196A1A6A19C01AF018C0F7
:1028C00019F017C018F0176A45501B6E1C6AD89093
:1028D0001B361C36D8901B361C36D8901B361C363F
:1028E000460E1B240A6E000E1C200B6E93EC27F084
:1028F0001D6E1DC01EF01F6A206A216A1FC021F0D4
:102900001EC020F01F6A1E6A4550226E236AD890AE
:1029100022362336D89022362336D89022362336D4
:10292000440E22240A6E000E23200B6E93EC27F037
:10293000246E010E241624C025F0266A276A286A10
:1029400025C028F0276A266A256A1E502510296EA0
:102950001F5026102A6E205027102B6E2150281051
:102960002C6E175029102D6E18502A102E6E1950EB
:102970002B102F6E1A502C10306E4550316E326A6B
:10298000D89031363236D89031363236D89031360A
:102990003236430E31240A6E000E32200B6E93EC59
:1029A00027F02D10406E2E50416E2F50426E305049
:1029B000436E456608D040C03CF041C03DF042C087
:1029C0003EF043C03FF0335038163450391635507E
:1029D0003A1636503B16446A445040C014F041C089
:1029E00015F042C016F043C017F0E82A05D0D89081
:1029F0001732163215321432E82EF9D7010E14169A
:102A000044503CC018F03DC019F03EC01AF03FC021
:102A10001BF0E82A05D0D8901B321A32193218322E
:102A2000E82EF9D71850010B14181DE044C014F01B
:102A3000010E156E166A142A03D0D8901536163674
:102A4000142EFBD7151C176E161C186E196A18BEAB
:102A5000190619501A6E1750381618503916195091
:102A60003A161A503B16442A1F0E4464B5D74050FC
:102A70003C1641503D1642503E1643503F164550BD
:102A80004FE0446A45C014F04550156E166AD89060
:102A900015361636D89015361636D89015361636A1
:102AA000430E15240A6E000E16200B6E93EC27F0D1
:102AB000176E142A02D0D8901732142EFCD7010EAC
:102AC000171645C018F037C019F0182A02D0D89050
:102AD0001932182EFCD71950010B17181DE045C0EC
:102AE00014F0010E156E166A142A03D0D89015360C
:102AF0001636142EFBD715C017F016C018F0000EAE
:102B000018BEFF0E196E1A6E175038161850391667
:102B100019503A161A503B16442A070E4464B2D78D
:102B20004550146E156AD89014361536D890143660
:102B30001536D89014361536430E14240A6E000E3E
:102B400015200B6E93EC27F0376E452A030E456473
:102B5000FDD5800E87EC27F00E010E0E0B6EFC0EDD
:102B60000A6E38C00CF039C00DF03AC00EF03BC010
:102B70000FF0010E106E05EC1EF00E0146830E0ED6
:102B80000B6EE40E0A6E3CC00CF03DC00DF03EC072
:102B90000EF03FC00FF0010E106E05EC1EF0000E9F
:102BA00087EF27F07B517A11D8B41200F66BF651FB
:102BB000EC6FED6BD890EC37ED37D890EC37ED3704
:102BC000D890EC37ED37B60EEC250A6E000EED21ED
:102BD0000B6E93EC27F00001F56FF5AF53D1F5AD17
:102BE00018D0F651EC6FED6BD890EC37ED37D890EC
:102BF000EC37ED37D890EC37ED37B60EEC250A6E92
:102C0000000EED210B6E93EC27F000017D1901E021
:102C100039D1F5A912D07F2910E0000EF66E0F0E03
:102C2000F76E000EF86E0800F5500A6E0B6A93EC12
:102C300027F000017F1901E025D1F5A715D08029E3
:102C400013E0000EEC6FEC2BECC0F6FF0F0EF76EEE
:102C5000000EF86E0800F5500A6E0B6A93EC27F030
:102C60000001801901E00ED1F651080DB90EF324D0
:102C70000A6E000EF4200B6E93EC27F00001EC6F4F
:102C8000F551010BEE6FED6BEC51ED25EF6F000E82
:102C9000EE21F06FF651080DB80EF3240A6E000E07
:102CA000F4200B6E93EC27F00001EC6FF551020B52
:102CB000ED6FEE6B070ED890ED37EE37E82EFBD7B1
:102CC000EC51ED25F16F000EEE21F26FF651EC6F35
:102CD000ED6BD890EC37ED37D890EC37ED37D890D6
:102CE000EC37ED37BB0EEC250A6E000EED210B6EB6
:102CF00093EC27F00001F36FF651EC6FED6BD89079
:102D0000EC37ED37D890EC37ED37D890EC37ED371E
:102D1000BA0EEC250A6E000EED210B6E93EC27F037
:102D20000001F46F20EE7AF0DECFECF0DDCFEDF0B5
:102D3000EF51EC1BF051ED1BF151EC17F251ED1777
:102D4000ED51EC1101E09ED07C51F319F41579E0BE
:102D500099D00001F651EC6FED6BD890EC37ED3760
:102D6000D890EC37ED37D890EC37ED37BD0EEC2529
:102D70000A6E000EED210B6E93EC27F0F6EC27F0B7
:102D800081D00001F651EC6FED6BD890EC37ED3748
:102D9000D890EC37ED37D890EC37ED37BD0EEC25F9
:102DA0000A6E000EED210B6E93EC27F0EFEC27F08E
:102DB00069D00001F651EC6FED6BD890EC37ED3730
:102DC000D890EC37ED37D890EC37ED37BD0EEC25C9
:102DD0000A6E000EED210B6E93EC27F0A7EC25F0A8
:102DE00051D00001F651EC6FED6BD890EC37ED3718
:102DF000D890EC37ED37D890EC37ED37BD0EEC2599
:102E00000A6E000EED210B6E93EC27F0D7EC24F048
:102E100039D00001F651EC6FED6BD890EC37ED37FF
:102E2000D890EC37ED37D890EC37ED37BD0EEC2568
:102E30000A6E000EED210B6E93EC27F0FFEC24F0F0
:102E400021D0F651EC6FED6BD890EC37ED37D89080
:102E5000EC37ED37D890EC37ED37BC0EEC250A6E29
:102E6000000EED210B6E93EC27F0000A0BE0010A37
:102E700001E16FD7030A85E0010A9BE0070AB1E090
:102E8000010AC7E00001F62B030EF66590D6030C8D
:102E9000E8CFC4F0C451040DF3CF46F00F0E462620
:102EA0004650510F476E47C0F6FF0F0EF76E000EEB
:102EB000F86E0800F5500A6E0B6A93EC27F00001DB
:102EC000C06FC451040DF3CF46F00E0E4626465097
:102ED000510F476E47C0F6FF0F0EF76E000EF86EEB
:102EE0000800F5500A6E0B6A93EC27F00001C16FE1
:102EF000C451040DF3CF46F00D0E46264650510F37
:102F0000476E47C0F6FF0F0EF76E000EF86E080012
:102F1000F5500A6E0B6A93EC27F00001C26FC451A2
:102F2000040DF3CF46F00C0E46264650510F476E67
:102F300047C0F6FF0F0EF76E000EF86E0800F55052
:102F40000A6E0B6A93EC27F00001C36FC0C0B4F0A7
:102F5000C1C0B5F0C2C0B6F0C3C0B7F0C451040DD3
:102F6000F3CF46F01F0E46264650510F476E47C01E
:102F7000F6FF0F0EF76E000EF86E0800F5500A6EA1
:102F80000B6A93EC27F00001C06FC451040DF3CF1E
:102F900046F01E0E46264650510F476E47C0F6FFBC
:102FA0000F0EF76E000EF86E0800F5500A6E0B6AF1
:102FB00093EC27F00001C16FC451040DF3CF46F02C
:102FC0001D0E46264650510F476E47C0F6FF0F0EA6
:102FD000F76E000EF86E0800F5500A6E0B6A93EC5F
:102FE00027F00001C26FC451040DF3CF46F01C0E50
:102FF00046264650510F476E47C0F6FF0F0EF76E3C
:10300000000EF86E0800F5500A6E0B6A93EC27F07C
:103010000001C36FC0C0B8F0C1C0B9F0C2C0BAF0FF
:10302000C3C0BBF0B4C01CF0B5C01DF0B6C01EF0EC
:10303000B7C01FF0C451020DF350940FD96EDA6A75
:10304000DECF14F0DDCF15F06CEC26F017C01BF0CE
:1030500016C01AF015C019F014C018F0FEEC20F0DC
:103060001BC0BFF01AC0BEF019C0BDF018C0BCF044
:103070002B6AC00E2C6E7F0E2D6E440E2E6E1C6AB7
:103080001D6AA00E1E6E400E1F6EBCC018F0BDC0A3
:1030900019F0BEC01AF0BFC01BF0FEEC20F01BC040
:1030A0002AF01AC029F019C028F018C027F07EECC9
:1030B00022F02AC039F029C038F028C037F027C0E4
:1030C00036F0B8C03AF0B9C03BF0BAC03CF0BBC073
:1030D0003DF055EC1DF039C045F038C044F037C024
:1030E00043F036C042F01200E8CF16F0506A72503A
:1030F000C00B186E186630D060AE12D0779071AEEB
:1031000006D01350D96EDA6A000EDB86719E60A07D
:1031100002D0508001D050900F0E1B6E600E1AD05E
:103120000F0130AF000C779271AC06D01350D96EFE
:10313000DA6A000EDB86719C3051070B506E020E6E
:10314000506005D01350D96EDA6A000EDB8E0F0E78
:103150001B6E300E1A6E5BD01850400A3EE160AE16
:1031600004D00F0E1B6E600E36D00F0130AF04D0AE
:103170000F0E1B6E300E2FD00E017DA580AF04D038
:103180000E0E1B6E800E27D00E017DA790AF04D0CF
:103190000E0E1B6E900E1FD00E017DA9A0AF04D0A5
:1031A0000E0E1B6EA00E17D00E017DABB0AF04D07B
:1031B0000E0E1B6EB00E0FD00E017DADC0AF04D051
:1031C0000E0E1B6EC00E07D00E017DAFD0AF000CEF
:1031D0000E0E1B6ED00E1A6E0AD071AE000C6F5020
:1031E000070B9FEC23F00AC01AF00BC01BF01AC0AB
:1031F000D9FF1BC0DAFFDF501F0B506E779271AC06
:1032000006D01350D96EDA6A000EDB86719C1AC0A4
:1032100014F01BC015F01350D96EDA6ADF6A20EE85
:1032200005F01A50D9261B50DA22DF50196E1250C1
:10323000D96EDA6A19500F0BDF6E19AC05D0135036
:10324000D96EDA6A000EDB8C20EE02F01A50D92615
:103250001B50DA22DF50196E19A608D01350D96E10
:10326000DA6A000EDB8A010E196E01D0196A1A287B
:103270000A6E000E1B200B6E16C00CF019C00DF06C
:10328000F3EC1BF0060E1A26000E1B221250D96E0C
:10329000DA6ADF50196E176A0DD01AC0D9FF1BC049
:1032A000DAFF1150E16EE26ADFCFE7FF1A4A1B2A0C
:1032B000112A172A1950175CF0E377AE06D0135085
:1032C000D96EDA6A000EDB88779E14C0D9FF15C06C
:1032D000DAFF7F0EDF161850800AD8B4719E010CF9
:1032E000E8CFDAF0D96B6B516A1155E1130EDA6150
:1032F00010D0DA51000F486E48C0F6FF0F0EF76E7F
:10330000000EF86E0800F5500A6E0B6A93EC27F079
:10331000D2D0DA51130A02E19551CED0DA51140A13
:1033200003E194C0D9F0C9D0DA51150A02E19751EE
:10333000C3D0DA51160A03E196C0D9F0BED0DA51F3
:10334000170A02E19951B8D0DA51180A03E198C07E
:10335000D9F0B3D0DA51190A02E19B51ADD0DA515C
:103360001A0A03E19AC0D9F0A8D01A0EDA6504D07F
:10337000500EDA6101D0BDD7DA51500A01E09DD07C
:103380008238E832010B486E8238010B496ED890C2
:103390004934481091D06A056B117EE12C0EDA6138
:1033A00010D0DA51510F486E48C0F6FF0F0EF76E7D
:1033B000000EF86E0800F5500A6E0B6A93EC27F0C9
:1033C0007AD02B0EDA6517D0300EDA6114D0000EE9
:1033D00048EC17F045C0C8F044C0C7F043C0C6F081
:1033E00042C0C5F00001C50ED56FD551DA25D96EA2
:1033F000DA6AD40E4DD02F0EDA6517D0340EDA61AA
:1034000014D0010E48EC17F045C0CCF044C0CBF00E
:1034100043C0CAF042C0C9F00001C90ED66FD651F0
:10342000DA25D96EDA6AD00E33D0330EDA6517D0CA
:10343000380EDA6114D0020E48EC17F045C0D0F017
:1034400044C0CFF043C0CEF042C0CDF00001CD0E5D
:10345000D76FD751DA25D96EDA6ACC0E19D0370E6C
:10346000DA652BD03C0EDA6128D0030E48EC17F059
:1034700045C0D4F044C0D3F043C0D2F042C0D1F034
:103480000001D10ED86FD851DA25D96EDA6AC80E8C
:10349000D926DA6ADF5010D06A51020A6B110DE1A9
:1034A000200EDA610AD0B60EDA250A6E0B6A000E1B
:1034B0000B2293EC27F00001D96FD9511200E8CF0D
:1034C0001EF01D6A1E50800A04E151C01DF0516AB1
:1034D000CCD01E50810A02E1010E82D01E50820A19
:1034E00002E1060E7DD01E50830A03E152C01DF09A
:1034F000BCD01E50940A03E121EC28F071D01E507C
:10350000950A03E120EC28F06BD01E50960A03E1E7
:103510001FEC28F065D0890E1E6005D01E507C0F70
:10352000BFEC27F05DD0880E1E6408D0910E1E609F
:1035300005D01E50770FB5EC27F052D01E50910ADF
:1035400003E173C01DF091D01E50930A03E16AC0DD
:103550001DF08BD01E50920A02E16B5141D01E50DB
:10356000970A03E11EEC28F03BD01E50980A03E1B5
:103570001DEC28F035D01E50990A03E11CEC28F010
:103580002FD0990E1E642ED09E0E1E602BD002EC02
:1035900028F00DC016F00CC015F00BC014F00AC0D6
:1035A00013F01E50660F1B6E1B5003080E6ED89052
:1035B0000E36D8900E36D8900E360E5013C00FF03F
:1035C00014C010F015C011F016C012F0E82A05D092
:1035D000D8901232113210320F32E82EF9D730D093
:1035E0001D6E43D09D0E1E642DD0A20E1E602AD0EB
:1035F000FDEC27F00DC01AF00CC019F00BC018F04C
:103600000AC017F01E50620F1C6E1C5003080E6E8D
:10361000D8900E36D8900E36D8900E360E5017C071
:103620000FF018C010F019C011F01AC012F0E82AFB
:1036300005D0D8901232113210320F32E82EF9D75D
:103640000F50CED7CF0E1E6408D0E00E1E6005D0FE
:103650001E50300FC9EC27F0C3D7DF0E1E6405D013
:103660001E50200F6DEC27F0BBD71D501200E8CF85
:10367000DCF04A1CDB6F6B516A1167E1130EDC61F1
:1036800025D010EC28F00001DC51000F4B6E4BC030
:10369000F6FF0F0EF76E000EF86E0800F5500A6E7A
:1036A0000B6A4AC00CF08AEC25F00001DC51000FD7
:1036B0004B6E4BC0F6FF0F0EF76E000EF86E080053
:1036C000F5500A6E0B6A93EC27F089D0120EDC6578
:1036D00004D04F0EDC6101D0D4D7DC514F0A12E187
:1036E0004AA001D0948A4AB001D0949A4AC04BF0C3
:1036F000D8904B324B30D8A001D09488D8B001D0AC
:103700009498BFD7DC51500A6CE1010E4AA0000E1C
:103710004B6E4B3A4B468B504B18DF0B4B188B6E56
:10372000010E4AA2000E4B6E4B3A8B504B18EF0B1A
:103730004B188B6E8238E832010B4B6E8238010BCE
:103740004C6ED8904C344B104BD06A056B1128E16D
:103750002C0EDC6146D010EC28F00001DC51510F3A
:103760004B6E4BC0F6FF0F0EF76E000EF86E0800A2
:10377000F5500A6E0B6A4AC00CF08AEC25F0000185
:10378000DC51510F4B6E4BC0F6FF0F0EF76E000E63
:10379000F86E0800F5500A6E0B6A93EC27F01FD004
:1037A0006A51030A6B111DE1200EDC611AD010EC86
:1037B00028F0B60E0001DC250A6E0B6A000E0B2203
:1037C0004AC00CF08AEC25F09DEC13F0B60E000117
:1037D000DC250A6E0B6A000E0B2293EC27F0000129
:1037E000DB6FDB5112000CC010F00D6646D010509C
:1037F000D96EDA6A0AC0E1FF0BC0E2FFE7500E6E35
:10380000D8900E36D8900E36D8900E34DF6E105009
:10381000D96EDA6AD92ADA6A0AC0E1FF0BC0E2FF80
:10382000E7500E6E050E0F6ED8900E320F2EFCD79D
:103830000E50DF6E0A4A0B2A0AC0D9FF0BC0DAFF0E
:10384000DF500E6E050E0F6ED8900E320F2EFCD785
:103850001050D96EDA6A0E50DF121050D96EDA6A43
:10386000020ED926DA6ADF6A1050D96EDA6A030EC0
:10387000D926DA6A000EDF6E000C1050D96EDA6AB3
:10388000020ED926DA6A0AC0E1FF0BC0E2FFE75058
:103890000E6E050E0F6ED8900E360F2EFCD70E5002
:1038A000DF6E1050D96EDA6A030ED926DA6A0AC0C2
:1038B000E1FF0BC0E2FFE7500E6ED8900E32D890B9
:1038C0000E32D8900E30DF6E0A4A0B2A0AC0D9FF9A
:1038D0000BC0DAFFDF500E6E030E0E161050D96EBD
:1038E000DA6A020ED926DA6A0E50DF120AC0D9FF50
:1038F0000BC0DAFFDF500E6ED8900E32D8900E3229
:10390000D8900E321C0E0E161050D96EDA6A020EC6
:10391000D926DA6A0E50DF120A4A0B2A0AC0D9FFEA
:103920000BC0DAFF1050E16EE26AE12AE26ADFCFF3
:10393000E7FF0A4A0B2A0AC0D9FF0BC0DAFF105072
:10394000E16EE26ADFCFE7FF12000F0E1D6E200E60
:103950001C6E0F0E1F6E100E1E6E0F0E216E206A53
:103960000E010E0E236E800E226E0E0E256E900E30
:10397000246E0E0E276EA00E266E0E0E296EB00E51
:10398000286E0E0E2B6EC00E2A6E0E0E2D6ED00EF1
:103990002C6E7250C00B2E6E2E6602D0020E01D01D
:1039A000080E2F6ED8907D31316E356A7AD0355041
:1039B000020DF3501C0FD96EDA6ADECF36F0DDCF80
:1039C00037F036C032F037C033F0020E356404D021
:1039D000D890313231A064D036C0D9FF37C0DAFF79
:1039E000DF501B6E1BB65CD036C0D9FF37C0DAFF84
:1039F000FC0EDF161AC01BF0030E1B1636C0D9FFD3
:103A000037C0DAFF1B50DF121AAC04D0195040093E
:103A1000346E02D019C034F020EE05F03650D926AD
:103A20003750DA2234C0DFFF1AAA03D0010E346EF9
:103A300001D0346A36280A6E000E37200B6E14C08F
:103A40000CF015C00DF016C00EF017C00FF034C00A
:103A500010F005EC1EF0060E3626000E3722306AF6
:103A60000DD01850D96EDA6A36C0E1FF37C0E2FFD8
:103A7000DFCFE7FF182A364A372A302A1950305C40
:103A8000F0E332C0D9FF33C0DAFFDF501B6E1BB446
:103A9000010C32C0D9FF33C0DAFF000EDB86010C07
:103AA000352A2F50355C83E3000C38343934416EAD
:103AB0003C343D34406E415009E0405041600FD0ED
:103AC0004150405C3E6E210E3E5C09E33AC036F048
:103AD0003BC037F03CC038F03DC039F012004050D8
:103AE00009E0415040600FD04050415C3E6E210ED5
:103AF0003E5C09E336C036F037C037F038C038F0E6
:103B000039C039F01200060E3F6E39BE3F8E3DBE01
:103B10003F8C388E396A3C8E3D6A4050416018D0E7
:103B2000D8903A363B363C363D3640064050411838
:103B30000BE03F063F50070B07E0F2D7D890393231
:103B4000383237323632412A40504162F7D71AD0E4
:103B50004150406017D0D89036363736383639362F
:103B60004106405041180BE03F063F50070B07E06D
:103B7000F2D7D8903D323C323B323A32402A405064
:103B80004162F7D73FAE09D0361E371E381E391EA8
:103B9000362A000E3722382239223FAC09D03A1E8D
:103BA0003B1E3C1E3D1E3A2A000E3B223C223D227B
:103BB0003F6A36503A2637503B2238503C22395023
:103BC0003D223DAE0BD03A1E3B1E3C1E3D1E3A2A06
:103BD000000E3B223C223D22010E3F6E3AC00AF00D
:103BE0003BC00BF03CC00CF03DC00DF041C00EF0EE
:103BF0003FC00FF06AEC21F00DC039F00CC038F076
:103C00000BC037F00AC036F012000C0E136E1066AF
:103C100037D01350D96EDA6ADF50116ED890113256
:103C2000D8901132D89011300AC0D9FF0BC0DAFFFA
:103C3000DF6E1350D96EDA6AD92ADA6ADF50116E54
:103C4000050E126ED8901136122EFCD70AC0D9FF7D
:103C50000BC0DAFF1150DF120A4A0B2A1350D96E3B
:103C6000DA6ADF50116E050E126ED8901136122EE0
:103C7000FCD711500AC0D9FF0BC0DAFFDF6E12006B
:103C80001350D96EDA6A020ED926DA6ADF50116E45
:103C9000050E126ED8901132122EFCD711500AC0A8
:103CA000D9FF0BC0DAFFDF6E1350D96EDA6A030E4C
:103CB000D926DA6ADF50116ED8901136D8901136B5
:103CC000D89011360AC0D9FF0BC0DAFF1150DF12AD
:103CD0000A4A0B2A1350D96EDA6A020ED926DA6A1A
:103CE000DF50116ED8901136D8901136D89011341B
:103CF000E00B0AC0D9FF0BC0DAFFDF6E0AC0D9FFA4
:103D00000BC0DAFF000EDB861350D96EDA6A020EA2
:103D1000D926DA6ADF50116E030E11160AC0D9FFD8
:103D20000BC0DAFF1150DF120A4A0B2A1350D96E6A
:103D3000DA6AD92ADA6A0AC0E1FF0BC0E2FFDFCFF4
:103D4000E7FF0A4A0B2A1350D96EDA6A0AC0E1FF6C
:103D50000BC0E2FFDFCFE7FF1200E8CFDAF0DA5165
:103D6000020DF3509C0FD96EDA6ADE6ADD6ADA5111
:103D700048EC17F045C0D8F044C0D7F043C0D6F0A7
:103D800042C0D5F00001DA51030DF350510F4A6ED5
:103D90004AC0F6FF0F0EF76E000EF86E0800F550E1
:103DA0000A6E0B6A93EC27F0180BA0090001DA25C4
:103DB000C86FD50ED96FD951D96EDA6A030ED926DC
:103DC000DA6ADF50CC6FD951D96EDA6A020ED92681
:103DD000DA6ADF50CB6FD951D96EDA6AD92ADA6A3A
:103DE000DF50CA6FD951D96EDA6ADF50C96FDA5124
:103DF000030DF350510F4A6E4AC0F6FF0F0EF76ED7
:103E0000000EF86E0800F5500A6E0B6A93EC27F06E
:103E10004B6E4BBC04D00001D36BD46B04D0020EAC
:103E20000001D46FD36BDA51030DF3CF4AF04A2A65
:103E30004A50510F4B6E4BC0F6FF0F0EF76E000E3F
:103E4000F86E0800F5500A6E0B6A93EC27F000013B
:103E5000D325D06F000ED421D16FDA51030DF3CFEB
:103E60004AF0020E4A264A50510F4B6E4BC0F6FFE5
:103E70000F0EF76E000EF86E0800F5500A6E0B6A12
:103E800093EC27F00001D26FD0C03FF0D1C040F0DA
:103E9000D2C041F073C042F0030E436E050E446E73
:103EA000C80E456E26EF22F0E8CFE3F0E06BE16B41
:103EB000E26BDB2910E0000EF66E0F0EF76E000EBF
:103EC000F86E0800F5500A6E0B6A93EC27F00001BB
:103ED000DB19D8A41200DC2913E0000E4C6E4C2A2A
:103EE0004CC0F6FF0F0EF76E000EF86E0800F5508E
:103EF0000A6E0B6A93EC27F00001DC19D8A41200BB
:103F0000E351F00BF00A04E1010EE06FE16FE26FA4
:103F1000E05127E0E66BE76BE6C04CF0010E4D6E1A
:103F20004C2A02D0D8904D364C2EFCD74D50E3157C
:103F30000FE0E6C0C8F0E651020DF350940FD96EC1
:103F4000DA6ADECFC9F0DDCFCAF0020EDEEC25F072
:103F5000E64BE72BE751800A800F040ED8B4E65DEC
:103F6000DBE3E1511BE0E46BE56BE4C04CF0010ED8
:103F70004D6E4C2A02D0D8904D364C2EFCD74D5069
:103F8000E31503E0E451ADEC1EF0E44BE52BE55105
:103F9000800A800F040ED8B4E45DE7E3E251D8B4A0
:103FA0001200300EDD6FDE6B8238E832010B4C6E92
:103FB0008238010B4D6ED8904D344C10DF6F406A43
:103FC0000F0E3F6E010E416E73C042F0030E436E42
:103FD000446EDD0E456E26EF22F0E8CFBDF0481CA2
:103FE000BC6FBD51830A02E1526A81D0830EBD6568
:103FF00010D0890EBD610DD048C00EF0BD517C0FB0
:104000005FEC27F00001BD517C0FBFEC27F00001F1
:104010003BD0BD51920A0DE148504A6E496A6A513F
:104020004B6E4C6A49106A6F4A504C106B6F6B5163
:104030002BD0BD51930A0BE1496A6B514A6E48502F
:1040400049106A6F4A506B6F6AC0BCF051D0880E3D
:10405000BD651CD0910EBD6119D06BC049F049C03F
:104060004AF04B6A4A2802E16A2902E0481C0CD057
:1040700048C00EF0BD51770FCFEC26F00001BD51C6
:10408000770FB5EC27F0C3D7BC6F32D0CF0EBD652C
:1040900018D0E00EBD6115D06BC049F049C04AF0A0
:1040A0004B6A4A28E3E16A29E1E148C00EF0BD51BC
:1040B000300FE1EC26F00001BD51300FC9EC27F0C4
:1040C000A6D7BD51A20AD2E14850550A04E1666B59
:1040D000676B550ED9D74850AA0A0AE1E80E665D0B
:1040E000030E675904E20CEC28F0AA0ECDD7BC6B86
:1040F000BC511200F8EC25F06DEC25F00009D8B4A5
:10410000CFEC07F018EC24F084EC24F09DEC13F0D5
:104110000400C50E0001685D090E69590EE37405BF
:104120000CE0736910EC28F00B6A010E0A6EFF0EAA
:104130000C688AEC25F084EC24F0786B41EC26F0D6
:104140002BD0732903E1010E746F32D0030E746F0C
:1041500041EC27F02DD0CAEC21F02AD078AF28D03E
:104160007B517A1103E16DEC10F022D0D2EC15F006
:104170007A511E0A7B111CE17C511A0A19E17FC099
:10418000DBF080C0DCF07E5154EC1FF011D013EC5A
:1041900028F00ED0746B0CD000017451D2E0010AEB
:1041A000DAE0030AD5E0010AD9E0070AF0E0F2D725
:1041B000E90E0001605D030E6159000E6259000EA8
:1041C00063590BE3606B616B626B636BAEEC24F065
:1041D0007451030AD8B41BEC28F03B0E70650BD069
:1041E000706B6F2B3B0E6F6502D06F6B6E2B170ED3
:1041F0006E6501D06E6B39EC0CF08AD71A341B3423
:10420000206E206605D0186A196A1A6A1B6A1200A5
:104210001E341F34266E266605D0186A196A1A6A7B
:104220001B6A120026507B0F20261BC026F01F5051
:10423000261A800E26161A8E1E8E000E1F16216A52
:10424000226A236A246A070E256E18A008D01C5023
:1042500021261D5022221E5023221F502422D89096
:104260001B321A3219321832D8901C361D361E36BF
:104270001F36252EEAD7110E256E18A008D01C5027
:1042800021261D5022221E5023221F502422D89066
:104290001B321A3219321832D89024322332223289
:1042A0002132252EEAD721C00AF022C00BF023C00C
:1042B0000CF024C00DF020C00EF026C00FF06AEC08
:1042C00021F00DC01BF00CC01AF00BC019F00AC091
:1042D00018F012000E5005E00D500A100B100C10D3
:1042E0000BE10A6A0B6A0C6A0D6A12000E2AD8905A
:1042F0000D320C320B320A32106A116A126AFE0E4B
:104300000D14136E13501010111012100CE0EED794
:104310000E2A0A2A000E0B220C220D22D8900D32F2
:104320000C320B320A32106A116A126A0D50136E87
:10433000135010101110121007E0EAD70E06D89093
:104340000A360B360C360D360CAEF8D70EB002D04E
:104350007F0E0C16D8900E320EC010F0116A126A41
:10436000136A10C013F0126A116A106A10500A1210
:1043700011500B1212500C1213500D120F50D8A4E2
:104380000D8E0AC00AF00BC00BF00CC00CF00DC073
:104390000DF0120051D0552811E0810E866F876B09
:1043A000886B896B020E8A6F55C08CF02AEC26F060
:1043B000010E0001756F4E6A4F6A45D0040E746F8E
:1043C000810E866F8C69070E876F886B896B030E71
:1043D0008A6F2AEC26F037D078AF0FD07B517A1154
:1043E00032E17C51030A2FE1556603D0020E746F4F
:1043F000E2D7552A756B766B26D0E90E4E5C030E1C
:104400004F5821E3762B020E766514D0556605D001
:10441000552A756B4E6A4F6AEED755C073F0030E7E
:10442000746F756B7351AAEC27F00001766B41EC49
:1044300027F009D0756B07D000017551ACE0010A77
:10444000CBE0030AF7E10001786B120041C0B4F041
:10445000B56BB66BB76BB6C0B7F0B5C0B6F0B4C04D
:10446000B5F0B46B3F50B86F4050B96FBA6BBB6BCF
:10447000B9C0BBF0B8C0BAF0B96BB86B43C0BCF000
:10448000BD6BBE6BBF6B1A0ED890BC37BD37BE3745
:10449000BF37E82EF9D7B851BC11C06FB951BD1163
:1044A000C16FBA51BE11C26FBB51BF11C36FB451BE
:1044B000C011C46FB551C111C56FB651C211C66FDD
:1044C000B751C311C76F4250C411466EC551476EF4
:1044D000C651486EC751496E46C038F047C039F0E2
:1044E00048C03AF049C03BF044C03CF045C03DF004
:1044F0004AEC25F0000901E1000C010C29342A34B2
:10450000346E346605D0276A286A296A2A6A12003E
:104510002D342E34356E356605D0276A286A296A0F
:104520002A6A12003550890F345E2AC035F02E50A9
:10453000351A800E3516298E2A6A2D8E2E6A200E87
:10454000336ED8902F363036313632362B50275CCA
:104550002C5028582D5029582E502A5809E32B50FA
:10456000275E2C50285A2D50295A2E502A5A2F8017
:10457000D8902736283629362A36332EE2D72FC050
:104580000AF030C00BF031C00CF032C00DF034C076
:104590000EF035C00FF06AEC21F00DC02AF00CC00F
:1045A00029F00BC028F00AC027F01200800E87EC1B
:1045B00027F0090E0E01436FFC0E446F010E456F8C
:1045C000200E706E728E729C606A0F01306B0E014D
:1045D000806B906BA06BB06BC06BD06BE00E7D6F8F
:1045E000E06B080EE16FE26BE36BE46BE80EE56FE6
:1045F0001A0EE66FE76B030E466F476B716B110E79
:10460000726F736F746B756B766B776B786B540E20
:10461000796F050E7A6F7B6B7B6B0F0EF86FE00E78
:10462000F96FFA6BFB6BF9870F0EFC6FE00EFD6FF5
:10463000FE69FF6BFD87000E87EF27F0E8CFCDF016
:10464000CDC0CAF0CD51030B020DF3CF4AF00A0ED4
:104650004A264A50000F4B6E4BC0F6FF0F0EF76E06
:10466000000EF86E0800F5500A6E0B6A93EC27F006
:104670000001CB6FCD51030B020DF3CF4AF00B0EAF
:104680004A264A50000F4B6E4BC0F6FF0F0EF76ED6
:10469000000EF86E0800F5500A6E0B6A93EC27F0D6
:1046A0000001CC6FC8C03FF0406AC9C041F073C080
:1046B00042F0030E436E446ECA0E456E26EF22F0A2
:1046C000E8CFCBF0CBC0C8F0CBC04AF0030E4A16FF
:1046D000020E4A264A50000F4B6E4BC0F6FF0F0EDB
:1046E000F76E000EF86E0800F5500A6E0B6A93EC38
:1046F00027F00001C96FCBC04AF0030E4A164A26C4
:104700004A50000F4B6E4BC0F6FF0F0EF76E000EB7
:10471000F86E0800F5500A6E0B6A93EC27F0000162
:10472000CA6F406A010E3F6E020E416E73C042F0C6
:10473000436A030E446EC80E456E26EF22F0E8CFA2
:104740000DF028D00F0E0F6E600E22D00F010F0E4D
:104750000F6E300E1DD00E010E0E0F6E800E18D093
:104760000E010E0E0F6E900E13D00E010E0E0F6E78
:10477000A00E0ED00E010E0E0F6EB00E09D00E015F
:104780000E0E0F6EC00E04D00E010E0E0F6ED00E68
:104790000E6E0FD00D50D6E0010AD8E0030ADBE020
:1047A000010ADEE0070AE1E0010AE4E0030AE7E0CB
:1047B000EBD70EC00AF00FC00BF01200E8CF29F0C3
:1047C00023C01CF024C01DF02A0EBCEC26F000090A
:1047D00001E1000C2150D96EDA6A2AC0DFFF2050B7
:1047E000D96EDA6A2BC0DFFF2C50256E010E2D1416
:1047F000266E2950D96EDA6A25C0DEFF26C0DDFF9D
:104800002250D96EDA6A2AC025F02BC026F02CC0BF
:1048100027F02DC028F01B0E05D0D8902832273263
:1048200026322532E82EF9D72550070BDF6E010C12
:104830000001606B616B626B636B706B6F6B6E6BB7
:104840000B6A0A6A0D6A080E0C6E940E95EC26F03F
:104850000B6A0A6A0D6A040E0C6E0001B00E95EC2C
:1048600026F00B6A0A6A0D6A040E0C6E0001AC0E8B
:1048700095EC26F00B6A0A6A0D6A080E0C6E0001B0
:10488000A40E95EC26F00B6A0A6A0D6A080E0C6EEF
:1048900000019C0E95EC26F000016C6B6D6B120014
:1048A000E8CF0AF00A50D96EDA6A040EDF6E0A50B9
:1048B000D96EDA6AD92ADA6ADF6A0A50D96EDA6AF8
:1048C000020ED926DA6ADF6A0A50D96EDA6A030E56
:1048D000D926DA6A030EDF6E0A50D96EDA6A040E40
:1048E000D926DA6ADF6A0A50D96EDA6A050ED92645
:1048F000DA6A030EDF6E0A50D96EDA6A060ED9261E
:10490000DA6A000EDF6E000C0001686B696B010E45
:10491000546E07EC28F00001736F736701D0736960
:10492000732902E1020E546E786B796B7A6B7B6BA4
:104930007C6B866B876B886B896B8A6B526A516A5A
:10494000556A746B756B766B6A6B6B6B4E6A4F6AEC
:10495000666B676B776B726B716B1200772B3B0E1C
:1049600077650DD0776B722B7451030A08E114EC54
:1049700027F00001C86F7BEC27F0A9EC26F03B0E76
:104980000001726502D0726B712B170E716501D038
:10499000716B7451030AD8A41200532A53C04CF00F
:1049A0000F0E4C16020E4C5CD8B0536A1200E8CFC2
:1049B000E9F0000EF66E0F0EF76E000EF86E0800AE
:1049C000F5500A6E0B6A93EC27F00001EA6F000EB7
:1049D000E86FE82BE8C0F6FF0F0EF76E000EF86EDA
:1049E0000800F5500A6E0B6A93EC27F00001EB6F9C
:1049F000EAC0DBF0EBC0DCF0E95154EF1FF0000E31
:104A0000F66E0F0EF76E000EF86E0800F5500A6E87
:104A10000B6A93EC27F00001E96F000EE86FE82BBA
:104A2000E8C0F6FF0F0EF76E000EF86E0800F550A6
:104A30000A6E0B6A93EC27F00001EA6FE9C0DBF025
:104A4000EAC0DCF0FF0E54EF1FF0E8CF0EF0C26AB0
:104A5000C16AC06A0A507C0BC26E0BC0C1FF0EC097
:104A60000CF0D8900C36D8900C36380E0C160EC0C0
:104A70000DF00D3A0F0E0D16070E0D160E50800B91
:104A80000D100C10C06E0AAE03D09E9C9D8CF28C53
:104A9000C28012003E6A646B656B15D038C014F09A
:104AA00039C015F03AC016F03BC017F03DC018F001
:104AB0003CC019F0200E1A6EA5EC1CF0000903E0B2
:104AC000010E3E6E06D0E80E0001645D030E6559CE
:104AD000E5E30001866B3E501200000ED3EC27F098
:104AE000550A06E1010ED3EC27F0AA0A01E1010CF8
:104AF000020E546E15EC28F0FF0EAAEC27F0550EAE
:104B00000E6E000EF3EC26F0AA0E0E6E010EF3EC04
:104B100026F0000C0B50030B756E0AC074FF0CC01E
:104B200073FF7F9E7F9C7F84000EF2BE010E0D6E90
:104B3000F29E550E7E6EAA0E7E6E7F827FB2FED7EB
:104B40000DB002D0F29E01D0F28E7F941200E8CF19
:104B50000BF00BA00BD0010E8BBA000E0A6E0A3AB6
:104B60000A468B500A18DF0B0A188B6E0BA2120034
:104B7000010E8BB8000E0A6E0A3A8B500A18EF0B22
:104B80000A188B6E120078510F0B020AD8A412007B
:104B9000735120EE7EF0DF6212007FC073F073511C
:104BA000AAEC27F0810E0001866F876B886B896BFA
:104BB000070E8A6F73C08CF02AEF26F0E8CFCBF097
:104BC000C851600FCC6FCD6BCE6BCA51CF6FC9C0CF
:104BD000D0F0406A0F0E3F6ECBC041F073C042F080
:104BE000030E436E050E446ECC0E456E26EF22F08A
:104BF0001F0E926E010E946E826A920E50EC27F098
:104C0000FB0E0B6E1D0E0A6EDDEC27F0830E0A6E96
:104C10000F0E0B6EEF0E25EC25F0D6EC22F0F28E87
:104C200017EF28F078510F0B0F6E0F50D8B4120009
:104C3000735120EE7EF0DF6212000F0405E0010EDA
:104C40000F64010C7F67010C7369FF0EAAEC27F05B
:104C500084EF24F088C03FF089C040F08AC041F062
:104C600073C042F087C043F086510F0B446E8C0E28
:104C7000456E26EC22F04A6E4A6601D0522A4A500E
:104C8000120078BF12007C0E206E7D0E216E790E10
:104C9000226E780E236E7E0E246E7A0EDEEC23F0EA
:104CA0002E6E2E50D8B412000001788F120078C0FA
:104CB0004BF00F0E4B164B04D8A41200735120EE8C
:104CC0007EF0DF621200800E866F876B886B896BC7
:104CD000030E8A6F2AEF26F014C00AF015C00BF0FD
:104CE0000C6A0D6A960E0E6E000E0F6A6AEC21F0C9
:104CF0000DC017F00CC016F00BC015F00AC014F070
:104D00001200E8CF0BF0080E0C6E0D6AD8900B3431
:104D10000D340D6ED8900B360A500D5C02E30A502C
:104D20000D5E0C2EF3D70D501200E8CF0EF00EC022
:104D30000FF006D00F50D96EDA6A0AC0DFFF0F2AD3
:104D40000C06D8A00D060C28D8B40D28D8B4120033
:104D5000F1D7E8CF4BF0830E0001866F070E876F07
:104D6000896B140E886F090E8A6F8C6B4BC08DF0A7
:104D7000C8C08EF02AEF26F0E8CF1EF078BF000CF6
:104D80001DC011F01CC012F01F0E136E1E5074ECEB
:104D900018F00009F4E01FAC1FAA000C010CE8CFCA
:104DA0000FF0070E0F6401D0070C10EC28F00B0E6B
:104DB0000F240A6E0B6A000E0B220EC00CF08AEF55
:104DC00025F0E8CF0FF00F0E0F6401D00F0C10ECA0
:104DD00028F0130E0F240A6E0B6A000E0B220EC071
:104DE0000CF08AEF25F0E8CF0FF0010E0F6401D030
:104DF000010C10EC28F0020E0F240A6E0B6A000E54
:104E00000B220EC00CF08AEF25F000EE60F0540E7D
:104E1000EE6AE806FDE100EE4EF0090EEE6AE806E5
:104E2000FDE100017AEF20F0000E0C6E0C2A0CC0A0
:104E3000F6FF0F0EF76E000EF86E0800F5500A6EC2
:104E40000B6A93EF27F0E8CF4DF07F0E4D6405D04D
:104E5000DDC048F04D50EDEF1FF0DDC04AF04D5081
:104E600037EF1BF0E8CF0EF00E04D8A4120010ECC0
:104E700028F00B6A0A6AFF0E0C688AEC25F0FF0026
:104E80001200810E0001866F876B886B896B020EA2
:104E90008A6F73C08CF02AEC26F0010E546E010C60
:104EA000E8CF0AF00A507F0BD56ED76AD66AF29423
:104EB0000AAE02D0F28A01D0F29AD58E1200E8CF63
:104EC0000FF010EC28F0060E0F240A6E0B6A000E8D
:104ED0000B220EC00CF08AEF25F0E8CF0BF00B5040
:104EE0007D0F0A6E0AC0F6FF0F0EF76E000EF86E09
:104EF0000800F5501200000EF66E0F0EF76E000E51
:104F0000F86E0800F5500A6E0B6A93EF27F0E8CFB1
:104F10000AF01F0E6F160A506F126F50E00B0A183E
:104F2000D8B41200FAD70B50030B756E0AC074FF89
:104F30007F9C7F9E7F8000F000F073501200E8CFCE
:104F40004AF07F0E4A6403D04A505FEF1AF04A508D
:104F500070EF19F0E8CF0EF010EC28F00B6A010E9C
:104F60000A6E0EC00CF08AEF25F0E8CF0CF00B0EA5
:104F70000C240A6E0B6A000E0B2293EF27F0E8CF89
:104F80000CF0060E0C240A6E0B6A000E0B2293EF37
:104F900027F0E8CF0CF0130E0C240A6E0B6A000EFB
:104FA0000B2293EF27F0E8CF0CF0020E0C240A6ED0
:104FB0000B6A000E0B2293EF27F00AC00CF00BC017
:104FC0000DF00DC0D7FF0CC0D6FF120001C003F0DA
:104FD00002C004F004C0D7FF03C0D6FF1200E8CF20
:104FE0000AF00AB08B9A0AB28B981200E8CF0AF046
:104FF0000AB08B8A0AB28B8812000A6A0B6A0C6AA2
:105000000D6A12000A6A0B6A0C6A0D6A12000B6ABA
:10501000010E0A6E93EF27F0CFEC07F018EF24F0A3
:105020007FA21200FDD7546A1200CFEF07F0C282B0
:105030001200C28212001200050C080C010C040CB4
:06504000000C010C12003F
:020000040020DA
:08000000FFFFFFFFFFFFFFFF00
:020000040030CA
:0E0000001512677EFF8991FF0FC00FE00F40C1
:00000001FF
