:04080000AAEF04F067
:10081800D8CF07F0E8CF08F0E0CF09F0F2A401D074
:1008280001D052D0FB0E026E1D0E016E42EC24F078
:100838004E4A4F2A0001664B672B010E6027000EB7
:100848006123000E6223000E6323644B652BA44BC7
:10085800A52BA64BA72BA84BA92BAA4BAB2B9C4B84
:100868009D2B9E4B9F2BA04BA12BA24BA32B82A071
:1008780001D001D003D0686B696B02D0684B692B3B
:10088800562A5450020AD8A401D001D00ED0640EC2
:10089800566401D001D009D082A201D001D002D083
:1008A800829201D08282566A0ED05404D8A401D014
:1008B80001D003D08282566A06D0546601D001D096
:1008C80002D08292566AF2949EAC01D001D037D001
:1008D8001CD0C3CF9AF0C4CF9BF0050EC26E2CD0AB
:1008E800C3CF98F0C4CF99F0090EC26E25D0C3CFFC
:1008F80096F0C4CF97F00D0EC26E1ED0C3CF94F001
:10090800C4CF95F0010EC26E17D0C2503C0B056ED5
:10091800066A0650000AD8B401D0F4D70550000A78
:10092800D8B4D7D7040AD8B4DBD70C0AD8B4DFD7E1
:10093800040AD8B4E3D7E6D775EC24F09E9C09C026
:10094800E0FF08C0E8FF07C0D8FF100065EF23F0FC
:10095800434445464748494A4B4C4D4E4F505152E7
:10096800535455FFFFFFFFFFFFFFFF565758595AD3
:100978005B5C5D5E5F606162636465666768696A47
:100988006B6C6D6E6F707172737475767778797A37
:100998007B7C7D7E7F808182838485868788898A27
:1009A800FF8B8C8D8E8F90919293949495969798B7
:1009B800999A9B9C9D9E9FA0A1A2A3A4A5A6A7A827
:1009C800A9AAABACADAEAFB0B1B2B3B4B5777777D7
:1009D8002E6575726F736F757263652E73652F76EA
:1009E800696C6E6975735F312E786D6C00006CEC04
:1009F80024F0580EF66E090EF76E0800F5500A6ED0
:100A08000B6A000E0C6A39EC22F06CEC24F0580EDC
:100A1800466E462A46C0F6FF090EF76E0800F550E6
:100A28000A6E0B6A000E0C6A39EC22F06CEC24F0AA
:100A3800580E466E020E462646C0F6FF090EF76EA1
:100A48000800F5500A6E0B6A010E0C6E39EC22F0A4
:100A58006CEC24F0580E466E030E462646C0F6FF90
:100A6800090EF76E0800F5500A6E0B6A010E0C6E3F
:100A780039EC22F06CEC24F0580E466E040E462633
:100A880046C0F6FF090EF76E0800F5500A6E0B6AAD
:100A9800020E0C6E39EC22F06CEC24F0580E466E07
:100AA800050E462646C0F6FF090EF76E0800F550FB
:100AB8000A6E0B6A020E0C6E39EC22F06CEC24F014
:100AC800580E466E060E462646C0F6FF090EF76E0D
:100AD8000800F5500A6E0B6A030E0C6E39EC22F012
:100AE8006CEC24F0580E466E070E462646C0F6FFFC
:100AF800090EF76E0800F5500A6E0B6A030E0C6EAD
:100B080039EC22F06CEC24F0580E466E080E46269E
:100B180046C0F6FF090EF76E0800F5500A6E0B6A1C
:100B2800040E0C6E39EC22F06CEC24F0580E466E74
:100B3800090E462646C0F6FF090EF76E0800F55066
:100B48000A6E0B6A040E0C6E39EC22F06CEC24F081
:100B5800580E466E0A0E462646C0F6FF090EF76E78
:100B68000800F5500A6E0B6A050E0C6E39EC22F07F
:100B78006CEC24F0580E466E0B0E462646C0F6FF67
:100B8800090EF76E0800F5500A6E0B6A050E0C6E1A
:100B980039EC22F06CEC24F0580E466E0C0E46260A
:100BA80046C0F6FF090EF76E0800F5500A6E0B6A8C
:100BB800060E0C6E39EC22F06CEC24F0580E466EE2
:100BC8000D0E462646C0F6FF090EF76E0800F550D2
:100BD8000A6E0B6A060E0C6E39EC22F06CEC24F0EF
:100BE800580E466E0E0E462646C0F6FF090EF76EE4
:100BF8000800F5500A6E0B6A000E0C6A39EC22F0F8
:100C08006CEC24F0580E466E0F0E462646C0F6FFD2
:100C1800090EF76E0800F5500A6E0B6A000E0C6A92
:100C280039EC22F06CEC24F0580E466E100E462675
:100C380046C0F6FF090EF76E0800F5500A6E0B6AFB
:100C4800000E0C6A39EC22F06CEC24F0580E466E5B
:100C5800110E462646C0F6FF090EF76E0800F5503D
:100C68000A6E0B6A000E0C6A39EC22F06CEC24F068
:100C7800580E466E120E462646C0F6FF090EF76E4F
:100C88000800F5500A6E0B6A000E0C6A39EC22F067
:100C98000001BA6BBB6B6CEC24F0BAC046F01B0EBB
:100CA80046264650580F476E47C0F6FF090EF76EA6
:100CB8000800F5500A6E0B6A000E0C6A39EC22F037
:100CC8006CEC24F0BAC046F0370E46264650580F52
:100CD800476E47C0F6FF090EF76E0800F5500A6E1A
:100CE8000B6A000E0C6A39EC22F06CEC24F0BAC0E6
:100CF80046F0230E46264650580F476E47C0F6FF6B
:100D0800090EF76E0800F5500A6E0B6A000E0C6AA1
:100D180039EC22F06CEC24F0BAC046F02B0E4626D3
:100D28004650580F476E47C0F6FF090EF76E080089
:100D3800F5500A6E0B6A000E0C6A39EC22F06CEC66
:100D480024F0BAC046F0470E46264650580F476E64
:100D580047C0F6FF090EF76E0800F5500A6E0B6AD9
:100D6800000E0C6A39EC22F00001BA4BBB2BBB51C8
:100D7800800A800F080ED8B4BA5D8DE3B46BB56BEA
:100D88006CEC24F0B4C046F03F0E46264650580F8F
:100D9800476E47C0F6FF090EF76E0800F5500A6E59
:100DA8000B6AFF0E0C6839EC22F00001B44BB52B2E
:100DB800B551800A800F080ED8B4B45DE1E36CEC3D
:100DC80024F0580E466E330E462646C0F6FF090E2E
:100DD800F76E0800F5500A6E0B6AC80E0C6E39ECF7
:100DE80022F06CEC24F0580E466E340E462646C0AF
:100DF800F6FF090EF76E0800F5500A6E0B6AC80E6A
:100E08000C6E39EC22F06CEC24F0580E466E350E60
:100E1800462646C0F6FF090EF76E0800F5500A6E22
:100E28000B6AC80E0C6E39EC22F06CEC24F0580EEC
:100E3800466E360E462646C0F6FF090EF76E0800C7
:100E4800F5500A6E0B6AC80E0C6E39EC22F06CEC89
:100E580024F0580E466E4F0E462646C0F6FF090E81
:100E6800F76E0800F5500A6E0B6A000E0C6A39EC32
:100E780022F06CEC24F0580E466E500E462646C002
:100E8800F6FF090EF76E0800F5500A6E0B6A000EA1
:100E98000C6A39EC22F06CEC24F0A90EF66E090EFF
:100EA800F76E0800F5500A6E0B6A000E0C6A39ECF2
:100EB80022F06CEC24F0A90E466E030E462646C0BE
:100EC800F6FF090EF76E0800F5500A6E0B6A000E61
:100ED8000C6A39EC22F06CEC24F0A90E466E060E72
:100EE800462646C0F6FF090EF76E0800F5500A6E52
:100EF8000B6A000E0C6A39EC22F06CEC24F0A90E97
:100F0800466E090E462646C0F6FF090EF76E080023
:100F1800F5500A6E0B6A000E0C6A39EC22F06CEC84
:100F280024F0A90E466E462A46C0F6FF090EF76E53
:100F38000800F5500A6E0B6A0A0E0C6E39EC22F0A6
:100F48006CEC24F0A90E466E040E462646C0F6FF49
:100F5800090EF76E0800F5500A6E0B6A0A0E0C6E41
:100F680039EC22F06CEC24F0A90E466E070E4626EA
:100F780046C0F6FF090EF76E0800F5500A6E0B6AB8
:100F88000A0E0C6E39EC22F06CEC24F0A90E466EB9
:100F98000A0E462646C0F6FF090EF76E0800F55001
:100FA8000A6E0B6A0A0E0C6E39EC22F06CEC24F017
:100FB800A90E466E020E462646C0F6FF090EF76ECB
:100FC8000800F5500A6E0B6A100E0C6E39EC22F010
:100FD8006CEC24F0A90E466E050E462646C0F6FFB8
:100FE800090EF76E0800F5500A6E0B6A100E0C6EAB
:100FF80039EC22F06CEC24F0A90E466E080E462659
:1010080046C0F6FF090EF76E0800F5500A6E0B6A27
:10101800100E0C6E39EC22F06CEC24F0A90E466E22
:101028000B0E462646C0F6FF090EF76E0800F5506F
:101038000A6E0B6A100E0C6E39EC22F00001B76BC9
:101048000C0EB66F6CEC24F00001B651A90F466E79
:1010580046C0F6FF090EF76E0800F5500A6E0B6AD7
:10106800000E0C6A39EC22F00001B64BB72BB751D1
:10107800800A800F2C0ED8B4B65DE4E36CEC24F043
:10108800A90E466E0D0E462646C0F6FF090EF76EEF
:101098000800F5500A6E0B6A800E0C6E39EC22F0CF
:1010A8006CEC24F0A90E466E0C0E462646C0F6FFE0
:1010B800090EF76E0800F5500A6E0B6A3F0E0C6EAB
:1010C80039EC22F06CEC24F0A90E466E110E46267F
:1010D80046C0F6FF090EF76E0800F5500A6E0B6A57
:1010E800800E0C6E39EC22F06CEC24F0A90E466EE2
:1010F800100E462646C0F6FF090EF76E0800F5509A
:101108000A6E0B6A3F0E0C6E39EC22F06CEC24F080
:10111800A90E466E150E462646C0F6FF090EF76E56
:101128000800F5500A6E0B6A800E0C6E39EC22F03E
:101138006CEC24F0A90E466E140E462646C0F6FF47
:10114800090EF76E0800F5500A6E0B6A3F0E0C6E1A
:1011580039EC22F06CEC24F0A90E466E190E4626E6
:1011680046C0F6FF090EF76E0800F5500A6E0B6AC6
:10117800800E0C6E39EC22F06CEC24F0A90E466E51
:10118800180E462646C0F6FF090EF76E0800F55001
:101198000A6E0B6A3F0E0C6E39EC22F00001B86B38
:1011A800B96B6CEC24F00001B951B8C046F0476A3D
:1011B800D89046364736D89046364736D890463681
:1011C80047364626000E4722B60E46240A6E000E03
:1011D80047200B6E000E0C6A39EC22F00001B92B87
:1011E800070EB965DED7B82B030EB865D9D726EF39
:1011F80010F0E76BE86BE751020DF3CFDBF03F0E21
:10120800DB27DB51580FDC6FDCC0F6FF090EF76EE9
:101218000800F5500A6E0B6A39EC24F00001DE6F05
:10122800DD6BE751020DF3CFDFF0400EDF27DF5112
:10123800580FE06FE0C0F6FF090EF76E0800F55092
:101248000A6E0B6A39EC24F00001DD27000EDE235C
:10125800E751020DF350940FD96EDA6ADECFE1F050
:10126800DDCFE2F0DD51E15DDE51E25943E26CECA5
:1012780024F00001E751020DF3CFDBF03F0EDB272E
:10128800DB51580FDC6FDCC0F6FF090EF76E080063
:10129800F5500A6E0B6AE751020DF350940FD96EA0
:1012A800DA6ADECFDDF0DDCFDEF0DEC0DDF0DE6B4A
:1012B800DD510C6E39EC22F06CEC24F00001E751A2
:1012C800020DF3CFDBF0400EDB27DB51580FDC6F4C
:1012D800DCC0F6FF090EF76E0800F5500A6E0B6ABF
:1012E800E751020DF350940FD96EDA6ADF500C6E95
:1012F80039EC22F00001E751020DF350940FD96E3A
:10130800DA6ADECFDBF0DDCFDCF0E751020DF3CF98
:10131800DDF0470EDD27DD51580FDE6FDEC0F6FF2A
:10132800090EF76E0800F5500A6E0B6A39EC24F0C6
:101338000001E06FDF6BE751020DF3CFE1F0480EDB
:10134800E127E151580FE26FE2C0F6FF090EF76E90
:101358000800F5500A6E0B6A39EC24F00001DF270B
:10136800000EE023DB51DF5DDC51E05943E26CEC19
:1013780024F00001E751020DF3CFDBF0470EDB2725
:10138800DB51580FDC6FDCC0F6FF090EF76E080062
:10139800F5500A6E0B6AE751020DF350940FD96E9F
:1013A800DA6ADECFDDF0DDCFDEF0DEC0DDF0DE6B49
:1013B800DD510C6E39EC22F06CEC24F00001E751A1
:1013C800020DF3CFDBF0480EDB27DB51580FDC6F43
:1013D800DCC0F6FF090EF76E0800F5500A6E0B6ABE
:1013E800E751020DF350940FD96EDA6ADF500C6E94
:1013F80039EC22F00001E751020DF3CFDBF01C0EAF
:10140800DB27DB51580FDC6FDCC0F6FF090EF76EE7
:101418000800F5500A6E0B6A39EC24F00001DD6F04
:10142800E751020DF3CFDEF01B0EDE27DE51580F19
:10143800DF6FDFC0F6FF090EF76E0800F5500A6E81
:101448000B6A39EC24F00001E66FDD51E56FE61117
:1014580026E0E751020DF350A40FD96EDA6ADECF09
:10146800DBF0DDCFDCF0DB51E55DDC51E65917E25E
:10147800E751020DF350A40FD96EDA6ADE6ADD6A0D
:10148800E7C0C8F0E751020DF350940FD96EDA6A3D
:10149800DECFC9F0DDCFCAF0020E1FEC22F0E7C0A4
:1014A800DBF00F0EDB27DB51580FDC6FDCC0F6FFDB
:1014B800090EF76E0800F5500A6E0B6A39EC24F035
:1014C8000001DD6FDDA3A3D0E751B00FD96EDA6A52
:1014D800DF5047E1E751020DF3CFDBF0230EDB27A6
:1014E800DB51580FDC6FDCC0F6FF090EF76E080001
:1014F800F5500A6E0B6A39EC24F00001DE6FDD6BE3
:10150800E751020DF3CFDFF0240EDF27DF51580F2C
:10151800E06FE0C0F6FF090EF76E0800F5500A6E9E
:101528000B6A39EC24F00001DD27000EDE23E751B9
:10153800020DF350940FD96EDA6ADECFE1F0DDCFF9
:10154800E2F0DD51E15DDE51E25961E2E751B00FB1
:10155800D96EDA6A010EDF6E5180E751FEEC1FF09A
:1015680056D0E751020DF350940FD96EDA6ADECFE8
:10157800DBF0DDCFDCF0E751020DF3CFDDF0230E19
:10158800DD27DD51580FDE6FDEC0F6FF090EF76E5E
:101598000800F5500A6E0B6A39EC24F00001E06F80
:1015A800DF6BE751020DF3CFE1F0240EE127E151A3
:1015B800580FE26FE2C0F6FF090EF76E0800F5500B
:1015C8000A6E0B6A39EC24F00001DF27000EE023D5
:1015D800E7C0E3F0330EE327E351580FE46FE4C0AC
:1015E800F6FF090EF76E0800F5500A6E0B6A39EC23
:1015F80024F00001DF27000EE023DB51DF5DDC5122
:10160800E05905E2E751B00FD96EDA6ADF6AE7C040
:10161800DBF00F0EDB27DB51580FDC6FDCC0F6FF69
:10162800090EF76E0800F5500A6E0B6A39EC24F0C3
:101638000001DD6FDDA5A4D0E751AC0FD96EDA6AE1
:10164800DF5048E1E751020DF350940FD96EDA6A82
:10165800DECFDBF0DDCFDCF0E751020DF3CFDDF0BC
:101668002B0EDD27DD51580FDE6FDEC0F6FF090EA9
:10167800F76E0800F5500A6E0B6A39EC24F0000189
:10168800E06FDF6BE751020DF3CFE1F02C0EE1279D
:10169800E151580FE26FE2C0F6FF090EF76E08003D
:1016A800F5500A6E0B6A39EC24F00001DF27000EB2
:1016B800E023DB51DF5DDC51E05962E2E751AC0F1A
:1016C800D96EDA6A010EDF6E5188E751800FFEECA1
:1016D8001FF056D0E751020DF3CFDBF02B0EDB27BE
:1016E800DB51580FDC6FDCC0F6FF090EF76E0800FF
:1016F800F5500A6E0B6A39EC24F00001DE6FDD6BE1
:10170800E751020DF3CFDFF02C0EDF27DF51580F22
:10171800E06FE0C0F6FF090EF76E0800F5500A6E9C
:101728000B6A39EC24F00001DD27000EDE23E7C048
:10173800E1F0330EE127E151580FE26FE2C0F6FF06
:10174800090EF76E0800F5500A6E0B6A39EC24F0A2
:101758000001DD5F000EDE5BE751020DF350940FD0
:10176800D96EDA6ADECFE3F0DDCFE4F0DD51E35D78
:10177800DE51E45905E2E751AC0FD96EDA6ADF6A47
:10178800E751020DF3CFDBF0380EDB27DB51580FA2
:10179800DC6FDCC0F6FF090EF76E0800F5500A6E24
:1017A8000B6A39EC24F00001DD6FE751020DF3CF2D
:1017B800DEF0370EDE27DE51580FDF6FDFC0F6FF91
:1017C800090EF76E0800F5500A6E0B6A39EC24F022
:1017D8000001E66FDD51E56FE61112E0E751020DF9
:1017E800F3509C0FD96EDA6ADECFDBF0DDCFDCF088
:1017F800DB51E55DDC51E65903E2E75125EC1BF0CE
:10180800E74BE82BE851800A800F040ED8B4E75D57
:1018180001E2F1D4580EDB6F4F0EDB27DBC0F6FF79
:10182800090EF76E0800F5500A6E0B6A39EC24F0C1
:101838000001DC6FDCA95FD0580EDB6F4F0EDB2791
:10184800DBC0F6FF090EF76E0800F5500A6E0B6A4A
:1018580039EC24F00001DC6FDCA14DD06C5124E0A0
:1018680082BA45D0580EDB6F4F0EDB27DBC0F6FF80
:10187800090EF76E0800F5500A6E0B6A39EC24F071
:101888000001DC6FDCAD08D01E0EC86F060EC96FF4
:10189800000E84EC1FF02BD0140EC86F040EC96F15
:1018A800000E84EC1FF023D082AA21D0580EDB6FE3
:1018B8004F0EDB27DBC0F6FF090EF76E0800F55068
:1018C8000A6E0B6A39EC24F00001DC6FDCAD08D03D
:1018D8001E0EC86F050EC96F000E84EC1FF007D0EE
:1018E800140EC86F030EC96F000E84EC1FF0000EB3
:1018F80082BA010E6C6F580EDB6F4F0EDB27DBC010
:10190800F6FF090EF76E0800F5500A6E0B6A39ECFF
:1019180024F00001DC6FDCAB5FD0580EDB6F4F0E9C
:10192800DB27DBC0F6FF090EF76E0800F5500A6EDC
:101938000B6A39EC24F00001DC6FDCA34DD06D514B
:1019480024E082B845D0580EDB6F4F0EDB27DBC092
:10195800F6FF090EF76E0800F5500A6E0B6A39ECAF
:1019680024F00001DC6FDCAF08D01E0EC86F060E35
:10197800C96F010E84EC1FF02BD0140EC86F040E33
:10198800C96F010E84EC1FF023D082A821D0580E15
:10199800DB6F4F0EDB27DBC0F6FF090EF76E080082
:1019A800F5500A6E0B6A39EC24F00001DC6FDCAFED
:1019B80008D01E0EC86F050EC96F010E84EC1FF00B
:1019C80007D0140EC86F030EC96F010E84EC1FF008
:1019D800000E82B8010E6D6F12007B517A1101E181
:1019E800FFD22FD37EEC24F02CD3B2EC22F029D3F3
:1019F80004EC22F026D36DEC22F023D378510F0BA0
:101A0800020A01E01ED3735120EE7EF0DF6219D383
:101A1800800E7F6111D07F51F1EC15F08D6F7FC082
:101A28008CF0030E876F820E866F886B896B0A0EA7
:101A38008A6F85EC22F005D37F51DCEC16F00001AB
:101A4800EDD778510F0B030A01E0FBD2735120EE5A
:101A58007EF0DF62F6D2800E7F6106D080C04AF049
:101A68007F51B4EC17F0DAD780C048F07F5157ECBB
:101A78001CF0D4D7735120EE7EF0DF62E2D2000E64
:101A88001CEC24F00001801901E0DBD2030E1CECF1
:101A980024F00001811901E0D4D2050E1CEC24F0D9
:101AA8000001821901E0CDD2070E1CEC24F00001E0
:101AB800831901E0C6D26B51841901E0C2D26A5180
:101AC80020EE85F0DF62BDD27F51B3EC23F0B9D2AE
:101AD800000E1CEC24F000017F1973E1010E1CECD0
:101AE80024F0000180196DE1020E1CEC24F00001C5
:101AF800811967E1030E1CEC24F00001821961E1F1
:101B080053885FD0040E1CEC24F000017F1959E1C2
:101B1800050E1CEC24F00001801953E1060E1CECA4
:101B280024F0000181194DE1070E1CEC24F000019E
:101B3800821947E1538A45D0080E1CEC24F00001B5
:101B48007F193FE1090E1CEC24F00001801939E1EE
:101B58000A0E1CEC24F00001811933E10B0E1CEC79
:101B680024F0000182192DE1538C2BD00C0E1CECB3
:101B780024F000017F1925E10D0E1CEC24F0000172
:101B880080191FE10E0E1CEC24F00001811919E1E7
:101B98000F0E1CEC24F00001821913E1538E11D0B2
:101BA800536A0FD07E390F0BDE6FDF6BDF51F8E120
:101BB800DE518EE0010AA6E0030ABEE0010AD6E083
:101BC800EFD75350F00BF00A01E03BD20EEC21F0B6
:101BD80038D2735120EE7EF0DF6233D2EC6B7FC0D7
:101BE800EBF080C0EEF0FA6B4AD0EB51FA25CEEC60
:101BF80023F00001DE6F070E0A6EFA51F1EC22F0B5
:101C08000001DF6FDF518D0FD96EDA6ADEC0DFFFAA
:101C1800070E0A6EFA51F1EC22F0060A0BE0FF0EED
:101C28000001EE25DE6FDF6BFF0EDF23FA51DE19B0
:101C3800DF1124E1070E0A6E0001FA51F1EC22F0DF
:101C4800060A03E1070E000109D0070E0A6E00011B
:101C5800FA51F1EC22F00001DE6FDE29ED6FED5153
:101C6800810F866F070E876F886B896B1A0E8A6FD4
:101C7800ECC08CF085EC22F00001EC2BFA2BEE5135
:101C8800FA5D01E3DED1B1D7735120EE7EF0DF6259
:101C9800D8D17FC0EFF07851FE0F070BF06FF56BCE
:101CA80017D0F551800FD96EDA6ADF50DD6FEF512A
:101CB800F52576EC23F0EF51F525CEEC23F0000165
:101CC800DE6FF5518D0FD96EDA6ADEC0DFFFF52BB6
:101CD800F051F55DE6E3070E876F886B896B1A0E86
:101CE8008A6F8C6BF051810F866FA3D6735120EEEB
:101CF8007EF0DF62A6D17F51F1EC15F0DE6FDE29B0
:101D08004A6E7F51B4EC17F089D6735120EE7EF0FD
:101D1800DF6297D17F51F1EC15F0DE6FDE054A6E78
:101D28007F51B4EC17F07AD67E51731903E07E29FF
:101D380001E087D1F46B030E876F880E866F886B7E
:101D4800896B200E8A6FF96BF9C08CF0010EFB6F5E
:101D5800FB518C0FD96EDA6AF4510F081CEC24F091
:101D6800DF6E0001F42B100EF46501D004D0FB2BBC
:101D7800070EFB65EDD7100EF46501D007D085EC92
:101D880022F00001F92B020EF965DED7FB6BFB513F
:101D9800DBEC23F0000908E0FB518F0FD96EDA6AFB
:101DA800FB51DBEC23F005D0FB518F0FD96EDA6ABB
:101DB800000EDF6EFB2B040EFB65E9D785EC22F0E5
:101DC800050E0001F46F030EF96FF9C08CF0010ED7
:101DD800FB6FFB518C0FD96EDA6AF451DBEC23F000
:101DE800DF6EF42BFB2B070EFB65F3D785EC22F097
:101DF8000001F92B060EF965E8D723D1735120EEBF
:101E08007EF0DF621ED1030E876F870E866F886BA8
:101E1800896B220E8A6F8C0EACEC20F00AD67351B7
:101E280020EE7EF0DF620DD1F66B78C0DEF00F0E8B
:101E3800DE17040EDE5D12E382C0F7F0F86BF8518E
:101E4800F71103E1010EF86FF76B010EF75D010E54
:101E5800F85907E3010EF86F000E02D0F86B010E77
:101E6800F76F6AC0E5F06BC0E6F080517FC0DEF026
:101E7800DF6BDEC0DFF0DE6BDE116A6FDF516B6F88
:101E8800070E876F886B896B270E8A6F8C6B7FC0F4
:101E98008DF080C08EF0F651F75DDE6F000EF859B8
:101EA800DF6F040EDE5D000EDF5902E3040E02D080
:101EB800F651F75DF16FF151840F866F8151F62568
:101EC8008F6FF26B0ED08151F625F225CEEC23F000
:101ED8000001DE6FF251900FD96EDA6ADEC0DFFFC3
:101EE800F22BF151F25DEFE34EC0E7F04FC0E8F09E
:101EF80085EC22F0020E0001E725DE6F000EE821D6
:101F0800DF6FDE514E5CDF514F58F4E3F151F62795
:101F18008C2BF651DE6FDF6BF751DE5DF851DF5920
:101F2800BAE3E5C06AF0E6C06BF08BD0735120EEDF
:101F38007EF0DF6286D06AC0E9F06BC0EAF08051BB
:101F48007FC0DEF0DF6BDEC0DFF0DE6BDE116A6FB4
:101F5800DF516B6F81C0F3F013D081518208F325F4
:101F6800D96EDA6ADF50DD6FF35176EC23F0DE6F5D
:101F780081519008F325D96EDA6ADEC0DFFFF32BB2
:101F880078510F0BDE6FDF6B8151DE27000EDF23E8
:101F9800FC0EDE25E06FFF0EDF21E16FF351E26FEB
:101FA800E36BE351800AE46FE051E25DE151800A9E
:101FB800E459D3E3E9C06AF0EAC06BF0070E876F13
:101FC80078510F0B800F866F886B896B270E8A6F8D
:101FD8008C6B7FC08DF080C08EF081C08FF029D5CA
:101FE8007C51010A01E1FED4030A01E1FED4040A8E
:101FF80001E1FED40E0A01E1FED4010A01E1FED49A
:10200800020A01E11ED5070A01E134D51B0A01E1E4
:10201800C9D50F0A01E1DDD5010A01E135D6040A67
:1020280001E164D6030A01E170D6010A01E17CD618
:102038003E0A01E1E3D6040A01E1F1D6030A01E10F
:1020480075D71200386839683A683B683C6A3D6A57
:102058003E6A3F6A456A4550146E156AD890143630
:102068001536D89014361536D89014361536440ED1
:1020780014240A6E000E15200B6E39EC24F0166E2F
:1020880016AEE8D14550146E156AD8901436153638
:10209800D89014361536D89014361536470E1424B1
:1020A8000A6E000E15200B6E39EC24F0166E16C061
:1020B80017F0186A196A1A6A19C01AF018C019F0C4
:1020C80017C018F0176A45501B6E1C6AD8901B364B
:1020D8001C36D8901B361C36D8901B361C36450E3D
:1020E8001B240A6E000E1C200B6E39EC24F01D6EAA
:1020F8001DC01EF01F6A206A216A1FC021F01EC081
:1021080020F01F6A1E6A4550226E236AD890223634
:102118002336D89022362336D89022362336440EDA
:1021280022240A6E000E23200B6E39EC24F0246E54
:10213800020E241624C025F0266A276A286A170E7C
:10214800D8902536263627362836E82EF9D71E5059
:102158002510296E1F5026102A6E205027102B6E2E
:10216800215028102C6E175029102D6E18502A1047
:102178002E6E19502B102F6E1A502C10306EFF0E29
:102188002D10336E2E50346E2F50356E3050366E03
:102198004550146E156AD89014361536D8901436F2
:1021A8001536D89014361536480E14240A6E000ECB
:1021B80015200B6E39EC24F0166E16C017F0186A4D
:1021C800196A1A6A19C01AF018C019F017C018F05D
:1021D800176A45501B6E1C6AD8901B361C36D8905F
:1021E8001B361C36D8901B361C36460E1B240A6E2E
:1021F800000E1C200B6E39EC24F01D6E1DC01EF065
:102208001F6A206A216A1FC021F01EC020F01F6AC1
:102218001E6A4550226E236AD89022362336D890FB
:1022280022362336D89022362336440E22240A6ECC
:10223800000E23200B6E39EC24F0246E010E2416B8
:1022480024C025F0266A276A286A25C028F0276A4C
:10225800266A256A1E502510296E1F5026102A6EE0
:10226800205027102B6E215028102C6E1750291043
:102278002D6E18502A102E6E19502B102F6E1A50D2
:102288002C10306E4550316E326AD8903136323665
:10229800D89031363236D89031363236430E312422
:1022A8000A6E000E32200B6E39EC24F02D10406EB1
:1022B8002E50416E2F50426E3050436E456608D006
:1022C80040C03CF041C03DF042C03EF043C03FF04A
:1022D800335038163450391635503A1636503B16A6
:1022E800446A445040C014F041C015F042C016F092
:1022F80043C017F0E82A05D0D890173216321532A5
:102308001432E82EF9D7010E141644503CC018F0C8
:102318003DC019F03EC01AF03FC01BF0E82A05D0B6
:10232800D8901B321A3219321832E82EF9D71850C1
:10233800010B14181DE044C014F0010E156E166A46
:10234800142A03D0D89015361636142EFBD7151C30
:10235800176E161C186E196A18BE190619501A6ECF
:10236800175038161850391619503A161A503B1685
:10237800442A1F0E4464B5D740503C1641503D16C0
:1023880042503E1643503F1645504FE0446A45C000
:1023980014F04550156E166AD89015361636D89032
:1023A80015361636D89015361636430E15240A6E8D
:1023B800000E16200B6E39EC24F0176E142A02D08A
:1023C800D8901732142EFCD7010E171645C018F0F6
:1023D80037C019F0182A02D0D8901932182EFCD715
:1023E8001950010B17181DE045C014F0010E156EA9
:1023F800166A142A03D0D89015361636142EFBD731
:1024080015C017F016C018F0000E18BEFF0E196E92
:102418001A6E175038161850391619503A161A509D
:102428003B16442A070E4464B2D74550146E156A09
:10243800D89014361536D89014361536D8901436E8
:102448001536430E14240A6E000E15200B6E39EC57
:1024580024F0376E452A030E4564FDD5800EE7EC5F
:1024680023F00F010F0E0B6E1C0E0A6E38C00CF015
:1024780039C00DF03AC00EF03BC00FF0010E106EDF
:102488007DEC1AF00D01D4830F010F0E0B6E040EB4
:102498000A6E3CC00CF03DC00DF03EC00EF03FC0CF
:1024A8000FF0010E106E7DEC1AF0000EE7EF23F02E
:1024B8007B517A1101E16DD1F66BF651EC6FED6B42
:1024C800D890EC37ED37D890EC37ED37D890EC371B
:1024D800ED37B60EEC250A6E000EED210B6E39ECC9
:1024E80024F00001F56FF5AF4FD1F5AD18D0F651D6
:1024F800EC6FED6BD890EC37ED37D890EC37ED37C3
:10250800D890EC37ED37B60EEC250A6E000EED21AB
:102518000B6E39EC24F000017D1901E035D1F5A9E5
:1025280010D07F290EE0580EF66E090EF76E0800DF
:10253800F5500A6E0B6A39EC24F000017F1901E0AE
:1025480023D1F5A713D0802911E0580EEC6FEC2B9E
:10255800ECC0F6FF090EF76E0800F5500A6E0B6A1C
:1025680039EC24F00001801901E00ED1F651080D74
:10257800B90EF3240A6E000EF4200B6E39EC24F029
:102588000001EC6FF551010BEE6FED6BEC51ED2591
:10259800EF6F000EEE21F06FF651080DB80EF32420
:1025A8000A6E000EF4200B6E39EC24F00001EC6F7B
:1025B800F551020BED6FEE6B070ED890ED37EE3745
:1025C800E82EFBD7EC51ED25F16F000EEE21F26FEE
:1025D800F651EC6FED6BD890EC37ED37D890EC37BF
:1025E800ED37D890EC37ED37BB0EEC250A6E000EB0
:1025F800ED210B6E39EC24F00001F36FF651EC6F0E
:10260800ED6BD890EC37ED37D890EC37ED37D890A4
:10261800EC37ED37BA0EEC250A6E000EED210B6E85
:1026280039EC24F00001F46F20EE7AF0DECFECF004
:10263800DDCFEDF0EF51EC1BF051ED1BF151EC1734
:10264800F251ED17ED51EC1101E09ED07C51F319D8
:10265800F41579E099D00001F651EC6FED6BD89044
:10266800EC37ED37D890EC37ED37D890EC37ED37BD
:10267800BD0EEC250A6E000EED210B6E39EC24F030
:1026880052EC24F081D00001F651EC6FED6BD8903C
:10269800EC37ED37D890EC37ED37D890EC37ED378D
:1026A800BD0EEC250A6E000EED210B6E39EC24F000
:1026B8004BEC24F069D00001F651EC6FED6BD8902B
:1026C800EC37ED37D890EC37ED37D890EC37ED375D
:1026D800BD0EEC250A6E000EED210B6E39EC24F0D0
:1026E800E8EC21F051D00001F651EC6FED6BD89079
:1026F800EC37ED37D890EC37ED37D890EC37ED372D
:10270800BD0EEC250A6E000EED210B6E39EC24F09F
:1027180060EC21F039D00001F651EC6FED6BD890E8
:10272800EC37ED37D890EC37ED37D890EC37ED37FC
:10273800BD0EEC250A6E000EED210B6E39EC24F06F
:10274800A7EC21F021D0F651EC6FED6BD890EC3767
:10275800ED37D890EC37ED37D890EC37ED37BC0E25
:10276800EC250A6E000EED210B6E39EC24F0000A00
:102778000BE0010A01E16FD7030A85E0010A9BE03B
:10278800070AB1E0010AC7E00001F62B030EF6655F
:1027980094D61200E8CFC4F0C451040DF3CF46F02C
:1027A8000F0E46264650A90F476E47C0F6FF090E82
:1027B800F76E0800F5500A6E0B6A39EC24F0000138
:1027C800C06FC451040DF3CF46F00E0E4626465096
:1027D800A90F476E47C0F6FF090EF76E0800F550BF
:1027E8000A6E0B6A39EC24F00001C16FC451040D64
:1027F800F3CF46F00D0E46264650A90F476E47C048
:10280800F6FF090EF76E0800F5500A6E0B6A39ECF0
:1028180024F00001C26FC451040DF3CF46F00C0E32
:1028280046264650A90F476E47C0F6FF090EF76EB9
:102838000800F5500A6E0B6A39EC24F00001C36FEA
:10284800C0C0B4F0C1C0B5F0C2C0B6F0C3C0B7F0E4
:10285800C451040DF3CF46F01F0E46264650A90F6B
:10286800476E47C0F6FF090EF76E0800F5500A6E6E
:102878000B6A39EC24F00001C06FC451040DF3CF8A
:1028880046F01E0E46264650A90F476E47C0F6FF73
:10289800090EF76E0800F5500A6E0B6A39EC24F041
:1028A8000001C16FC451040DF3CF46F01D0E46263A
:1028B8004650A90F476E47C0F6FF090EF76E08008D
:1028C800F5500A6E0B6A39EC24F00001C26FC4514E
:1028D800040DF3CF46F01C0E46264650A90F476E4E
:1028E80047C0F6FF090EF76E0800F5500A6E0B6A2E
:1028F80039EC24F00001C36FC0C0B8F0C1C0B9F012
:10290800C2C0BAF0C3C0BBF0B4C01CF0B5C01DF063
:10291800B6C01EF0B7C01FF0C451020DF350940F9B
:10292800D96EDA6ADECF14F0DDCF15F0DCEC22F0D8
:1029380017C01BF016C01AF015C019F014C018F013
:1029480068EC1DF01BC0BFF01AC0BEF019C0BDF086
:1029580018C0BCF02B6AC00E2C6E7F0E2D6E440E74
:102968002E6E1C6A1D6AA00E1E6E400E1F6EBCC025
:1029780018F0BDC019F0BEC01AF0BFC01BF068EC5B
:102988001DF01BC02AF01AC029F019C028F018C081
:1029980027F0E5EC1EF02AC039F029C038F028C02D
:1029A80037F027C036F0B8C03AF0B9C03BF0BAC02B
:1029B8003CF0BBC03DF0CDEC19F039C045F038C053
:1029C80044F037C043F036C042F01200E8CF16F0AA
:1029D800506A7750C00B186E186632D060AE12D0AD
:1029E800A49074AE06D01350D96EDA6A000EDB8656
:1029F800749E60A002D0508001D050900F0E1B6EC4
:102A0800600E1AD00F0150AF19D0A49274AC06D042
:102A18001350D96EDA6A000EDB86749C5051070B8E
:102A2800506E020E506005D01350D96EDA6A000E4F
:102A3800DB8E0F0E1B6E500E1A6E65D0000ECCD0BA
:102A48001850400A46E160AE04D00F0E1B6E600EAF
:102A58003ED00F0150AF04D00F0E1B6E500E37D072
:102A68000D01F8B507D00E0120AF04D00E0E1B6E75
:102A7800200E2DD00D01F8B707D00E0130AF04D0CD
:102A88000E0E1B6E300E23D00D01F8B907D00E01C3
:102A980040AF04D00E0E1B6E400E19D00D01F8BBCE
:102AA80005D00E0150AF02D00E0ED7D70D01F8BDDC
:102AB80005D00E0160AF02D00E0EC8D70D01F8BFC9
:102AC800BDD70E0170AFBAD70E0E1B6E700E1A6E00
:102AD8000AD074AEB3D76F50070B39EC20F00AC098
:102AE8001AF00BC01BF01AC0D9FF1BC0DAFFDF5069
:102AF8001F0B506EA49274AC06D01350D96EDA6ACC
:102B0800000EDB86749C1AC014F01BC015F013501D
:102B1800D96EDA6ADF6A20EE05F01A50D9261B5002
:102B2800DA22DF50196E1250D96EDA6A19500F0B7B
:102B3800DF6E19AC05D01350D96EDA6A000EDB8C43
:102B480020EE02F01A50D9261B50DA22DF50196EF7
:102B580019A608D01350D96EDA6A000EDB8A010E66
:102B6800196E01D0196A1A280A6E000E1B200B6E06
:102B780016C00CF019C00DF01BEC19F0060E1A2641
:102B8800000E1B221250D96EDA6ADF50196E176ACE
:102B98000DD01AC0D9FF1BC0DAFF1150E16EE26AEE
:102BA800DFCFE7FF1A4A1B2A112A172A1950175C88
:102BB800F0E3A4AE06D01350D96EDA6A000EDB88B3
:102BC800A49E14C0D9FF15C0DAFF7F0EDF16185077
:102BD800800AD8B4749E010E1200E8CFDAF0D96BDF
:102BE8006B516A1153E1130EDA610ED0DA51580FA6
:102BF800486E48C0F6FF090EF76E0800F5500A6ED9
:102C08000B6A39EC24F0D0D0DA51130A02E195515D
:102C1800CCD0DA51140A03E194C0D9F0C7D0DA5104
:102C2800150A02E19751C1D0DA51160A03E196C09C
:102C3800D9F0BCD0DA51170A02E19951B6D0DA516D
:102C4800180A03E198C0D9F0B1D0DA51190A02E1A3
:102C58009B51ABD0DA511A0A03E19AC0D9F0A6D039
:102C68001A0EDA6504D0500EDA6101D0BFD7DA51F6
:102C7800500A01E09BD08238E832010B486E823856
:102C8800010B496ED890493448108FD06A056B11F2
:102C98007CE12C0EDA610ED0DA51A90F486E48C0DB
:102CA800F6FF090EF76E0800F5500A6E0B6A39EC4C
:102CB80024F07AD02B0EDA6517D0300EDA6114D0F2
:102CC800000ECEEC13F045C0C8F044C0C7F043C0B6
:102CD800C6F042C0C5F00001C50ED56FD551DA2542
:102CE800D96EDA6AD40E4DD02F0EDA6517D0340EAD
:102CF800DA6114D0010ECEEC13F045C0CCF044C01C
:102D0800CBF043C0CAF042C0C9F00001C90ED66F6B
:102D1800D651DA25D96EDA6AD00E33D0330EDA6599
:102D280017D0380EDA6114D0020ECEEC13F045C07D
:102D3800D0F044C0CFF043C0CEF042C0CDF0000187
:102D4800CD0ED76FD751DA25D96EDA6ACC0E19D0E5
:102D5800370EDA652BD03C0EDA6128D0030ECEECA4
:102D680013F045C0D4F044C0D3F043C0D2F042C001
:102D7800D1F00001D10ED86FD851DA25D96EDA6AB0
:102D8800C80ED926DA6ADF5010D06A51020A6B11D0
:102D98000DE1200EDA610AD0B60EDA250A6E0B6A4A
:102DA800000E0B2239EC24F00001D96FD951120022
:102DB800E8CF1EF01D6A1E50800A04E151C01DF0C4
:102DC800516ACCD01E50810A02E1010E82D01E50F9
:102DD800820A02E1060E7DD01E50830A03E152C02A
:102DE8001DF0BCD01E50940A03E17DEC24F071D094
:102DF8001E50950A03E17CEC24F06BD01E50960A15
:102E080003E17BEC24F065D0890E1E6005D01E50CE
:102E18007C0F12EC24F05DD0880E1E6408D0910E51
:102E28001E6005D01E50770F08EC24F052D01E50BB
:102E3800910A03E173C01DF091D01E50930A03E17B
:102E48006AC01DF08BD01E50920A02E16B5141D02E
:102E58001E50970A03E17AEC24F03BD01E50980AE2
:102E680003E179EC24F035D01E50990A03E178EC9F
:102E780024F02FD0990E1E642ED09E0E1E602BD0EB
:102E88005EEC24F00DC016F00CC015F00BC014F069
:102E98000AC013F01E50660F1B6E1B5003080E6EFF
:102EA800D8900E36D8900E36D8900E360E5013C0E5
:102EB8000FF014C010F015C011F016C012F0E82A77
:102EC80005D0D8901232113210320F32E82EF9D7CD
:102ED80030D01D6E43D09D0E1E642DD0A20E1E60F4
:102EE8002AD059EC24F00DC01AF00CC019F00BC010
:102EF80018F00AC017F01E50620F1C6E1C50030811
:102F08000E6ED8900E36D8900E36D8900E360E50DB
:102F180017C00FF018C010F019C011F01AC012F045
:102F2800E82A05D0D8901232113210320F32E82E2A
:102F3800F9D70F50CED7CF0E1E6408D0E00E1E6012
:102F480005D01E50300F1CEC24F0C3D7DF0E1E64D2
:102F580005D01E50200FDBEC23F0BBD71D5012000C
:102F6800E8CFDCF04A1CDB6F6B516A1163E1130E8A
:102F7800DC6121D06CEC24F00001DC51580F4B6E61
:102F88004BC0F6FF090EF76E0800F5500A6E0B6A83
:102F98004AC00CF039EC22F00001DC51580F4B6E9E
:102FA8004BC0F6FF090EF76E0800F5500A6E0B6A63
:102FB80039EC24F085D0120EDC6504D04F0EDC61AC
:102FC80001D0D8D7DC514F0A12E14AA001D0948A27
:102FD8004AB001D0949A4AC04BF0D8904B324B304B
:102FE800D8A001D09488D8B001D09498C3D7DC5128
:102FF800500A68E1010E4AA0000E4B6E4B3A4B4650
:103008008B504B18DF0B4B188B6E010E4AA2000E2B
:103018004B6E4B3A8B504B18EF0B4B188B6E82381C
:10302800E832010B4B6E8238010B4C6ED8904C3451
:103038004B1047D06A056B1124E12C0EDC6142D09D
:103048006CEC24F00001DC51A90F4B6E4BC0F6FF6D
:10305800090EF76E0800F5500A6E0B6A4AC00CF0AC
:1030680039EC22F00001DC51A90F4B6E4BC0F6FF82
:10307800090EF76E0800F5500A6E0B6A39EC24F059
:103088001FD06A51030A6B111DE1200EDC611AD0B2
:103098006CEC24F0B60E0001DC250A6E0B6A000EFB
:1030A8000B224AC00CF039EC22F026EC10F0B60ED8
:1030B8000001DC250A6E0B6A000E0B2239EC24F0A5
:1030C8000001DB6FDB5112000F0E1D6E400E1C6EEF
:1030D8000F0E1F6E300E1E6E0F0E216E200E206E0C
:1030E8000E0E236E200E226E0E0E256E300E246EEE
:1030F8000E0E276E400E266E0E0E296E500E286E8E
:103108000E0E2B6E600E2A6E0E0E2D6E700E2C6E2D
:103118007750C00B2E6E2E6602D0020E01D0080E1C
:103128002F6E0D01D890F831316E356A7BD035504D
:10313800020DF3501C0FD96EDA6ADECF36F0DDCF00
:1031480037F036C032F037C033F0020E356404D0A1
:10315800D890313231A065D036C0D9FF37C0DAFFF8
:10316800DF501B6E1BB65DD036C0D9FF37C0DAFF03
:10317800FC0EDF161AC01BF0030E1B1636C0D9FF53
:1031880037C0DAFF1B50DF121AAC04D019504009BF
:10319800346E02D019C034F020EE05F03650D9262E
:1031A8003750DA2234C0DFFF1AAA03D0010E346E7A
:1031B80001D0346A36280A6E000E37200B6E14C010
:1031C8000CF015C00DF016C00EF017C00FF034C08B
:1031D80010F07DEC1AF0060E3626000E3722306A03
:1031E8000DD01850D96EDA6A36C0E1FF37C0E2FF59
:1031F800DFCFE7FF182A364A372A302A1950305CC1
:10320800F0E332C0D9FF33C0DAFFDF501B6E1BB4C6
:1032180006D032C0D9FF33C0DAFF000EDB86010EBC
:1032280005D0352A2F50355C82E3000E12000CC001
:1032380010F00D6646D01050D96EDA6A0AC0E1FF68
:103248000BC0E2FFE7500E6ED8900E36D8900E36BF
:10325800D8900E34DF6E1050D96EDA6AD92ADA6A3D
:103268000AC0E1FF0BC0E2FFE7500E6E050E0F6EBD
:10327800D8900E320F2EFCD70E50DF6E0A4A0B2A5A
:103288000AC0D9FF0BC0DAFFDF500E6E050E0F6EB5
:10329800D8900E320F2EFCD71050D96EDA6A0E5025
:1032A800DF121050D96EDA6A020ED926DA6ADF6A9E
:1032B8001050D96EDA6A030ED926DA6A000EDF6E6C
:1032C80067D01050D96EDA6A020ED926DA6A0AC0B7
:1032D800E1FF0BC0E2FFE7500E6E050E0F6ED890AF
:1032E8000E360F2EFCD70E50DF6E1050D96EDA6AEC
:1032F800030ED926DA6A0AC0E1FF0BC0E2FFE750E5
:103308000E6ED8900E32D8900E32D8900E30DF6EF6
:103318000A4A0B2A0AC0D9FF0BC0DAFFDF500E6E2B
:10332800030E0E161050D96EDA6A020ED926DA6A22
:103338000E50DF120AC0D9FF0BC0DAFFDF500E6E45
:10334800D8900E32D8900E32D8900E321C0E0E162F
:103358001050D96EDA6A020ED926DA6A0E50DF12D8
:103368000A4A0B2A0AC0D9FF0BC0DAFF1050E16ED7
:10337800E26AE12AE26ADFCFE7FF0A4A0B2A0AC0BB
:10338800D9FF0BC0DAFF1050E16EE26ADFCFE7FF2A
:10339800120038343934416E3C343D34406E41506B
:1033A80009E0405041600FD04150405C3E6E210E14
:1033B8003E5C09E33AC036F03BC037F03CC038F019
:1033C8003DC039F095D0405009E0415040600FD0E1
:1033D8004050415C3E6E210E3E5C09E336C036F03B
:1033E80037C037F038C038F039C039F081D0060E10
:1033F8003F6E39BE3F8E3DBE3F8C388E396A3C8E5B
:103408003D6A4050416018D0D8903A363B363C3639
:103418003D364006405041180BE03F063F50070B31
:1034280007E0F2D7D8903932383237323632412A6B
:1034380040504162F7D71AD04150406017D0D89019
:1034480036363736383639364106405041180BE0A3
:103458003F063F50070B07E0F2D7D8903D323C3289
:103468003B323A32402A40504162F7D73FAE09D04A
:10347800361E371E381E391E362A000E37223822CD
:1034880039223FAC09D03A1E3B1E3C1E3D1E3A2A4B
:10349800000E3B223C223D223F6A36503A263750E6
:1034A8003B2238503C2239503D223DAE0BD03A1ECB
:1034B8003B1E3C1E3D1E3A2A000E3B223C223D226A
:1034C800010E3F6E3AC00AF03BC00BF03CC00CF056
:1034D8003DC00DF041C00EF03FC00FF0D0EC1DF024
:1034E8000DC039F00CC038F00BC037F00AC036F008
:1034F80012000C0E136E106637D01350D96EDA6AAC
:10350800DF50116ED8901132D8901132D890113006
:103518000AC0D9FF0BC0DAFFDF6E1350D96EDA6A22
:10352800D92ADA6ADF50116E050E126ED89011365C
:10353800122EFCD70AC0D9FF0BC0DAFF1150DF12D8
:103548000A4A0B2A1350D96EDA6ADF50116E050E3B
:10355800126ED8901136122EFCD711500AC0D9FF1E
:103568000BC0DAFFDF6E6CD01350D96EDA6A020E28
:10357800D926DA6ADF50116E050E126ED890113214
:10358800122EFCD711500AC0D9FF0BC0DAFFDF6E2C
:103598001350D96EDA6A030ED926DA6ADF50116E33
:1035A800D8901136D8901136D89011360AC0D9FF64
:1035B8000BC0DAFF1150DF120A4A0B2A1350D96EDA
:1035C800DA6A020ED926DA6ADF50116ED8901136FF
:1035D800D8901136D8901134E00B0AC0D9FF0BC02F
:1035E800DAFFDF6E0AC0D9FF0BC0DAFF000EDB86F8
:1035F8001350D96EDA6A020ED926DA6ADF50116ED4
:10360800030E11160AC0D9FF0BC0DAFF1150DF12E2
:103618000A4A0B2A1350D96EDA6AD92ADA6A0AC01A
:10362800E1FF0BC0E2FFDFCFE7FF0A4A0B2A135086
:10363800D96EDA6A0AC0E1FF0BC0E2FFDFCFE7FF0D
:103648001200E8CFDAF0DA51020DF3509C0FD96E70
:10365800DA6ADE6ADD6ADA51CEEC13F045C0D8F0DA
:1036680044C0D7F043C0D6F042C0D5F00001DA51CB
:10367800030DF350A90F4A6E4AC0F6FF090EF76E04
:103688000800F5500A6E0B6A39EC24F0180BA009F3
:103698000001DA25C86FD50ED96FD951D96EDA6A0B
:1036A800030ED926DA6ADF50CC6FD951D96EDA6A9F
:1036B800020ED926DA6ADF50CB6FD951D96EDA6A91
:1036C800D92ADA6ADF50CA6FD951D96EDA6ADF505F
:1036D800C96FDA51030DF350A90F4A6E4AC0F6FFBD
:1036E800090EF76E0800F5500A6E0B6A39EC24F0E3
:1036F8004B6E4BBC04D00001D36BD46B04D0020ECC
:103708000001D46FD36BDA51030DF3CF4AF04A2A84
:103718004A50A90F4B6E4BC0F6FF090EF76E080012
:10372800F5500A6E0B6A39EC24F00001D325D06FEE
:10373800000ED421D16FDA51030DF3CF4AF0020EF7
:103748004A264A50A90F4B6E4BC0F6FF090EF76E7A
:103758000800F5500A6E0B6A39EC24F00001D26FAC
:10376800D0C03FF0D1C040F0D2C041F073C042F0A9
:10377800030E436E050E446EC80E456E8CEF1EF0A8
:10378800E8CFE3F0E06BE16BE26BDB290DE0580E6C
:10379800F66E090EF76E0800F5500A6E0B6A39ECE2
:1037A80024F00001DB197EE1DC2910E0580E4C6E94
:1037B8004C2A4CC0F6FF090EF76E0800F5500A6E49
:1037C8000B6A39EC24F00001DC196CE1E351F00BD1
:1037D800F00A04E1010EE06FE16FE26FE05127E0CB
:1037E800E66BE76BE6C04CF0010E4D6E4C2A02D03A
:1037F800D8904D364C2EFCD74D50E3150FE0E6C05F
:10380800C8F0E651020DF350940FD96EDA6ADECF94
:10381800C9F0DDCFCAF0020E1FEC22F0E64BE72B11
:10382800E751800A800F040ED8B4E65DDBE3E1516E
:103838001BE0E46BE56BE4C04CF0010E4D6E4C2AC6
:1038480002D0D8904D364C2EFCD74D50E31503E0EE
:10385800E45125EC1BF0E44BE52BE551800A800F81
:10386800040ED8B4E45DE7E3E2511CE0300EDD6FEE
:10387800DE6B8238E832010B4C6E8238010B4D6EDC
:10388800D8904D344C10DF6F406A0F0E3F6E010E1A
:10389800416E73C042F0030E436E446EDD0E456EFA
:1038A8008CEC1EF01200E8CFBDF0481CBC6FBD5177
:1038B800830A02E1526A81D0830EBD6510D0890E59
:1038C800BD610DD048C00EF0BD517C0FA5EC23F0B2
:1038D8000001BD517C0F12EC24F000013BD0BD511A
:1038E800920A0DE148504A6E496A6A514B6E4C6A19
:1038F80049106A6F4A504C106B6F6B512BD0BD51F9
:10390800930A0BE1496A6B514A6E485049106A6F35
:103918004A506B6F6AC0BCF051D0880EBD651CD090
:10392800910EBD6119D06BC049F049C04AF04B6A8D
:103938004A2802E16A2902E0481C0CD048C00EF06F
:10394800BD51770F2CEC23F00001BD51770F08EC27
:1039580024F0C3D7BC6F32D0CF0EBD6518D0E00EAF
:10396800BD6115D06BC049F049C04AF04B6A4A287E
:10397800E3E16A29E1E148C00EF0BD51300F3FECA8
:1039880023F00001BD51300F1CEC24F0A6D7BD5127
:10399800A20AD2E14850550A04E1666B676B550EDE
:1039A800D9D74850AA0A0AE1E80E665D030E67599E
:1039B80004E268EC24F0AA0ECDD7BC6BBC5112000F
:1039C80053EC22F0C9EC21F00009D8B4FBEC04F068
:1039D80074EC20F00EEC21F026EC10F00400C50E7B
:1039E8000001685D090E69590EE374050CE07369FE
:1039F8006CEC24F00B6A010E0A6EFF0E0C6839ECB1
:103A080022F00EEC21F0786BC7EC22F02BD0732952
:103A180003E1010E746F32D0030E746F87EC23F04C
:103A28002DD030EC1EF02AD078AF28D07B517A11F7
:103A380003E1F1EC0CF022D05CEC12F07A511E0A92
:103A48007B111CE17C511A0A19E17FC0DBF080C0B0
:103A5800DCF07E51C4EC1BF011D06FEC24F00ED0DA
:103A6800746B0CD000017451D2E0010ADAE0030A49
:103A7800D5E0010AD9E0070AF0E0F2D7E90E000123
:103A8800605D030E6159000E6259000E63590BE325
:103A9800606B616B626B636B38EC21F07451030AE5
:103AA800D8B477EC24F03B0E70650BD0706B6F2B9D
:103AB8003B0E6F6502D06F6B6E2B170E6E6501D0D3
:103AC8006E6BFDEC08F08AD71A341B34206E206622
:103AD80001D005D01E341F34266E266605D0186A1C
:103AE800196A1A6A1B6A57D026507B0F20261BC0FA
:103AF80026F01F50261A800E26161A8E1E8E000ECD
:103B08001F16216A226A236A246A070E256E18A0E6
:103B180008D01C5021261D5022221E5023221F503F
:103B28002422D8901B321A3219321832D8901C36F7
:103B38001D361E361F36252EEAD7110E256E18A003
:103B480008D01C5021261D5022221E5023221F500F
:103B58002422D8901B321A3219321832D8902432C3
:103B6800233222322132252EEAD721C00AF022C080
:103B78000BF023C00CF024C00DF020C00EF026C0BE
:103B88000FF0D0EC1DF00DC01BF00CC01AF00BC0EC
:103B980019F00AC018F012000E5005E00D500A1076
:103BA8000B100C100BE10A6A0B6A0C6A0D6A53D0F1
:103BB8000E2AD8900D320C320B320A32106A116A72
:103BC800126AFE0E0D14136E1350101011101210FD
:103BD8000CE0EED70E2A0A2A000E0B220C220D2228
:103BE800D8900D320C320B320A32106A116A126AFE
:103BF8000D50136E135010101110121007E0EAD771
:103C08000E06D8900A360B360C360D360CAEF8D7A1
:103C18000EB002D07F0E0C16D8900E320EC010F0E7
:103C2800116A126A136A10C013F0126A116A106AD4
:103C380010500A1211500B1212500C1213500D1280
:103C48000F50D8A40D8E0AC00AF00BC00BF00CC0A0
:103C58000CF00DC00DF0120051D0552811E0810E66
:103C6800866F876B886B896B020E8A6F55C08CF0E4
:103C780085EC22F0010E0001756F4E6A4F6A45D03F
:103C8800040E746F810E866F8C69070E876F886BC0
:103C9800896B030E8A6F85EC22F037D078AF0FD08E
:103CA8007B517A1132E17C51030A2FE1556603D02A
:103CB800020E746FE2D7552A756B766B26D0E90E23
:103CC8004E5C030E4F5821E3762B020E766514D016
:103CD800556605D0552A756B4E6A4F6AEED755C0A2
:103CE80073F0030E746F756B7351F3EC23F00001DE
:103CF800766B87EC23F009D0756B07D000017551FE
:103D0800ACE0010ACBE0030AF7E10001786B12008E
:103D180041C0B4F0B56BB66BB76BB6C0B7F0B5C001
:103D2800B6F0B4C0B5F0B46B3F50B86F4050B96F3F
:103D3800BA6BBB6BB9C0BBF0B8C0BAF0B96BB86BA3
:103D480043C0BCF0BD6BBE6BBF6B1A0ED890BC37BE
:103D5800BD37BE37BF37E82EF9D7B851BC11C06F91
:103D6800B951BD11C16FBA51BE11C26FBB51BF115C
:103D7800C36FB451C011C46FB551C111C56FB651ED
:103D8800C211C66FB751C311C76F4250C411466EF6
:103D9800C551476EC651486EC751496E46C038F086
:103DA80047C039F048C03AF049C03BF044C03CF045
:103DB80045C03DF084EC21F00009000ED8A4010EA6
:103DC800120029342A34346E346601D005D02D34DB
:103DD8002E34356E356605D0276A286A296A2A6A1C
:103DE80043D03550890F345E2AC035F02E50351A2D
:103DF800800E3516298E2A6A2D8E2E6A200E336E75
:103E0800D8902F363036313632362B50275C2C502E
:103E180028582D5029582E502A5809E32B50275E30
:103E28002C50285A2D50295A2E502A5A2F80D89073
:103E38002736283629362A36332EE2D72FC00AF0FD
:103E480030C00BF031C00CF032C00DF034C00EF0B1
:103E580035C00FF0D0EC1DF00DC02AF00CC029F0D1
:103E68000BC028F00AC027F01200800EE7EC23F000
:103E7800090E706EFC0E716E010E726E200E736E5E
:103E8800778E779C606A0F01506B0E01206B306B48
:103E9800406B506B606B706BE00E0D01F86F0F019B
:103EA800006B080E016F026B036B046BE80E056F65
:103EB8001A0E066F076B030E0D01D46FD56BE06BFE
:103EC800110EE16FE26FE36BE46BE56BE66BE76B9A
:103ED800540EF06F050EF16FF26BF26B0F0E0F01BF
:103EE800186FE00E196F1A6B1B6B19870F0E1C6F7A
:103EF800E00E1D6F1E691F6B1D87000EE7EF23F094
:103F0800E8CFCDF0CDC0CAF0CD51030B020DF3CFF1
:103F18004AF00A0E4A264A50580F4B6E4BC0F6FF1D
:103F2800090EF76E0800F5500A6E0B6A39EC24F09A
:103F38000001CB6FCD51030B020DF3CF4AF00B0EEE
:103F48004A264A50580F4B6E4BC0F6FF090EF76EC3
:103F58000800F5500A6E0B6A39EC24F00001CC6FAA
:103F6800C8C03FF0406AC9C041F073C042F0030EB8
:103F7800436E446ECA0E456E8CEF1EF0E8CF29F0F2
:103F880023C01CF024C01DF02A0E9CEC22F000096E
:103F980002E1000E2ED02150D96EDA6A2AC0DFFF66
:103FA8002050D96EDA6A2BC0DFFF2C50256E010E27
:103FB8002D14266E2950D96EDA6A25C0DEFF26C078
:103FC800DDFF2250D96EDA6A2AC025F02BC026F010
:103FD8002CC027F02DC028F01B0E05D0D890283211
:103FE800273226322532E82EF9D72550070BDF6E07
:103FF800010E1200E8CFCBF0CBC0C8F0CBC04AF01E
:10400800030E4A16020E4A264A50580F4B6E4BC0F2
:10401800F6FF090EF76E0800F5500A6E0B6A39ECC8
:1040280024F00001C96FCBC04AF0030E4A164A2695
:104038004A50580F4B6E4BC0F6FF090EF76E08003A
:10404800F5500A6E0B6A39EC24F00001CA6F406A19
:10405800010E3F6E020E416E73C042F0436A030EBA
:10406800446EC80E456E8CEF1EF0E8CF0DF024D0DC
:104078000F0E0F6E600E1ED00F010F0E0F6E500E3A
:1040880019D00E010E0E0F6E200E14D00E010E0E5A
:104098000F6E300E0FD00E010E0E0F6E400E0AD0AE
:1040A8000E010E0EEBD70E010E0EE3D70E010E0E0B
:1040B8000F6E700E0E6E0FD00D50DAE0010ADCE0C4
:1040C800030ADFE0010AE2E0070AE5E0010AE8E0A6
:1040D800030AE9E0EBD70EC00AF00FC00BF012009C
:1040E8000001606B616B626B636B706B6F6B6E6B07
:1040F8000B6A0A6A0D6A080E0C6E940E05EC23F022
:104108000B6A0A6A0D6A040E0C6E0001B00E05EC0B
:1041180023F00B6A0A6A0D6A040E0C6E0001AC0EDD
:1041280005EC23F00B6A0A6A0D6A080E0C6E000192
:10413800A40E05EC23F00B6A0A6A0D6A080E0C6ED1
:1041480000019C0E05EC23F000016C6B6D6B1200F6
:10415800E8CF0AF00A50D96EDA6A040EDF6E0A5008
:10416800D96EDA6AD92ADA6ADF6A0A50D96EDA6A47
:10417800020ED926DA6ADF6A0A50D96EDA6A030EA5
:10418800D926DA6A030EDF6E0A50D96EDA6A040E8F
:10419800D926DA6ADF6A0A50D96EDA6A050ED92694
:1041A800DA6A030EDF6E0A50D96EDA6A060ED9266D
:1041B800DA6A000EDF6E000CE8CF0EF0C26AC06A41
:1041C800D8900A303C0BC26E0AC00CF00C3AF00EC4
:1041D8000C16300E0C160B500F0B0C10C16E0EC0C7
:1041E8000CF0D8900C36D8900C36380E0C160EC041
:1041F8000DF00D3A0F0E0D16070E0D160E50800B12
:104208000D100C10C06E0AAE03D09E9C9D8CF28CD3
:10421800C28012000001686B696B010E546E63EC7A
:1042280024F00001736F736701D07369732902E189
:10423800020E546E786B796B7A6B7B6B7C6B866B3A
:10424800876B886B896B8A6B526A516A556A746B83
:10425800756B766B6A6B6B6B4E6A4F6A666B676BD6
:10426800776B726B716B1200772B3B0E77650DD0F5
:10427800776B722B7451030A08E1C1EC23F000013B
:10428800C86FFEEC23F019EC23F03B0E00017265B9
:1042980002D0726B712B170E716501D0716B74515E
:1042A800030A09E1532A53C04CF00F0E4C16020EB4
:1042B8004C5CD8B0536A1200E8CFE9F0580EF66E9D
:1042C800090EF76E0800F5500A6E0B6A39EC24F0F7
:1042D8000001EA6F580EE86FE82BE8C0F6FF090EF8
:1042E800F76E0800F5500A6E0B6A39EC24F00001ED
:1042F800EB6FEAC0DBF0EBC0DCF0E951C4EF1BF078
:104308003E6A646B656B15D038C014F039C015F07F
:104318003AC016F03BC017F03DC018F03CC019F089
:10432800200E1A6E68EC18F0000903E0010E3E6ECC
:1043380006D0E80E0001645D030E6559E5E300014F
:10434800866B3E501200580EF66E090EF76E080086
:10435800F5500A6E0B6A39EC24F00001E96F580E2B
:10436800E86FE82BE8C0F6FF090EF76E0800F55075
:104378000A6E0B6A39EC24F00001EA6FE9C0DBF041
:10438800EAC0DCF0FF0EC4EF1BF0000E26EC24F0B0
:10439800550A07E1010E26EC24F0AA0A02E1010EF3
:1043A80012D0020E546E71EC24F0FF0EF3EC23F0E1
:1043B800550E0E6E000E52EC23F0AA0E0E6E010E74
:1043C80052EC23F0000E1200E8CF0BF00BA00BD03C
:1043D800010E8BBA000E0A6E0A3A0A468B500A186A
:1043E800DF0B0A188B6E0BA20AD0010E8BB8000ED9
:1043F8000A6E0A3A8B500A18EF0B0A188B6E1200D5
:1044080078510F0B020A16E1735120EE7EF0DF623D
:1044180011D07FC073F07351F3EC23F0810E0001CB
:10442800866F876B886B896B070E8A6F73C08CF0F9
:1044380085EC22F01200E8CFCBF0C851600FCC6FAA
:10444800CD6BCE6BCA51CF6FC9C0D0F0406A0F0E8A
:104458003F6ECBC041F073C042F0030E436E050EB1
:10446800446ECC0E456E8CEF1EF00AC0A9FF0CC03E
:10447800A8FFA69EA69CA684000EF2BE010E0D6E95
:10448800F29E550EA76EAA0EA76EA682A6B2FED7FA
:104498000DB002D0F29E01D0F28EA69412001F0E2B
:1044A800926E010E946E826A920E96EC23F0FB0EC9
:1044B8000B6E1D0E0A6E30EC24F0840E0A6E0F0E81
:1044C8000B6EEF0EE0EC20F039EC1FF0F28E73EF7C
:1044D80024F078510F0B0F6E0F5012E0735120EE3D
:1044E8007EF0DF620DD00F0405E0010E0F6408D0E6
:1044F8007F6706D07369FF0EF3EC23F00EEC21F012
:10450800120088C03FF089C040F08AC041F073C0F3
:1045180042F087C043F086510F0B446E8C0E456EF7
:104528008CEC1EF04A6E4A6601D0522A4A5012009C
:10453800E8CF1EF078AF02D0000E0FD01DC011F0EA
:104548001CC012F01F0E136E1E50EAEC14F0000986
:10455800F3E01FAC1FAAF0D7010E120078C04BF091
:104568000F0E4B164B040EE1735120EE7EF0DF6206
:1045780009D0800E866F876B886B896B030E8A6FF4
:1045880085EC22F0120078BF12D07C0E206E7D0ED2
:10459800216E790E226E780E236E7E0E246E7A0EB0
:1045A800C2EC1FF02E6E2E5002E00001788F120030
:1045B80014C00AF015C00BF00C6A0D6A960E0E6E48
:1045C800000E0F6AD0EC1DF00DC017F00CC016F0ED
:1045D8000BC015F00AC014F01200E8CF0BF0080E5B
:1045E8000C6E0D6AD8900B340D340D6ED8900B36C6
:1045F8000A500D5C02E30A500D5E0C2EF3D70D50E5
:104608001200E8CF0EF00EC00FF006D00F50D96E92
:10461800DA6A0AC0DFFF0F2A0C06D8A00D060C289C
:10462800D8B40D28D8B41200F1D7E8CF4BF0830ED8
:104638000001866F070E876F896B140E886F090E4D
:104648008A6F8C6B4BC08DF0C8C08EF085EF22F05E
:10465800E8CF0FF0070E0F6401D00CD06CEC24F0FB
:104668000B0E0F240A6E0B6A000E0B220EC00CF004
:1046780039EC22F01200E8CF0FF00F0E0F6401D0D2
:104688000CD06CEC24F0130E0F240A6E0B6A000E8B
:104698000B220EC00CF039EC22F01200E8CF0FF01C
:1046A800010E0F6401D00CD06CEC24F0020E0F2424
:1046B8000A6E0B6A000E0B220EC00CF039EC22F0C9
:1046C800120000EE60F0540EEE6AE806FDE100EE1E
:1046D8004EF0090EEE6AE806FDE1000EF86E0001E4
:1046E800E4EF1CF0E8CF4DF07F0E4D6406D0DDC03E
:1046F80048F04D5057EC1CF005D0DDC04AF04D5045
:10470800B4EC17F01200810E0001866F876B886B7E
:10471800896B020E8A6F73C08CF085EC22F0010E53
:10472800546E010CE8CF0AF00A507F0BD56ED76A99
:10473800D66AF2940AAE02D0F28A01D0F29AD58EE5
:104748001200E8CF0FF06CEC24F0060E0F240A6E6E
:104758000B6A000E0B220EC00CF039EF22F0E8CFE6
:104768000EF00E0409E16CEC24F00B6A0A6AFF0EE5
:104778000C6839EC22F0FF001200580E0C6E0C2A5F
:104788000CC0F6FF090EF76E0800F5500A6E0B6AAA
:1047980039EF24F0E8CF4AF07F0E4A6404D04A503B
:1047A800DCEC16F003D04A50F1EC15F01200E8CF1B
:1047B8000BF00B50D50F0A6E0AC0F6FF090EF76E04
:1047C8000800F5501200E8CF0AF01F0E6F160A50C5
:1047D8006F126F50E00B0A18D8B41200FAD7E8CF5E
:1047E8000EF06CEC24F00B6A010E0A6E0EC00CF091
:1047F80039EF22F0580EF66E090EF76E0800F550E4
:104808000A6E0B6A39EF24F0E8CF0CF00B0E0C247B
:104818000A6E0B6A000E0B2239EF24F0E8CF0CF079
:10482800060E0C240A6E0B6A000E0B2239EF24F0D8
:10483800E8CF0CF0130E0C240A6E0B6A000E0B2244
:1048480039EF24F0E8CF0CF0020E0C240A6E0B6A44
:10485800000E0B2239EF24F00AC00CF00BC00DF04B
:104868000DC0D7FF0CC0D6FF12000AC0A9FFA69C36
:10487800A69EA68000F000F0A850120001C003F028
:1048880002C004F004C0D7FF03C0D6FF1200E8CF6F
:104898000AF00AB08B9A0AB28B981200E8CF0AF095
:1048A8000AB08B8A0AB28B8812000A6A0B6A0C6AF1
:1048B8000D6A12000A6A0B6A0C6A0D6A12000B6A0A
:1048C800010E0A6E39EF24F0FBEC04F074EF20F0CF
:1048D800A6A21200FDD7546A1200FBEF04F0C282B0
:1048E8001200C28212001200050C080C010C040C04
:0648F800000C010C12008F
:020000040020DA
:08000000FFFFFFFFFFFFFFFF00
:020000040030CA
:0E000000FF06041EFF8281FF0FC00FE00F40BD
:00000001FF
